{
  "contractName": "BuddiNFT",
  "abi": [
    {
      "inputs": [
        {
          "internalType": "address",
          "name": "_royaltyAddress",
          "type": "address"
        },
        {
          "internalType": "address",
          "name": "_signerAddress",
          "type": "address"
        },
        {
          "internalType": "address",
          "name": "_buddiCollection",
          "type": "address"
        },
        {
          "internalType": "string",
          "name": "_baseURI",
          "type": "string"
        }
      ],
      "stateMutability": "nonpayable",
      "type": "constructor"
    },
    {
      "anonymous": false,
      "inputs": [
        {
          "indexed": true,
          "internalType": "address",
          "name": "owner",
          "type": "address"
        },
        {
          "indexed": true,
          "internalType": "address",
          "name": "approved",
          "type": "address"
        },
        {
          "indexed": true,
          "internalType": "uint256",
          "name": "tokenId",
          "type": "uint256"
        }
      ],
      "name": "Approval",
      "type": "event"
    },
    {
      "anonymous": false,
      "inputs": [
        {
          "indexed": true,
          "internalType": "address",
          "name": "owner",
          "type": "address"
        },
        {
          "indexed": true,
          "internalType": "address",
          "name": "operator",
          "type": "address"
        },
        {
          "indexed": false,
          "internalType": "bool",
          "name": "approved",
          "type": "bool"
        }
      ],
      "name": "ApprovalForAll",
      "type": "event"
    },
    {
      "anonymous": false,
      "inputs": [
        {
          "indexed": true,
          "internalType": "address",
          "name": "previousOwner",
          "type": "address"
        },
        {
          "indexed": true,
          "internalType": "address",
          "name": "newOwner",
          "type": "address"
        }
      ],
      "name": "OwnershipTransferred",
      "type": "event"
    },
    {
      "anonymous": false,
      "inputs": [
        {
          "indexed": true,
          "internalType": "address",
          "name": "mintedBy",
          "type": "address"
        },
        {
          "indexed": true,
          "internalType": "uint256",
          "name": "tokensNumber",
          "type": "uint256"
        }
      ],
      "name": "TokensMinted",
      "type": "event"
    },
    {
      "anonymous": false,
      "inputs": [
        {
          "indexed": true,
          "internalType": "address",
          "name": "from",
          "type": "address"
        },
        {
          "indexed": true,
          "internalType": "address",
          "name": "to",
          "type": "address"
        },
        {
          "indexed": true,
          "internalType": "uint256",
          "name": "tokenId",
          "type": "uint256"
        }
      ],
      "name": "Transfer",
      "type": "event"
    },
    {
      "anonymous": false,
      "inputs": [
        {
          "indexed": false,
          "internalType": "string",
          "name": "oldBaseUri",
          "type": "string"
        },
        {
          "indexed": false,
          "internalType": "string",
          "name": "newBaseUri",
          "type": "string"
        }
      ],
      "name": "baseUriUpdated",
      "type": "event"
    },
    {
      "anonymous": false,
      "inputs": [
        {
          "indexed": true,
          "internalType": "uint256",
          "name": "startingIndex",
          "type": "uint256"
        }
      ],
      "name": "startingIndexFinalized",
      "type": "event"
    },
    {
      "inputs": [],
      "name": "BuddiCollection",
      "outputs": [
        {
          "internalType": "contract IERC1155",
          "name": "",
          "type": "address"
        }
      ],
      "stateMutability": "view",
      "type": "function",
      "constant": true
    },
    {
      "inputs": [],
      "name": "MAX_PER_TRANSACTION",
      "outputs": [
        {
          "internalType": "uint256",
          "name": "",
          "type": "uint256"
        }
      ],
      "stateMutability": "view",
      "type": "function",
      "constant": true
    },
    {
      "inputs": [],
      "name": "MAX_SUPPLY",
      "outputs": [
        {
          "internalType": "uint256",
          "name": "",
          "type": "uint256"
        }
      ],
      "stateMutability": "view",
      "type": "function",
      "constant": true
    },
    {
      "inputs": [],
      "name": "MAX_SUPPLY_PER_DNA",
      "outputs": [
        {
          "internalType": "uint256",
          "name": "",
          "type": "uint256"
        }
      ],
      "stateMutability": "view",
      "type": "function",
      "constant": true
    },
    {
      "inputs": [],
      "name": "PROVENANCE_HASH",
      "outputs": [
        {
          "internalType": "string",
          "name": "",
          "type": "string"
        }
      ],
      "stateMutability": "view",
      "type": "function",
      "constant": true
    },
    {
      "inputs": [],
      "name": "ROYALTY_DENOMINATOR",
      "outputs": [
        {
          "internalType": "uint256",
          "name": "",
          "type": "uint256"
        }
      ],
      "stateMutability": "view",
      "type": "function",
      "constant": true
    },
    {
      "inputs": [],
      "name": "ROYALTY_SIZE",
      "outputs": [
        {
          "internalType": "uint256",
          "name": "",
          "type": "uint256"
        }
      ],
      "stateMutability": "view",
      "type": "function",
      "constant": true
    },
    {
      "inputs": [
        {
          "internalType": "address",
          "name": "",
          "type": "address"
        },
        {
          "internalType": "uint256",
          "name": "",
          "type": "uint256"
        }
      ],
      "name": "_mintPassesUsed",
      "outputs": [
        {
          "internalType": "uint256",
          "name": "",
          "type": "uint256"
        }
      ],
      "stateMutability": "view",
      "type": "function",
      "constant": true
    },
    {
      "inputs": [
        {
          "internalType": "uint256",
          "name": "",
          "type": "uint256"
        }
      ],
      "name": "_mintPassesUsedByDnaType",
      "outputs": [
        {
          "internalType": "uint256",
          "name": "",
          "type": "uint256"
        }
      ],
      "stateMutability": "view",
      "type": "function",
      "constant": true
    },
    {
      "inputs": [
        {
          "internalType": "address",
          "name": "",
          "type": "address"
        }
      ],
      "name": "_usedNonces",
      "outputs": [
        {
          "internalType": "uint256",
          "name": "",
          "type": "uint256"
        }
      ],
      "stateMutability": "view",
      "type": "function",
      "constant": true
    },
    {
      "inputs": [
        {
          "internalType": "address",
          "name": "to",
          "type": "address"
        },
        {
          "internalType": "uint256",
          "name": "tokenId",
          "type": "uint256"
        }
      ],
      "name": "approve",
      "outputs": [],
      "stateMutability": "nonpayable",
      "type": "function"
    },
    {
      "inputs": [
        {
          "internalType": "address",
          "name": "owner",
          "type": "address"
        }
      ],
      "name": "balanceOf",
      "outputs": [
        {
          "internalType": "uint256",
          "name": "",
          "type": "uint256"
        }
      ],
      "stateMutability": "view",
      "type": "function",
      "constant": true
    },
    {
      "inputs": [
        {
          "internalType": "uint256",
          "name": "tokenId",
          "type": "uint256"
        }
      ],
      "name": "getApproved",
      "outputs": [
        {
          "internalType": "address",
          "name": "",
          "type": "address"
        }
      ],
      "stateMutability": "view",
      "type": "function",
      "constant": true
    },
    {
      "inputs": [
        {
          "internalType": "address",
          "name": "owner",
          "type": "address"
        },
        {
          "internalType": "address",
          "name": "operator",
          "type": "address"
        }
      ],
      "name": "isApprovedForAll",
      "outputs": [
        {
          "internalType": "bool",
          "name": "",
          "type": "bool"
        }
      ],
      "stateMutability": "view",
      "type": "function",
      "constant": true
    },
    {
      "inputs": [],
      "name": "metadataFinalised",
      "outputs": [
        {
          "internalType": "bool",
          "name": "",
          "type": "bool"
        }
      ],
      "stateMutability": "view",
      "type": "function",
      "constant": true
    },
    {
      "inputs": [],
      "name": "metadataRevealed",
      "outputs": [
        {
          "internalType": "bool",
          "name": "",
          "type": "bool"
        }
      ],
      "stateMutability": "view",
      "type": "function",
      "constant": true
    },
    {
      "inputs": [],
      "name": "name",
      "outputs": [
        {
          "internalType": "string",
          "name": "",
          "type": "string"
        }
      ],
      "stateMutability": "view",
      "type": "function",
      "constant": true
    },
    {
      "inputs": [],
      "name": "owner",
      "outputs": [
        {
          "internalType": "address",
          "name": "",
          "type": "address"
        }
      ],
      "stateMutability": "view",
      "type": "function",
      "constant": true
    },
    {
      "inputs": [
        {
          "internalType": "uint256",
          "name": "tokenId",
          "type": "uint256"
        }
      ],
      "name": "ownerOf",
      "outputs": [
        {
          "internalType": "address",
          "name": "",
          "type": "address"
        }
      ],
      "stateMutability": "view",
      "type": "function",
      "constant": true
    },
    {
      "inputs": [],
      "name": "renounceOwnership",
      "outputs": [],
      "stateMutability": "nonpayable",
      "type": "function"
    },
    {
      "inputs": [],
      "name": "royaltyAddress",
      "outputs": [
        {
          "internalType": "address",
          "name": "",
          "type": "address"
        }
      ],
      "stateMutability": "view",
      "type": "function",
      "constant": true
    },
    {
      "inputs": [
        {
          "internalType": "address",
          "name": "from",
          "type": "address"
        },
        {
          "internalType": "address",
          "name": "to",
          "type": "address"
        },
        {
          "internalType": "uint256",
          "name": "tokenId",
          "type": "uint256"
        }
      ],
      "name": "safeTransferFrom",
      "outputs": [],
      "stateMutability": "nonpayable",
      "type": "function"
    },
    {
      "inputs": [
        {
          "internalType": "address",
          "name": "from",
          "type": "address"
        },
        {
          "internalType": "address",
          "name": "to",
          "type": "address"
        },
        {
          "internalType": "uint256",
          "name": "tokenId",
          "type": "uint256"
        },
        {
          "internalType": "bytes",
          "name": "_data",
          "type": "bytes"
        }
      ],
      "name": "safeTransferFrom",
      "outputs": [],
      "stateMutability": "nonpayable",
      "type": "function"
    },
    {
      "inputs": [],
      "name": "saleIsActive",
      "outputs": [
        {
          "internalType": "bool",
          "name": "",
          "type": "bool"
        }
      ],
      "stateMutability": "view",
      "type": "function",
      "constant": true
    },
    {
      "inputs": [
        {
          "internalType": "address",
          "name": "operator",
          "type": "address"
        },
        {
          "internalType": "bool",
          "name": "approved",
          "type": "bool"
        }
      ],
      "name": "setApprovalForAll",
      "outputs": [],
      "stateMutability": "nonpayable",
      "type": "function"
    },
    {
      "inputs": [],
      "name": "signatureClaimIsActive",
      "outputs": [
        {
          "internalType": "bool",
          "name": "",
          "type": "bool"
        }
      ],
      "stateMutability": "view",
      "type": "function",
      "constant": true
    },
    {
      "inputs": [],
      "name": "signerAddress",
      "outputs": [
        {
          "internalType": "address",
          "name": "",
          "type": "address"
        }
      ],
      "stateMutability": "view",
      "type": "function",
      "constant": true
    },
    {
      "inputs": [],
      "name": "startingIndex",
      "outputs": [
        {
          "internalType": "uint256",
          "name": "",
          "type": "uint256"
        }
      ],
      "stateMutability": "view",
      "type": "function",
      "constant": true
    },
    {
      "inputs": [
        {
          "internalType": "bytes4",
          "name": "interfaceId",
          "type": "bytes4"
        }
      ],
      "name": "supportsInterface",
      "outputs": [
        {
          "internalType": "bool",
          "name": "",
          "type": "bool"
        }
      ],
      "stateMutability": "view",
      "type": "function",
      "constant": true
    },
    {
      "inputs": [],
      "name": "symbol",
      "outputs": [
        {
          "internalType": "string",
          "name": "",
          "type": "string"
        }
      ],
      "stateMutability": "view",
      "type": "function",
      "constant": true
    },
    {
      "inputs": [
        {
          "internalType": "uint256",
          "name": "index",
          "type": "uint256"
        }
      ],
      "name": "tokenByIndex",
      "outputs": [
        {
          "internalType": "uint256",
          "name": "",
          "type": "uint256"
        }
      ],
      "stateMutability": "view",
      "type": "function",
      "constant": true
    },
    {
      "inputs": [
        {
          "internalType": "address",
          "name": "owner",
          "type": "address"
        },
        {
          "internalType": "uint256",
          "name": "index",
          "type": "uint256"
        }
      ],
      "name": "tokenOfOwnerByIndex",
      "outputs": [
        {
          "internalType": "uint256",
          "name": "tokenId",
          "type": "uint256"
        }
      ],
      "stateMutability": "view",
      "type": "function",
      "constant": true
    },
    {
      "inputs": [],
      "name": "totalSupply",
      "outputs": [
        {
          "internalType": "uint256",
          "name": "",
          "type": "uint256"
        }
      ],
      "stateMutability": "view",
      "type": "function",
      "constant": true
    },
    {
      "inputs": [
        {
          "internalType": "address",
          "name": "from",
          "type": "address"
        },
        {
          "internalType": "address",
          "name": "to",
          "type": "address"
        },
        {
          "internalType": "uint256",
          "name": "tokenId",
          "type": "uint256"
        }
      ],
      "name": "transferFrom",
      "outputs": [],
      "stateMutability": "nonpayable",
      "type": "function"
    },
    {
      "inputs": [
        {
          "internalType": "address",
          "name": "newOwner",
          "type": "address"
        }
      ],
      "name": "transferOwnership",
      "outputs": [],
      "stateMutability": "nonpayable",
      "type": "function"
    },
    {
      "inputs": [
        {
          "internalType": "uint256[]",
          "name": "tokensToMint",
          "type": "uint256[]"
        }
      ],
      "name": "mintPassPurchase",
      "outputs": [],
      "stateMutability": "nonpayable",
      "type": "function"
    },
    {
      "inputs": [
        {
          "internalType": "uint256",
          "name": "tokensToMint",
          "type": "uint256"
        },
        {
          "internalType": "uint256",
          "name": "nonce",
          "type": "uint256"
        },
        {
          "internalType": "bytes",
          "name": "signature",
          "type": "bytes"
        }
      ],
      "name": "signatureClaim",
      "outputs": [],
      "stateMutability": "nonpayable",
      "type": "function"
    },
    {
      "inputs": [
        {
          "internalType": "uint256",
          "name": "tokensToMint",
          "type": "uint256"
        }
      ],
      "name": "emergencyMint",
      "outputs": [],
      "stateMutability": "nonpayable",
      "type": "function"
    },
    {
      "inputs": [
        {
          "internalType": "uint256",
          "name": "_tokenId",
          "type": "uint256"
        },
        {
          "internalType": "uint256",
          "name": "_salePrice",
          "type": "uint256"
        }
      ],
      "name": "royaltyInfo",
      "outputs": [
        {
          "internalType": "address",
          "name": "receiver",
          "type": "address"
        },
        {
          "internalType": "uint256",
          "name": "royaltyAmount",
          "type": "uint256"
        }
      ],
      "stateMutability": "view",
      "type": "function",
      "constant": true
    },
    {
      "inputs": [
        {
          "internalType": "address",
          "name": "receiver",
          "type": "address"
        },
        {
          "internalType": "uint256",
          "name": "tokenId",
          "type": "uint256"
        }
      ],
      "name": "addRoyaltyReceiverForTokenId",
      "outputs": [],
      "stateMutability": "nonpayable",
      "type": "function"
    },
    {
      "inputs": [
        {
          "internalType": "bool",
          "name": "status",
          "type": "bool"
        }
      ],
      "name": "updateSaleStatus",
      "outputs": [],
      "stateMutability": "nonpayable",
      "type": "function"
    },
    {
      "inputs": [
        {
          "internalType": "bool",
          "name": "status",
          "type": "bool"
        }
      ],
      "name": "updateSignatureClaimStatus",
      "outputs": [],
      "stateMutability": "nonpayable",
      "type": "function"
    },
    {
      "inputs": [
        {
          "internalType": "string",
          "name": "newBaseURI",
          "type": "string"
        }
      ],
      "name": "setBaseURI",
      "outputs": [],
      "stateMutability": "nonpayable",
      "type": "function"
    },
    {
      "inputs": [
        {
          "internalType": "uint256",
          "name": "tokenId",
          "type": "uint256"
        }
      ],
      "name": "tokenURI",
      "outputs": [
        {
          "internalType": "string",
          "name": "",
          "type": "string"
        }
      ],
      "stateMutability": "view",
      "type": "function",
      "constant": true
    },
    {
      "inputs": [],
      "name": "revealMetadata",
      "outputs": [],
      "stateMutability": "nonpayable",
      "type": "function"
    },
    {
      "inputs": [],
      "name": "finalizeMetadata",
      "outputs": [],
      "stateMutability": "nonpayable",
      "type": "function"
    },
    {
      "inputs": [],
      "name": "withdraw",
      "outputs": [],
      "stateMutability": "nonpayable",
      "type": "function"
    }
  ],
  "bytecode": "0x60806040526102ee6011556127106012553480156200001d57600080fd5b506040516200611f3803806200611f83398181016040528101906200004391906200041b565b6040518060400160405280600c81526020017f42756464692052756e6e657200000000000000000000000000000000000000008152506040518060400160405280600381526020017f42554400000000000000000000000000000000000000000000000000000000008152508160009080519060200190620000c7929190620002d6565b508060019080519060200190620000e0929190620002d6565b50600060068190555050506200010b620000ff6200020860201b60201c565b6200021060201b60201c565b6001600a8190555083601060006101000a81548173ffffffffffffffffffffffffffffffffffffffff021916908373ffffffffffffffffffffffffffffffffffffffff16021790555082600f60046101000a81548173ffffffffffffffffffffffffffffffffffffffff021916908373ffffffffffffffffffffffffffffffffffffffff16021790555081601460006101000a81548173ffffffffffffffffffffffffffffffffffffffff021916908373ffffffffffffffffffffffffffffffffffffffff160217905550671bc16d674ec8000060188190555080600d9080519060200190620001fd929190620002d6565b50505050506200067e565b600033905090565b6000600960009054906101000a900473ffffffffffffffffffffffffffffffffffffffff16905081600960006101000a81548173ffffffffffffffffffffffffffffffffffffffff021916908373ffffffffffffffffffffffffffffffffffffffff1602179055508173ffffffffffffffffffffffffffffffffffffffff168173ffffffffffffffffffffffffffffffffffffffff167f8be0079c531659141344cd1fd0a4f28419497f9722a3daafe3b4186f6b6457e060405160405180910390a35050565b828054620002e49062000575565b90600052602060002090601f01602090048101928262000308576000855562000354565b82601f106200032357805160ff191683800117855562000354565b8280016001018555821562000354579182015b828111156200035357825182559160200191906001019062000336565b5b50905062000363919062000367565b5090565b5b808211156200038257600081600090555060010162000368565b5090565b60006200039d6200039784620004d5565b620004ac565b905082815260208101848484011115620003bc57620003bb62000644565b5b620003c98482856200053f565b509392505050565b600081519050620003e28162000664565b92915050565b600082601f8301126200040057620003ff6200063f565b5b81516200041284826020860162000386565b91505092915050565b600080600080608085870312156200043857620004376200064e565b5b60006200044887828801620003d1565b94505060206200045b87828801620003d1565b93505060406200046e87828801620003d1565b925050606085015167ffffffffffffffff81111562000492576200049162000649565b5b620004a087828801620003e8565b91505092959194509250565b6000620004b8620004cb565b9050620004c68282620005ab565b919050565b6000604051905090565b600067ffffffffffffffff821115620004f357620004f262000610565b5b620004fe8262000653565b9050602081019050919050565b600062000518826200051f565b9050919050565b600073ffffffffffffffffffffffffffffffffffffffff82169050919050565b60005b838110156200055f57808201518184015260208101905062000542565b838111156200056f576000848401525b50505050565b600060028204905060018216806200058e57607f821691505b60208210811415620005a557620005a4620005e1565b5b50919050565b620005b68262000653565b810181811067ffffffffffffffff82111715620005d857620005d762000610565b5b80604052505050565b7f4e487b7100000000000000000000000000000000000000000000000000000000600052602260045260246000fd5b7f4e487b7100000000000000000000000000000000000000000000000000000000600052604160045260246000fd5b600080fd5b600080fd5b600080fd5b600080fd5b6000601f19601f8301169050919050565b6200066f816200050b565b81146200067b57600080fd5b50565b615a91806200068e6000396000f3fe608060405234801561001057600080fd5b50600436106102955760003560e01c80636ecb87b611610167578063cb14eb87116100ce578063e985e9c511610087578063e985e9c5146107dd578063eb8d24441461080d578063f2fde38b1461082b578063f4a560a514610847578063ff1b655614610851578063ffcc66dc1461086f57610295565b8063cb14eb871461072b578063cb774d4714610749578063cd6a3ea514610767578063dc4d42b714610783578063dcc7ba24146107a1578063df173dba146107bf57610295565b806395d89b411161012057806395d89b4114610657578063a22cb46514610675578063ad2f852a14610691578063afd0f769146106af578063b88d4fde146106df578063c87b56dd146106fb57610295565b80636ecb87b6146105b957806370a08231146105d7578063715018a6146106075780637c86bcb8146106115780638da5cb5b1461062f5780639182a9df1461064d57610295565b806323b872dd1161020b5780634a0c7b46116101c45780634a0c7b46146104e75780634f6ccce71461050357806355f804b3146105335780635b7633d01461054f5780636352211e1461056d57806366b5543e1461059d57610295565b806323b872dd146104265780632a55205a146104425780632f745c591461047357806332cb6b0c146104a35780633ccfd60b146104c157806342842e0e146104cb57610295565b8063099becfb1161025d578063099becfb146103505780630a0889491461036e5780630a3a7ebc1461038a57806318160ddd146103a85780631b0a417f146103c657806320889780146103f657610295565b806301ffc9a71461029a57806306fdde03146102ca578063081812fc146102e8578063095ea7b3146103185780630969dc6214610334575b600080fd5b6102b460048036038101906102af9190613e15565b61088b565b6040516102c19190614744565b60405180910390f35b6102d2610905565b6040516102df91906147bf565b60405180910390f35b61030260048036038101906102fd9190613eb8565b610997565b60405161030f91906146b4565b60405180910390f35b610332600480360381019061032d9190613d5f565b610a1c565b005b61034e60048036038101906103499190613de8565b610b34565b005b610358610bcd565b6040516103659190614c38565b60405180910390f35b61038860048036038101906103839190613de8565b610bd3565b005b610392610c6c565b60405161039f9190614744565b60405180910390f35b6103b0610c7f565b6040516103bd9190614c38565b60405180910390f35b6103e060048036038101906103db9190613d5f565b610c89565b6040516103ed9190614c38565b60405180910390f35b610410600480360381019061040b9190613eb8565b610cae565b60405161041d9190614c38565b60405180910390f35b610440600480360381019061043b9190613c49565b610cc6565b005b61045c60048036038101906104579190613f12565b610d26565b60405161046a92919061471b565b60405180910390f35b61048d60048036038101906104889190613d5f565b610e2d565b60405161049a9190614c38565b60405180910390f35b6104ab610edd565b6040516104b89190614c38565b60405180910390f35b6104c9610ee3565b005b6104e560048036038101906104e09190613c49565b610fb5565b005b61050160048036038101906104fc9190613d9f565b610fd5565b005b61051d60048036038101906105189190613eb8565b61152a565b60405161052a9190614c38565b60405180910390f35b61054d60048036038101906105489190613e6f565b611599565b005b610557611748565b60405161056491906146b4565b60405180910390f35b61058760048036038101906105829190613eb8565b61176e565b60405161059491906146b4565b60405180910390f35b6105b760048036038101906105b29190613f52565b611820565b005b6105c1611b57565b6040516105ce91906147a4565b60405180910390f35b6105f160048036038101906105ec9190613bdc565b611b7d565b6040516105fe9190614c38565b60405180910390f35b61060f611c35565b005b610619611cbd565b6040516106269190614744565b60405180910390f35b610637611cd0565b60405161064491906146b4565b60405180910390f35b610655611cfa565b005b61065f611de3565b60405161066c91906147bf565b60405180910390f35b61068f600480360381019061068a9190613d1f565b611e75565b005b610699611ff6565b6040516106a691906146b4565b60405180910390f35b6106c960048036038101906106c49190613bdc565b61201c565b6040516106d69190614c38565b60405180910390f35b6106f960048036038101906106f49190613c9c565b612034565b005b61071560048036038101906107109190613eb8565b612096565b60405161072291906147bf565b60405180910390f35b6107336121b9565b6040516107409190614c38565b60405180910390f35b6107516121be565b60405161075e9190614c38565b60405180910390f35b610781600480360381019061077c9190613d5f565b6121c4565b005b61078b612296565b6040516107989190614c38565b60405180910390f35b6107a961229c565b6040516107b69190614744565b60405180910390f35b6107c76122af565b6040516107d49190614c38565b60405180910390f35b6107f760048036038101906107f29190613c09565b6122b5565b6040516108049190614744565b60405180910390f35b610815612349565b6040516108229190614744565b60405180910390f35b61084560048036038101906108409190613bdc565b61235c565b005b61084f612454565b005b61085961253d565b60405161086691906147bf565b60405180910390f35b61088960048036038101906108849190613eb8565b6125cb565b005b60007f780e9d63000000000000000000000000000000000000000000000000000000007bffffffffffffffffffffffffffffffffffffffffffffffffffffffff1916827bffffffffffffffffffffffffffffffffffffffffffffffffffffffff191614806108fe57506108fd8261272a565b5b9050919050565b60606000805461091490614f76565b80601f016020809104026020016040519081016040528092919081815260200182805461094090614f76565b801561098d5780601f106109625761010080835404028352916020019161098d565b820191906000526020600020905b81548152906001019060200180831161097057829003601f168201915b5050505050905090565b60006109a28261280c565b6109e1576040517f08c379a00000000000000000000000000000000000000000000000000000000081526004016109d890614a98565b60405180910390fd5b6007600083815260200190815260200160002060009054906101000a900473ffffffffffffffffffffffffffffffffffffffff169050919050565b6000610a278261176e565b90508073ffffffffffffffffffffffffffffffffffffffff168373ffffffffffffffffffffffffffffffffffffffff161415610a98576040517f08c379a0000000000000000000000000000000000000000000000000000000008152600401610a8f90614b18565b60405180910390fd5b8073ffffffffffffffffffffffffffffffffffffffff16610ab7612878565b73ffffffffffffffffffffffffffffffffffffffff161480610ae65750610ae581610ae0612878565b6122b5565b5b610b25576040517f08c379a0000000000000000000000000000000000000000000000000000000008152600401610b1c906149b8565b60405180910390fd5b610b2f8383612880565b505050565b610b3c612878565b73ffffffffffffffffffffffffffffffffffffffff16610b5a611cd0565b73ffffffffffffffffffffffffffffffffffffffff1614610bb0576040517f08c379a0000000000000000000000000000000000000000000000000000000008152600401610ba790614ab8565b60405180910390fd5b80600f60016101000a81548160ff02191690831515021790555050565b60115481565b610bdb612878565b73ffffffffffffffffffffffffffffffffffffffff16610bf9611cd0565b73ffffffffffffffffffffffffffffffffffffffff1614610c4f576040517f08c379a0000000000000000000000000000000000000000000000000000000008152600401610c4690614ab8565b60405180910390fd5b80600f60006101000a81548160ff02191690831515021790555050565b600f60019054906101000a900460ff1681565b6000600654905090565b6015602052816000526040600020602052806000526040600020600091509150505481565b60166020528060005260406000206000915090505481565b610cd7610cd1612878565b82612939565b610d16576040517f08c379a0000000000000000000000000000000000000000000000000000000008152600401610d0d90614b58565b60405180910390fd5b610d21838383612a17565b505050565b6000806000610d54601254610d4660115487612bc590919063ffffffff16565b612bdb90919063ffffffff16565b905060008073ffffffffffffffffffffffffffffffffffffffff166013600088815260200190815260200160002060009054906101000a900473ffffffffffffffffffffffffffffffffffffffff1673ffffffffffffffffffffffffffffffffffffffff161415610de757601060009054906101000a900473ffffffffffffffffffffffffffffffffffffffff16610e1c565b6013600087815260200190815260200160002060009054906101000a900473ffffffffffffffffffffffffffffffffffffffff165b905080829350935050509250929050565b6000610e3883611b7d565b8210610e79576040517f08c379a0000000000000000000000000000000000000000000000000000000008152600401610e7090614898565b60405180910390fd5b600560008473ffffffffffffffffffffffffffffffffffffffff1673ffffffffffffffffffffffffffffffffffffffff1681526020019081526020016000208281548110610eca57610ec9615147565b5b9060005260206000200154905092915050565b61271081565b610eeb612878565b73ffffffffffffffffffffffffffffffffffffffff16610f09611cd0565b73ffffffffffffffffffffffffffffffffffffffff1614610f5f576040517f08c379a0000000000000000000000000000000000000000000000000000000008152600401610f5690614ab8565b60405180910390fd5b6000479050610f6c611cd0565b73ffffffffffffffffffffffffffffffffffffffff166108fc829081150290604051600060405180830381858888f19350505050158015610fb1573d6000803e3d6000fd5b5050565b610fd083838360405180602001604052806000815250612034565b505050565b6002600a54141561101b576040517f08c379a000000000000000000000000000000000000000000000000000000000815260040161101290614bf8565b60405180910390fd5b6002600a8190555061102b611cd0565b73ffffffffffffffffffffffffffffffffffffffff16611049612878565b73ffffffffffffffffffffffffffffffffffffffff16146110b457600f60009054906101000a900460ff166110b3576040517f08c379a00000000000000000000000000000000000000000000000000000000081526004016110aa90614c18565b60405180910390fd5b5b60058151146110f8576040517f08c379a00000000000000000000000000000000000000000000000000000000081526004016110ef90614838565b60405180910390fd5b6000805b60058110156111405782818151811061111857611117615147565b5b60200260200101518261112b9190614d5e565b9150808061113890614fd9565b9150506110fc565b506032811115611185576040517f08c379a000000000000000000000000000000000000000000000000000000000815260040161117c90614858565b60405180910390fd5b6127106111a282611194610c7f565b612bf190919063ffffffff16565b11156111e3576040517f08c379a00000000000000000000000000000000000000000000000000000000081526004016111da90614a18565b60405180910390fd5b60005b60058110156114d257600061130d60156000611200612878565b73ffffffffffffffffffffffffffffffffffffffff1673ffffffffffffffffffffffffffffffffffffffff168152602001908152602001600020600084815260200190815260200160002054601460009054906101000a900473ffffffffffffffffffffffffffffffffffffffff1673ffffffffffffffffffffffffffffffffffffffff1662fdd58e611291612878565b866040518363ffffffff1660e01b81526004016112af92919061471b565b60206040518083038186803b1580156112c757600080fd5b505afa1580156112db573d6000803e3d6000fd5b505050506040513d601f19601f820116820180604052508101906112ff9190613ee5565b612c0790919063ffffffff16565b90508084838151811061132357611322615147565b5b6020026020010151111561136c576040517f08c379a0000000000000000000000000000000000000000000000000000000008152600401611363906148f8565b60405180910390fd5b60006016600084815260200190815260200160002054836107d06113909190614de5565b61139a9190614d5e565b90508483815181106113af576113ae615147565b5b6020026020010151601560006113c3612878565b73ffffffffffffffffffffffffffffffffffffffff1673ffffffffffffffffffffffffffffffffffffffff1681526020019081526020016000206000858152602001908152602001600020600082825461141d9190614d5e565b9250508190555060005b85848151811061143a57611439615147565b5b602002602001015181101561147857611465611454612878565b82846114609190614d5e565b612c1d565b808061147090614fd9565b915050611427565b5084838151811061148c5761148b615147565b5b60200260200101516016600085815260200190815260200160002060008282546114b69190614d5e565b92505081905550505080806114ca90614fd9565b9150506111e6565b50806114dc612878565b73ffffffffffffffffffffffffffffffffffffffff167f3f2c9d57c068687834f0de942a9babb9e5acab57d516d3480a3c16ee165a427360405160405180910390a3506001600a8190555050565b60006002805490508210611573576040517f08c379a000000000000000000000000000000000000000000000000000000000815260040161156a90614bb8565b60405180910390fd5b6002828154811061158757611586615147565b5b90600052602060002001549050919050565b6115a1612878565b73ffffffffffffffffffffffffffffffffffffffff166115bf611cd0565b73ffffffffffffffffffffffffffffffffffffffff1614611615576040517f08c379a000000000000000000000000000000000000000000000000000000000815260040161160c90614ab8565b60405180910390fd5b600f60039054906101000a900460ff1615611665576040517f08c379a000000000000000000000000000000000000000000000000000000000815260040161165c90614b38565b60405180910390fd5b6000600d805461167490614f76565b80601f01602080910402602001604051908101604052809291908181526020018280546116a090614f76565b80156116ed5780601f106116c2576101008083540402835291602001916116ed565b820191906000526020600020905b8154815290600101906020018083116116d057829003601f168201915b5050505050905081600d908051906020019061170a9291906138e7565b507f9f02bf4cb60375a0a74d238c76d002df33d30d2b85e9e677f03455a22d96c14d818360405161173c9291906147e1565b60405180910390a15050565b600f60049054906101000a900473ffffffffffffffffffffffffffffffffffffffff1681565b6000806003600084815260200190815260200160002060009054906101000a900473ffffffffffffffffffffffffffffffffffffffff169050600073ffffffffffffffffffffffffffffffffffffffff168173ffffffffffffffffffffffffffffffffffffffff161415611817576040517f08c379a000000000000000000000000000000000000000000000000000000000815260040161180e906149f8565b60405180910390fd5b80915050919050565b6002600a541415611866576040517f08c379a000000000000000000000000000000000000000000000000000000000815260040161185d90614bf8565b60405180910390fd5b6002600a81905550611876611cd0565b73ffffffffffffffffffffffffffffffffffffffff16611894612878565b73ffffffffffffffffffffffffffffffffffffffff16146118ff57600f60019054906101000a900460ff166118fe576040517f08c379a00000000000000000000000000000000000000000000000000000000081526004016118f590614c18565b60405180910390fd5b5b6032841115611943576040517f08c379a000000000000000000000000000000000000000000000000000000000815260040161193a90614858565b60405180910390fd5b61271061196085611952610c7f565b612bf190919063ffffffff16565b11156119a1576040517f08c379a000000000000000000000000000000000000000000000000000000000815260040161199890614bd8565b60405180910390fd5b6119b5828286866119b0612878565b612c3b565b6119f4576040517f08c379a00000000000000000000000000000000000000000000000000000000081526004016119eb90614b78565b60405180910390fd5b8260176000611a01612878565b73ffffffffffffffffffffffffffffffffffffffff1673ffffffffffffffffffffffffffffffffffffffff1681526020019081526020016000205410611a7c576040517f08c379a0000000000000000000000000000000000000000000000000000000008152600401611a7390614a78565b60405180910390fd5b8260176000611a89612878565b73ffffffffffffffffffffffffffffffffffffffff1673ffffffffffffffffffffffffffffffffffffffff1681526020019081526020016000208190555060005b84811015611afd57611aea611add612878565b611ae5610c7f565b612c1d565b8080611af590614fd9565b915050611aca565b5083611b07612878565b73ffffffffffffffffffffffffffffffffffffffff167f3f2c9d57c068687834f0de942a9babb9e5acab57d516d3480a3c16ee165a427360405160405180910390a36001600a8190555050505050565b601460009054906101000a900473ffffffffffffffffffffffffffffffffffffffff1681565b60008073ffffffffffffffffffffffffffffffffffffffff168273ffffffffffffffffffffffffffffffffffffffff161415611bee576040517f08c379a0000000000000000000000000000000000000000000000000000000008152600401611be5906149d8565b60405180910390fd5b600460008373ffffffffffffffffffffffffffffffffffffffff1673ffffffffffffffffffffffffffffffffffffffff168152602001908152602001600020549050919050565b611c3d612878565b73ffffffffffffffffffffffffffffffffffffffff16611c5b611cd0565b73ffffffffffffffffffffffffffffffffffffffff1614611cb1576040517f08c379a0000000000000000000000000000000000000000000000000000000008152600401611ca890614ab8565b60405180910390fd5b611cbb6000612d62565b565b600f60039054906101000a900460ff1681565b6000600960009054906101000a900473ffffffffffffffffffffffffffffffffffffffff16905090565b611d02612878565b73ffffffffffffffffffffffffffffffffffffffff16611d20611cd0565b73ffffffffffffffffffffffffffffffffffffffff1614611d76576040517f08c379a0000000000000000000000000000000000000000000000000000000008152600401611d6d90614ab8565b60405180910390fd5b600f60029054906101000a900460ff1615611dc6576040517f08c379a0000000000000000000000000000000000000000000000000000000008152600401611dbd90614b38565b60405180910390fd5b6001600f60026101000a81548160ff021916908315150217905550565b606060018054611df290614f76565b80601f0160208091040260200160405190810160405280929190818152602001828054611e1e90614f76565b8015611e6b5780601f10611e4057610100808354040283529160200191611e6b565b820191906000526020600020905b815481529060010190602001808311611e4e57829003601f168201915b5050505050905090565b611e7d612878565b73ffffffffffffffffffffffffffffffffffffffff168273ffffffffffffffffffffffffffffffffffffffff161415611eeb576040517f08c379a0000000000000000000000000000000000000000000000000000000008152600401611ee290614958565b60405180910390fd5b8060086000611ef8612878565b73ffffffffffffffffffffffffffffffffffffffff1673ffffffffffffffffffffffffffffffffffffffff16815260200190815260200160002060008473ffffffffffffffffffffffffffffffffffffffff1673ffffffffffffffffffffffffffffffffffffffff16815260200190815260200160002060006101000a81548160ff0219169083151502179055508173ffffffffffffffffffffffffffffffffffffffff16611fa5612878565b73ffffffffffffffffffffffffffffffffffffffff167f17307eab39ab6107e8899845ad3d59bd9653f200f220920489ca2b5937696c3183604051611fea9190614744565b60405180910390a35050565b601060009054906101000a900473ffffffffffffffffffffffffffffffffffffffff1681565b60176020528060005260406000206000915090505481565b61204561203f612878565b83612939565b612084576040517f08c379a000000000000000000000000000000000000000000000000000000000815260040161207b90614b58565b60405180910390fd5b61209084848484612e28565b50505050565b60606120a18261280c565b6120e0576040517f08c379a00000000000000000000000000000000000000000000000000000000081526004016120d790614af8565b60405180910390fd5b600f60029054906101000a900460ff1661218657600d805461210190614f76565b80601f016020809104026020016040519081016040528092919081815260200182805461212d90614f76565b801561217a5780601f1061214f5761010080835404028352916020019161217a565b820191906000526020600020905b81548152906001019060200180831161215d57829003601f168201915b505050505090506121b4565b600d61219183612e84565b6040516020016121a292919061462d565b60405160208183030381529060405290505b919050565b603281565b600e5481565b6121cc612878565b73ffffffffffffffffffffffffffffffffffffffff166121ea611cd0565b73ffffffffffffffffffffffffffffffffffffffff1614612240576040517f08c379a000000000000000000000000000000000000000000000000000000000815260040161223790614ab8565b60405180910390fd5b816013600083815260200190815260200160002060006101000a81548173ffffffffffffffffffffffffffffffffffffffff021916908373ffffffffffffffffffffffffffffffffffffffff1602179055505050565b6107d081565b600f60029054906101000a900460ff1681565b60125481565b6000600860008473ffffffffffffffffffffffffffffffffffffffff1673ffffffffffffffffffffffffffffffffffffffff16815260200190815260200160002060008373ffffffffffffffffffffffffffffffffffffffff1673ffffffffffffffffffffffffffffffffffffffff16815260200190815260200160002060009054906101000a900460ff16905092915050565b600f60009054906101000a900460ff1681565b612364612878565b73ffffffffffffffffffffffffffffffffffffffff16612382611cd0565b73ffffffffffffffffffffffffffffffffffffffff16146123d8576040517f08c379a00000000000000000000000000000000000000000000000000000000081526004016123cf90614ab8565b60405180910390fd5b600073ffffffffffffffffffffffffffffffffffffffff168173ffffffffffffffffffffffffffffffffffffffff161415612448576040517f08c379a000000000000000000000000000000000000000000000000000000000815260040161243f906148d8565b60405180910390fd5b61245181612d62565b50565b61245c612878565b73ffffffffffffffffffffffffffffffffffffffff1661247a611cd0565b73ffffffffffffffffffffffffffffffffffffffff16146124d0576040517f08c379a00000000000000000000000000000000000000000000000000000000081526004016124c790614ab8565b60405180910390fd5b600f60039054906101000a900460ff1615612520576040517f08c379a000000000000000000000000000000000000000000000000000000000815260040161251790614b98565b60405180910390fd5b6001600f60036101000a81548160ff021916908315150217905550565b600c805461254a90614f76565b80601f016020809104026020016040519081016040528092919081815260200182805461257690614f76565b80156125c35780601f10612598576101008083540402835291602001916125c3565b820191906000526020600020905b8154815290600101906020018083116125a657829003601f168201915b505050505081565b6125d3612878565b73ffffffffffffffffffffffffffffffffffffffff166125f1611cd0565b73ffffffffffffffffffffffffffffffffffffffff1614612647576040517f08c379a000000000000000000000000000000000000000000000000000000000815260040161263e90614ab8565b60405180910390fd5b61271061266482612656610c7f565b612bf190919063ffffffff16565b11156126a5576040517f08c379a000000000000000000000000000000000000000000000000000000000815260040161269c90614bd8565b60405180910390fd5b60005b818110156126db576126c86126bb612878565b6126c3610c7f565b612c1d565b80806126d390614fd9565b9150506126a8565b50806126e5612878565b73ffffffffffffffffffffffffffffffffffffffff167f3f2c9d57c068687834f0de942a9babb9e5acab57d516d3480a3c16ee165a427360405160405180910390a350565b60007f80ac58cd000000000000000000000000000000000000000000000000000000007bffffffffffffffffffffffffffffffffffffffffffffffffffffffff1916827bffffffffffffffffffffffffffffffffffffffffffffffffffffffff191614806127f557507f5b5e139f000000000000000000000000000000000000000000000000000000007bffffffffffffffffffffffffffffffffffffffffffffffffffffffff1916827bffffffffffffffffffffffffffffffffffffffffffffffffffffffff1916145b80612805575061280482612fe5565b5b9050919050565b60008073ffffffffffffffffffffffffffffffffffffffff166003600084815260200190815260200160002060009054906101000a900473ffffffffffffffffffffffffffffffffffffffff1673ffffffffffffffffffffffffffffffffffffffff1614159050919050565b600033905090565b816007600083815260200190815260200160002060006101000a81548173ffffffffffffffffffffffffffffffffffffffff021916908373ffffffffffffffffffffffffffffffffffffffff160217905550808273ffffffffffffffffffffffffffffffffffffffff166128f38361176e565b73ffffffffffffffffffffffffffffffffffffffff167f8c5be1e5ebec7d5bd14f71427d1e84f3dd0314c0f7b2291e5b200ac8c7c3b92560405160405180910390a45050565b60006129448261280c565b612983576040517f08c379a000000000000000000000000000000000000000000000000000000000815260040161297a90614998565b60405180910390fd5b600061298e8361176e565b90508073ffffffffffffffffffffffffffffffffffffffff168473ffffffffffffffffffffffffffffffffffffffff1614806129fd57508373ffffffffffffffffffffffffffffffffffffffff166129e584610997565b73ffffffffffffffffffffffffffffffffffffffff16145b80612a0e5750612a0d81856122b5565b5b91505092915050565b8273ffffffffffffffffffffffffffffffffffffffff16612a378261176e565b73ffffffffffffffffffffffffffffffffffffffff1614612a8d576040517f08c379a0000000000000000000000000000000000000000000000000000000008152600401612a8490614ad8565b60405180910390fd5b600073ffffffffffffffffffffffffffffffffffffffff168273ffffffffffffffffffffffffffffffffffffffff161415612afd576040517f08c379a0000000000000000000000000000000000000000000000000000000008152600401612af490614938565b60405180910390fd5b612b0883838361304f565b612b13600082612880565b816003600083815260200190815260200160002060006101000a81548173ffffffffffffffffffffffffffffffffffffffff021916908373ffffffffffffffffffffffffffffffffffffffff160217905550808273ffffffffffffffffffffffffffffffffffffffff168473ffffffffffffffffffffffffffffffffffffffff167fddf252ad1be2c89b69c2b068fc378daa952ba7f163c4a11628f55a4df523b3ef60405160405180910390a4505050565b60008183612bd39190614de5565b905092915050565b60008183612be99190614db4565b905092915050565b60008183612bff9190614d5e565b905092915050565b60008183612c159190614e3f565b905092915050565b612c37828260405180602001604052806000815250613054565b5050565b600080848484604051602001612c5393929190614677565b6040516020818303038152906040528051906020012090506000612c76826130af565b90506000612cc8828a8a8080601f016020809104026020016040519081016040528093929190818152602001838380828437600081840152601f19601f820116905080830192505050505050506130df565b9050600073ffffffffffffffffffffffffffffffffffffffff168173ffffffffffffffffffffffffffffffffffffffff1614158015612d545750600f60049054906101000a900473ffffffffffffffffffffffffffffffffffffffff1673ffffffffffffffffffffffffffffffffffffffff168173ffffffffffffffffffffffffffffffffffffffff16145b935050505095945050505050565b6000600960009054906101000a900473ffffffffffffffffffffffffffffffffffffffff16905081600960006101000a81548173ffffffffffffffffffffffffffffffffffffffff021916908373ffffffffffffffffffffffffffffffffffffffff1602179055508173ffffffffffffffffffffffffffffffffffffffff168173ffffffffffffffffffffffffffffffffffffffff167f8be0079c531659141344cd1fd0a4f28419497f9722a3daafe3b4186f6b6457e060405160405180910390a35050565b612e33848484612a17565b612e3f84848484613106565b612e7e576040517f08c379a0000000000000000000000000000000000000000000000000000000008152600401612e75906148b8565b60405180910390fd5b50505050565b60606000821415612ecc576040518060400160405280600181526020017f30000000000000000000000000000000000000000000000000000000000000008152509050612fe0565b600082905060005b60008214612efe578080612ee790614fd9565b915050600a82612ef79190614db4565b9150612ed4565b60008167ffffffffffffffff811115612f1a57612f19615176565b5b6040519080825280601f01601f191660200182016040528015612f4c5781602001600182028036833780820191505090505b5090505b60008514612fd957600182612f659190614e3f565b9150600a85612f74919061505a565b6030612f809190614d5e565b60f81b818381518110612f9657612f95615147565b5b60200101907effffffffffffffffffffffffffffffffffffffffffffffffffffffffffffff1916908160001a905350600a85612fd29190614db4565b9450612f50565b8093505050505b919050565b60007f01ffc9a7000000000000000000000000000000000000000000000000000000007bffffffffffffffffffffffffffffffffffffffffffffffffffffffff1916827bffffffffffffffffffffffffffffffffffffffffffffffffffffffff1916149050919050565b505050565b61305e838361329d565b61306b6000848484613106565b6130aa576040517f08c379a00000000000000000000000000000000000000000000000000000000081526004016130a1906148b8565b60405180910390fd5b505050565b6000816040516020016130c29190614651565b604051602081830303815290604052805190602001209050919050565b60008060006130ee8585613510565b915091506130fb81613593565b819250505092915050565b60006131278473ffffffffffffffffffffffffffffffffffffffff16613768565b15613290578373ffffffffffffffffffffffffffffffffffffffff1663150b7a02613150612878565b8786866040518563ffffffff1660e01b815260040161317294939291906146cf565b602060405180830381600087803b15801561318c57600080fd5b505af19250505080156131bd57506040513d601f19601f820116820180604052508101906131ba9190613e42565b60015b613240573d80600081146131ed576040519150601f19603f3d011682016040523d82523d6000602084013e6131f2565b606091505b50600081511415613238576040517f08c379a000000000000000000000000000000000000000000000000000000000815260040161322f906148b8565b60405180910390fd5b805181602001fd5b63150b7a0260e01b7bffffffffffffffffffffffffffffffffffffffffffffffffffffffff1916817bffffffffffffffffffffffffffffffffffffffffffffffffffffffff191614915050613295565b600190505b949350505050565b600073ffffffffffffffffffffffffffffffffffffffff168273ffffffffffffffffffffffffffffffffffffffff16141561330d576040517f08c379a000000000000000000000000000000000000000000000000000000000815260040161330490614a58565b60405180910390fd5b6133168161280c565b15613356576040517f08c379a000000000000000000000000000000000000000000000000000000000815260040161334d90614918565b60405180910390fd5b6133626000838361304f565b816003600083815260200190815260200160002060006101000a81548173ffffffffffffffffffffffffffffffffffffffff021916908373ffffffffffffffffffffffffffffffffffffffff1602179055506002819080600181540180825580915050600190039060005260206000200160009091909190915055600560008373ffffffffffffffffffffffffffffffffffffffff1673ffffffffffffffffffffffffffffffffffffffff168152602001908152602001600020819080600181540180825580915050600190039060005260206000200160009091909190915055600460008373ffffffffffffffffffffffffffffffffffffffff1673ffffffffffffffffffffffffffffffffffffffff168152602001908152602001600020600081548092919061349390614fd9565b9190505550600660008154809291906134ab90614fd9565b9190505550808273ffffffffffffffffffffffffffffffffffffffff16600073ffffffffffffffffffffffffffffffffffffffff167fddf252ad1be2c89b69c2b068fc378daa952ba7f163c4a11628f55a4df523b3ef60405160405180910390a45050565b6000806041835114156135525760008060006020860151925060408601519150606086015160001a90506135468782858561377b565b9450945050505061358c565b604083511415613583576000806020850151915060408501519050613578868383613888565b93509350505061358c565b60006002915091505b9250929050565b600060048111156135a7576135a66150e9565b5b8160048111156135ba576135b96150e9565b5b14156135c557613765565b600160048111156135d9576135d86150e9565b5b8160048111156135ec576135eb6150e9565b5b141561362d576040517f08c379a000000000000000000000000000000000000000000000000000000000815260040161362490614818565b60405180910390fd5b60026004811115613641576136406150e9565b5b816004811115613654576136536150e9565b5b1415613695576040517f08c379a000000000000000000000000000000000000000000000000000000000815260040161368c90614878565b60405180910390fd5b600360048111156136a9576136a86150e9565b5b8160048111156136bc576136bb6150e9565b5b14156136fd576040517f08c379a00000000000000000000000000000000000000000000000000000000081526004016136f490614978565b60405180910390fd5b6004808111156137105761370f6150e9565b5b816004811115613723576137226150e9565b5b1415613764576040517f08c379a000000000000000000000000000000000000000000000000000000000815260040161375b90614a38565b60405180910390fd5b5b50565b600080823b905060008111915050919050565b6000807f7fffffffffffffffffffffffffffffff5d576e7357a4501ddfe92f46681b20a08360001c11156137b657600060039150915061387f565b601b8560ff16141580156137ce5750601c8560ff1614155b156137e057600060049150915061387f565b600060018787878760405160008152602001604052604051613805949392919061475f565b6020604051602081039080840390855afa158015613827573d6000803e3d6000fd5b505050602060405103519050600073ffffffffffffffffffffffffffffffffffffffff168173ffffffffffffffffffffffffffffffffffffffff1614156138765760006001925092505061387f565b80600092509250505b94509492505050565b60008060007f7fffffffffffffffffffffffffffffffffffffffffffffffffffffffffffffff60001b841690506000601b60ff8660001c901c6138cb9190614d5e565b90506138d98782888561377b565b935093505050935093915050565b8280546138f390614f76565b90600052602060002090601f016020900481019282613915576000855561395c565b82601f1061392e57805160ff191683800117855561395c565b8280016001018555821561395c579182015b8281111561395b578251825591602001919060010190613940565b5b509050613969919061396d565b5090565b5b8082111561398657600081600090555060010161396e565b5090565b600061399d61399884614c78565b614c53565b905080838252602082019050828560208602820111156139c0576139bf6151af565b5b60005b858110156139f057816139d68882613bb2565b8452602084019350602083019250506001810190506139c3565b5050509392505050565b6000613a0d613a0884614ca4565b614c53565b905082815260208101848484011115613a2957613a286151b4565b5b613a34848285614f34565b509392505050565b6000613a4f613a4a84614cd5565b614c53565b905082815260208101848484011115613a6b57613a6a6151b4565b5b613a76848285614f34565b509392505050565b600081359050613a8d816159ff565b92915050565b600082601f830112613aa857613aa76151aa565b5b8135613ab884826020860161398a565b91505092915050565b600081359050613ad081615a16565b92915050565b600081359050613ae581615a2d565b92915050565b600081519050613afa81615a2d565b92915050565b60008083601f840112613b1657613b156151aa565b5b8235905067ffffffffffffffff811115613b3357613b326151a5565b5b602083019150836001820283011115613b4f57613b4e6151af565b5b9250929050565b600082601f830112613b6b57613b6a6151aa565b5b8135613b7b8482602086016139fa565b91505092915050565b600082601f830112613b9957613b986151aa565b5b8135613ba9848260208601613a3c565b91505092915050565b600081359050613bc181615a44565b92915050565b600081519050613bd681615a44565b92915050565b600060208284031215613bf257613bf16151be565b5b6000613c0084828501613a7e565b91505092915050565b60008060408385031215613c2057613c1f6151be565b5b6000613c2e85828601613a7e565b9250506020613c3f85828601613a7e565b9150509250929050565b600080600060608486031215613c6257613c616151be565b5b6000613c7086828701613a7e565b9350506020613c8186828701613a7e565b9250506040613c9286828701613bb2565b9150509250925092565b60008060008060808587031215613cb657613cb56151be565b5b6000613cc487828801613a7e565b9450506020613cd587828801613a7e565b9350506040613ce687828801613bb2565b925050606085013567ffffffffffffffff811115613d0757613d066151b9565b5b613d1387828801613b56565b91505092959194509250565b60008060408385031215613d3657613d356151be565b5b6000613d4485828601613a7e565b9250506020613d5585828601613ac1565b9150509250929050565b60008060408385031215613d7657613d756151be565b5b6000613d8485828601613a7e565b9250506020613d9585828601613bb2565b9150509250929050565b600060208284031215613db557613db46151be565b5b600082013567ffffffffffffffff811115613dd357613dd26151b9565b5b613ddf84828501613a93565b91505092915050565b600060208284031215613dfe57613dfd6151be565b5b6000613e0c84828501613ac1565b91505092915050565b600060208284031215613e2b57613e2a6151be565b5b6000613e3984828501613ad6565b91505092915050565b600060208284031215613e5857613e576151be565b5b6000613e6684828501613aeb565b91505092915050565b600060208284031215613e8557613e846151be565b5b600082013567ffffffffffffffff811115613ea357613ea26151b9565b5b613eaf84828501613b84565b91505092915050565b600060208284031215613ece57613ecd6151be565b5b6000613edc84828501613bb2565b91505092915050565b600060208284031215613efb57613efa6151be565b5b6000613f0984828501613bc7565b91505092915050565b60008060408385031215613f2957613f286151be565b5b6000613f3785828601613bb2565b9250506020613f4885828601613bb2565b9150509250929050565b60008060008060608587031215613f6c57613f6b6151be565b5b6000613f7a87828801613bb2565b9450506020613f8b87828801613bb2565b935050604085013567ffffffffffffffff811115613fac57613fab6151b9565b5b613fb887828801613b00565b925092505092959194509250565b613fcf81614e73565b82525050565b613fe6613fe182614e73565b615022565b82525050565b613ff581614e85565b82525050565b61400481614e91565b82525050565b61401b61401682614e91565b615034565b82525050565b600061402c82614d1b565b6140368185614d31565b9350614046818560208601614f43565b61404f816151c3565b840191505092915050565b61406381614efe565b82525050565b600061407482614d26565b61407e8185614d42565b935061408e818560208601614f43565b614097816151c3565b840191505092915050565b60006140ad82614d26565b6140b78185614d53565b93506140c7818560208601614f43565b80840191505092915050565b600081546140e081614f76565b6140ea8186614d53565b94506001821660008114614105576001811461411657614149565b60ff19831686528186019350614149565b61411f85614d06565b60005b8381101561414157815481890152600182019150602081019050614122565b838801955050505b50505092915050565b600061415f601883614d42565b915061416a826151e1565b602082019050919050565b6000614182601683614d42565b915061418d8261520a565b602082019050919050565b60006141a5602a83614d42565b91506141b082615233565b604082019050919050565b60006141c8601f83614d42565b91506141d382615282565b602082019050919050565b60006141eb601c83614d53565b91506141f6826152ab565b601c82019050919050565b600061420e602b83614d42565b9150614219826152d4565b604082019050919050565b6000614231603283614d42565b915061423c82615323565b604082019050919050565b6000614254602683614d42565b915061425f82615372565b604082019050919050565b6000614277601183614d42565b9150614282826153c1565b602082019050919050565b600061429a601c83614d42565b91506142a5826153ea565b602082019050919050565b60006142bd602483614d42565b91506142c882615413565b604082019050919050565b60006142e0601983614d42565b91506142eb82615462565b602082019050919050565b6000614303602283614d42565b915061430e8261548b565b604082019050919050565b6000614326602c83614d42565b9150614331826154da565b604082019050919050565b6000614349603883614d42565b915061435482615529565b604082019050919050565b600061436c602a83614d42565b915061437782615578565b604082019050919050565b600061438f602983614d42565b915061439a826155c7565b604082019050919050565b60006143b2601c83614d42565b91506143bd82615616565b602082019050919050565b60006143d5602283614d42565b91506143e08261563f565b604082019050919050565b60006143f8602083614d42565b91506144038261568e565b602082019050919050565b600061441b600f83614d42565b9150614426826156b7565b602082019050919050565b600061443e602c83614d42565b9150614449826156e0565b604082019050919050565b6000614461602083614d42565b915061446c8261572f565b602082019050919050565b6000614484602983614d42565b915061448f82615758565b604082019050919050565b60006144a7602f83614d42565b91506144b2826157a7565b604082019050919050565b60006144ca602183614d42565b91506144d5826157f6565b604082019050919050565b60006144ed601983614d42565b91506144f882615845565b602082019050919050565b6000614510603183614d42565b915061451b8261586e565b604082019050919050565b6000614533602383614d42565b915061453e826158bd565b604082019050919050565b6000614556601a83614d42565b91506145618261590c565b602082019050919050565b6000614579602c83614d42565b915061458482615935565b604082019050919050565b600061459c601d83614d42565b91506145a782615984565b602082019050919050565b60006145bf601f83614d42565b91506145ca826159ad565b602082019050919050565b60006145e2601c83614d42565b91506145ed826159d6565b602082019050919050565b61460181614ee7565b82525050565b61461861461382614ee7565b615050565b82525050565b61462781614ef1565b82525050565b600061463982856140d3565b915061464582846140a2565b91508190509392505050565b600061465c826141de565b9150614668828461400a565b60208201915081905092915050565b60006146838286614607565b6020820191506146938285614607565b6020820191506146a38284613fd5565b601482019150819050949350505050565b60006020820190506146c96000830184613fc6565b92915050565b60006080820190506146e46000830187613fc6565b6146f16020830186613fc6565b6146fe60408301856145f8565b81810360608301526147108184614021565b905095945050505050565b60006040820190506147306000830185613fc6565b61473d60208301846145f8565b9392505050565b60006020820190506147596000830184613fec565b92915050565b60006080820190506147746000830187613ffb565b614781602083018661461e565b61478e6040830185613ffb565b61479b6060830184613ffb565b95945050505050565b60006020820190506147b9600083018461405a565b92915050565b600060208201905081810360008301526147d98184614069565b905092915050565b600060408201905081810360008301526147fb8185614069565b9050818103602083015261480f8184614069565b90509392505050565b6000602082019050818103600083015261483181614152565b9050919050565b6000602082019050818103600083015261485181614175565b9050919050565b6000602082019050818103600083015261487181614198565b9050919050565b60006020820190508181036000830152614891816141bb565b9050919050565b600060208201905081810360008301526148b181614201565b9050919050565b600060208201905081810360008301526148d181614224565b9050919050565b600060208201905081810360008301526148f181614247565b9050919050565b600060208201905081810360008301526149118161426a565b9050919050565b600060208201905081810360008301526149318161428d565b9050919050565b60006020820190508181036000830152614951816142b0565b9050919050565b60006020820190508181036000830152614971816142d3565b9050919050565b60006020820190508181036000830152614991816142f6565b9050919050565b600060208201905081810360008301526149b181614319565b9050919050565b600060208201905081810360008301526149d18161433c565b9050919050565b600060208201905081810360008301526149f18161435f565b9050919050565b60006020820190508181036000830152614a1181614382565b9050919050565b60006020820190508181036000830152614a31816143a5565b9050919050565b60006020820190508181036000830152614a51816143c8565b9050919050565b60006020820190508181036000830152614a71816143eb565b9050919050565b60006020820190508181036000830152614a918161440e565b9050919050565b60006020820190508181036000830152614ab181614431565b9050919050565b60006020820190508181036000830152614ad181614454565b9050919050565b60006020820190508181036000830152614af181614477565b9050919050565b60006020820190508181036000830152614b118161449a565b9050919050565b60006020820190508181036000830152614b31816144bd565b9050919050565b60006020820190508181036000830152614b51816144e0565b9050919050565b60006020820190508181036000830152614b7181614503565b9050919050565b60006020820190508181036000830152614b9181614526565b9050919050565b60006020820190508181036000830152614bb181614549565b9050919050565b60006020820190508181036000830152614bd18161456c565b9050919050565b60006020820190508181036000830152614bf18161458f565b9050919050565b60006020820190508181036000830152614c11816145b2565b9050919050565b60006020820190508181036000830152614c31816145d5565b9050919050565b6000602082019050614c4d60008301846145f8565b92915050565b6000614c5d614c6e565b9050614c698282614fa8565b919050565b6000604051905090565b600067ffffffffffffffff821115614c9357614c92615176565b5b602082029050602081019050919050565b600067ffffffffffffffff821115614cbf57614cbe615176565b5b614cc8826151c3565b9050602081019050919050565b600067ffffffffffffffff821115614cf057614cef615176565b5b614cf9826151c3565b9050602081019050919050565b60008190508160005260206000209050919050565b600081519050919050565b600081519050919050565b600082825260208201905092915050565b600082825260208201905092915050565b600081905092915050565b6000614d6982614ee7565b9150614d7483614ee7565b9250827fffffffffffffffffffffffffffffffffffffffffffffffffffffffffffffffff03821115614da957614da861508b565b5b828201905092915050565b6000614dbf82614ee7565b9150614dca83614ee7565b925082614dda57614dd96150ba565b5b828204905092915050565b6000614df082614ee7565b9150614dfb83614ee7565b9250817fffffffffffffffffffffffffffffffffffffffffffffffffffffffffffffffff0483118215151615614e3457614e3361508b565b5b828202905092915050565b6000614e4a82614ee7565b9150614e5583614ee7565b925082821015614e6857614e6761508b565b5b828203905092915050565b6000614e7e82614ec7565b9050919050565b60008115159050919050565b6000819050919050565b60007fffffffff0000000000000000000000000000000000000000000000000000000082169050919050565b600073ffffffffffffffffffffffffffffffffffffffff82169050919050565b6000819050919050565b600060ff82169050919050565b6000614f0982614f10565b9050919050565b6000614f1b82614f22565b9050919050565b6000614f2d82614ec7565b9050919050565b82818337600083830152505050565b60005b83811015614f61578082015181840152602081019050614f46565b83811115614f70576000848401525b50505050565b60006002820490506001821680614f8e57607f821691505b60208210811415614fa257614fa1615118565b5b50919050565b614fb1826151c3565b810181811067ffffffffffffffff82111715614fd057614fcf615176565b5b80604052505050565b6000614fe482614ee7565b91507fffffffffffffffffffffffffffffffffffffffffffffffffffffffffffffffff8214156150175761501661508b565b5b600182019050919050565b600061502d8261503e565b9050919050565b6000819050919050565b6000615049826151d4565b9050919050565b6000819050919050565b600061506582614ee7565b915061507083614ee7565b9250826150805761507f6150ba565b5b828206905092915050565b7f4e487b7100000000000000000000000000000000000000000000000000000000600052601160045260246000fd5b7f4e487b7100000000000000000000000000000000000000000000000000000000600052601260045260246000fd5b7f4e487b7100000000000000000000000000000000000000000000000000000000600052602160045260246000fd5b7f4e487b7100000000000000000000000000000000000000000000000000000000600052602260045260246000fd5b7f4e487b7100000000000000000000000000000000000000000000000000000000600052603260045260246000fd5b7f4e487b7100000000000000000000000000000000000000000000000000000000600052604160045260246000fd5b600080fd5b600080fd5b600080fd5b600080fd5b600080fd5b600080fd5b6000601f19601f8301169050919050565b60008160601b9050919050565b7f45434453413a20696e76616c6964207369676e61747572650000000000000000600082015250565b7f57726f6e67205075726368617365205265717565737400000000000000000000600082015250565b7f596f752063616e206d696e74206d617820353020746f6b656e7320706572207460008201527f72616e73616374696f6e00000000000000000000000000000000000000000000602082015250565b7f45434453413a20696e76616c6964207369676e6174757265206c656e67746800600082015250565b7f19457468657265756d205369676e6564204d6573736167653a0a333200000000600082015250565b7f455243373231456e756d657261626c653a206f776e657220696e646578206f7560008201527f74206f6620626f756e6473000000000000000000000000000000000000000000602082015250565b7f4552433732313a207472616e7366657220746f206e6f6e20455243373231526560008201527f63656976657220696d706c656d656e7465720000000000000000000000000000602082015250565b7f4f776e61626c653a206e6577206f776e657220697320746865207a65726f206160008201527f6464726573730000000000000000000000000000000000000000000000000000602082015250565b7f4e6f7420656e6f75676820706173736573000000000000000000000000000000600082015250565b7f4552433732313a20746f6b656e20616c7265616479206d696e74656400000000600082015250565b7f4552433732313a207472616e7366657220746f20746865207a65726f2061646460008201527f7265737300000000000000000000000000000000000000000000000000000000602082015250565b7f4552433732313a20617070726f766520746f2063616c6c657200000000000000600082015250565b7f45434453413a20696e76616c6964207369676e6174757265202773272076616c60008201527f7565000000000000000000000000000000000000000000000000000000000000602082015250565b7f4552433732313a206f70657261746f7220717565727920666f72206e6f6e657860008201527f697374656e7420746f6b656e0000000000000000000000000000000000000000602082015250565b7f4552433732313a20617070726f76652063616c6c6572206973206e6f74206f7760008201527f6e6572206e6f7220617070726f76656420666f7220616c6c0000000000000000602082015250565b7f4552433732313a2062616c616e636520717565727920666f7220746865207a6560008201527f726f206164647265737300000000000000000000000000000000000000000000602082015250565b7f4552433732313a206f776e657220717565727920666f72206e6f6e657869737460008201527f656e7420746f6b656e0000000000000000000000000000000000000000000000602082015250565b7f4d696e74206d6f7265204275646469207468617420616c6c6f77656400000000600082015250565b7f45434453413a20696e76616c6964207369676e6174757265202776272076616c60008201527f7565000000000000000000000000000000000000000000000000000000000000602082015250565b7f4552433732313a206d696e7420746f20746865207a65726f2061646472657373600082015250565b7f416c726561647920636c61696d65640000000000000000000000000000000000600082015250565b7f4552433732313a20617070726f76656420717565727920666f72206e6f6e657860008201527f697374656e7420746f6b656e0000000000000000000000000000000000000000602082015250565b7f4f776e61626c653a2063616c6c6572206973206e6f7420746865206f776e6572600082015250565b7f4552433732313a207472616e73666572206f6620746f6b656e2074686174206960008201527f73206e6f74206f776e0000000000000000000000000000000000000000000000602082015250565b7f4552433732314d657461646174613a2055524920717565727920666f72206e6f60008201527f6e6578697374656e7420746f6b656e0000000000000000000000000000000000602082015250565b7f4552433732313a20617070726f76616c20746f2063757272656e74206f776e6560008201527f7200000000000000000000000000000000000000000000000000000000000000602082015250565b7f4d6574616461746120616c72656164792072657665616c656400000000000000600082015250565b7f4552433732313a207472616e736665722063616c6c6572206973206e6f74206f60008201527f776e6572206e6f7220617070726f766564000000000000000000000000000000602082015250565b7f57726f6e6720646174612070617373656420696e746f2074686520636f6e747260008201527f6163740000000000000000000000000000000000000000000000000000000000602082015250565b7f4d6574616461746120616c72656164792066696e616c69736564000000000000600082015250565b7f455243373231456e756d657261626c653a20676c6f62616c20696e646578206f60008201527f7574206f6620626f756e64730000000000000000000000000000000000000000602082015250565b7f4d696e74206d6f72652063726565707a207468617420616c6c6f776564000000600082015250565b7f5265656e7472616e637947756172643a207265656e7472616e742063616c6c00600082015250565b7f546865206d696e7420686173206e6f7420737461727465642079657400000000600082015250565b615a0881614e73565b8114615a1357600080fd5b50565b615a1f81614e85565b8114615a2a57600080fd5b50565b615a3681614e9b565b8114615a4157600080fd5b50565b615a4d81614ee7565b8114615a5857600080fd5b5056fea264697066735822122063dd77e97ce6b368e48db536c1a0122afb196b28719069a7e6936433bf96ccd364736f6c63430008070033",
  "immutableReferences": {},
  "source": "// SPDX-License-Identifier: MIT\n\npragma solidity ^0.8.7;\n\nimport \"./utils/ERC721Enumerable.sol\";\nimport \"@openzeppelin/contracts/token/ERC1155/IERC1155.sol\";\n// import \"@chainlink/contracts/src/v0.8/VRFConsumerBase.sol\";\nimport \"@openzeppelin/contracts/access/Ownable.sol\";\nimport \"@openzeppelin/contracts/utils/Context.sol\";\nimport \"@openzeppelin/contracts/utils/math/SafeMath.sol\";\nimport \"@openzeppelin/contracts/utils/introspection/ERC165.sol\";\nimport \"@openzeppelin/contracts/security/ReentrancyGuard.sol\";\nimport \"@openzeppelin/contracts/utils/cryptography/ECDSA.sol\";\n\n/**\n * @dev Implementation of https://eips.ethereum.org/EIPS/eip-721[ERC721] Non-Fungible Token Standard, including\n * the Metadata extension, but not including the Enumerable extension, which is available separately as\n * {ERC721Enumerable}.\n */\ncontract BuddiNFT is\n    Context,\n    ERC721Enumerable,\n    Ownable,\n    ReentrancyGuard\n{\n    using SafeMath for uint256;\n    using Strings for uint256;\n    using ECDSA for bytes32;\n\n    // currentSupply\n    uint256 private currentSupply;\n\n    // Provenance hash\n    string public PROVENANCE_HASH;\n\n    // Base URI\n    string private _buddiBaseURI;\n\n    // Starting Index\n    uint256 public startingIndex;\n\n    // Max number of NFTs\n    uint256 public constant MAX_SUPPLY = 10000;\n    uint256 public constant MAX_PER_TRANSACTION = 50;\n    uint256 public constant MAX_SUPPLY_PER_DNA = 2000;\n\n    bool public saleIsActive;\n    bool public signatureClaimIsActive;\n    bool public metadataRevealed;\n    bool public metadataFinalised;\n\n    // Royalty info\n    address public signerAddress;\n    address public royaltyAddress;\n    uint256 public ROYALTY_SIZE = 750;\n    uint256 public ROYALTY_DENOMINATOR = 10000;\n    mapping(uint256 => address) private _royaltyReceivers;\n\n    // Mint pass contracts\n    IERC1155 public BuddiCollection;\n\n    // Stores the number of minted tokens through mintpasses\n    mapping(address => mapping(uint => uint256)) public _mintPassesUsed;\n    mapping(uint => uint256) public _mintPassesUsedByDnaType; // total nfts by types\n    mapping(address => uint256) public _usedNonces;\n\n    //   bytes32 internal keyHash;\n    uint256 internal fee;\n\n    event TokensMinted(address indexed mintedBy, uint256 indexed tokensNumber);\n\n    event startingIndexFinalized(uint256 indexed startingIndex);\n\n    event baseUriUpdated(string oldBaseUri, string newBaseUri);\n\n    constructor(\n        address _royaltyAddress,\n        address _signerAddress,\n        address _buddiCollection,\n        string memory _baseURI\n    ) ERC721(\"Buddi Runner\", \"BUD\") {\n        royaltyAddress = _royaltyAddress;\n        signerAddress = _signerAddress;\n\n        BuddiCollection = IERC1155(_buddiCollection);\n\n        // keyHash = 0xAA77729D3466CA35AE8D28B3BBAC7CC36A5031EFDC430821C02BC31A238AF445;\n        fee = 2 * 10**18;\n\n        _buddiBaseURI = _baseURI;\n    }\n\n    function mintPassPurchase(uint256 [] memory tokensToMint)\n        public\n        nonReentrant\n    {\n        if (_msgSender() != owner())\n            require(saleIsActive, \"The mint has not started yet\");\n\n        require(tokensToMint.length == 5, \"Wrong Purchase Request\");\n\n        uint256 totalMintCount = 0;\n\n        for (uint dnaType = 0; dnaType < 5; dnaType++ ) {\n            totalMintCount += tokensToMint[dnaType];\n        }\n        require(\n            totalMintCount <= MAX_PER_TRANSACTION,\n            \"You can mint max 50 tokens per transaction\"\n        );\n        require(\n            totalSupply().add(totalMintCount) <= MAX_SUPPLY,\n            \"Mint more Buddi that allowed\"\n        );\n\n        for (uint dnaType = 0; dnaType < 5; dnaType++) {\n            uint256 passesLeft = BuddiCollection\n                .balanceOf(_msgSender(), dnaType)\n                .sub(_mintPassesUsed[_msgSender()][dnaType]);\n\n            require(\n                tokensToMint[dnaType] <= passesLeft,\n                \"Not enough passes\"\n            );\n\n            uint256 mintStartTokenId = MAX_SUPPLY_PER_DNA * dnaType + _mintPassesUsedByDnaType[dnaType];\n            _mintPassesUsed[_msgSender()][dnaType] += tokensToMint[dnaType];\n            for (uint256 i = 0; i < tokensToMint[dnaType]; i++) {\n                _safeMint(_msgSender(), mintStartTokenId + i );\n            }\n            _mintPassesUsedByDnaType[dnaType] += tokensToMint[dnaType];\n        }\n\n        emit TokensMinted(_msgSender(), totalMintCount);\n    }\n\n    function signatureClaim(\n        uint256 tokensToMint,\n        uint256 nonce,\n        bytes calldata signature\n    ) public nonReentrant {\n        if (_msgSender() != owner())\n            require(signatureClaimIsActive, \"The mint has not started yet\");\n        require(\n            tokensToMint <= MAX_PER_TRANSACTION,\n            \"You can mint max 50 tokens per transaction\"\n        );\n        require(\n            totalSupply().add(tokensToMint) <= MAX_SUPPLY,\n            \"Mint more creepz that allowed\"\n        );\n\n        require(\n            _validateSignature(signature, tokensToMint, nonce, _msgSender()),\n            \"Wrong data passed into the contract\"\n        );\n        require(_usedNonces[_msgSender()] < nonce, \"Already claimed\");\n\n        _usedNonces[_msgSender()] = nonce;\n        for (uint256 i = 0; i < tokensToMint; i++) {\n            _safeMint(_msgSender(), totalSupply());\n        }\n\n        emit TokensMinted(_msgSender(), tokensToMint);\n    }\n\n    function _validateSignature(\n        bytes calldata signature,\n        uint256 tokensToMint,\n        uint256 nonce,\n        address caller\n    ) internal view returns (bool) {\n        bytes32 dataHash = keccak256(\n            abi.encodePacked(tokensToMint, nonce, caller)\n        );\n        bytes32 message = ECDSA.toEthSignedMessageHash(dataHash);\n\n        address receivedAddress = ECDSA.recover(message, signature);\n        return (receivedAddress != address(0) &&\n            receivedAddress == signerAddress);\n    }\n\n    function emergencyMint(uint256 tokensToMint) public onlyOwner {\n        require(\n            totalSupply().add(tokensToMint) <= MAX_SUPPLY,\n            \"Mint more creepz that allowed\"\n        );\n\n        for (uint256 i = 0; i < tokensToMint; i++) {\n            _safeMint(_msgSender(), totalSupply());\n        }\n\n        emit TokensMinted(_msgSender(), tokensToMint);\n    }\n\n    function royaltyInfo(uint256 _tokenId, uint256 _salePrice)\n        external\n        view\n        returns (address receiver, uint256 royaltyAmount)\n    {\n        uint256 amount = _salePrice.mul(ROYALTY_SIZE).div(ROYALTY_DENOMINATOR);\n        address royaltyReceiver = _royaltyReceivers[_tokenId] != address(0)\n            ? _royaltyReceivers[_tokenId]\n            : royaltyAddress;\n        return (royaltyReceiver, amount);\n    }\n\n    function addRoyaltyReceiverForTokenId(address receiver, uint256 tokenId)\n        public\n        onlyOwner\n    {\n        _royaltyReceivers[tokenId] = receiver;\n    }\n\n    function updateSaleStatus(bool status) public onlyOwner {\n        saleIsActive = status;\n    }\n\n    function updateSignatureClaimStatus(bool status) public onlyOwner {\n        signatureClaimIsActive = status;\n    }\n\n    // function setProvenanceHash(string memory provenanceHash) public onlyOwner {\n    //     require(\n    //         bytes(PROVENANCE_HASH).length == 0,\n    //         \"Provenance hash has already been set\"\n    //     );\n    //     PROVENANCE_HASH = provenanceHash;\n    // }\n\n    function setBaseURI(string memory newBaseURI) public onlyOwner {\n        require(!metadataFinalised, \"Metadata already revealed\");\n\n        string memory currentURI = _buddiBaseURI;\n        _buddiBaseURI = newBaseURI;\n        emit baseUriUpdated(currentURI, newBaseURI);\n    }\n\n    // function finalizeStartingIndex() public onlyOwner returns (bytes32 requestId) {\n    //   require(startingIndex == 0, 'startingIndex already set');\n\n    //   require(LINK.balanceOf(address(this)) >= fee, \"Not enough LINK - fill contract with faucet\");\n    //   return requestRandomness(keyHash, fee);\n    // }\n\n    // /**\n    //  * Callback function used by VRF Coordinator\n    //  */\n    // function fulfillRandomness(bytes32, uint256 randomness) internal override {\n    //     startingIndex = (randomness % MAX_SUPPLY);\n    //     emit startingIndexFinalized(startingIndex);\n    // }\n\n    function tokenURI(uint256 tokenId)\n        external\n        view\n        virtual\n        override\n        returns (string memory)\n    {\n        require(\n            _exists(tokenId),\n            \"ERC721Metadata: URI query for nonexistent token\"\n        );\n\n        if (!metadataRevealed) return _buddiBaseURI;\n        return string(abi.encodePacked(_buddiBaseURI, tokenId.toString()));\n    }\n\n    function revealMetadata() public onlyOwner {\n        require(!metadataRevealed, \"Metadata already revealed\");\n        metadataRevealed = true;\n    }\n\n    function finalizeMetadata() public onlyOwner {\n        require(!metadataFinalised, \"Metadata already finalised\");\n        metadataFinalised = true;\n    }\n\n    function withdraw() external onlyOwner {\n        uint256 balance = address(this).balance;\n        payable(owner()).transfer(balance);\n    }\n}\n",
  "sourcePath": "/home/osboxes/Documents/Buddie/buddie-contract/contracts/BuddiNFT.sol",
  "compiler": {
    "name": "solc",
    "version": "0.8.7+commit.e28d00a7.Emscripten.clang"
  },
  "schemaVersion": "3.4.5",
  "updatedAt": "2022-06-07T22:09:48.542Z",
  "networkType": "ethereum",
  "devdoc": {
    "details": "Implementation of https://eips.ethereum.org/EIPS/eip-721[ERC721] Non-Fungible Token Standard, including the Metadata extension, but not including the Enumerable extension, which is available separately as {ERC721Enumerable}.",
    "kind": "dev",
    "methods": {
      "approve(address,uint256)": {
        "details": "See {IERC721-approve}."
      },
      "balanceOf(address)": {
        "details": "See {IERC721-balanceOf}."
      },
      "getApproved(uint256)": {
        "details": "See {IERC721-getApproved}."
      },
      "isApprovedForAll(address,address)": {
        "details": "See {IERC721-isApprovedForAll}."
      },
      "name()": {
        "details": "See {IERC721Metadata-name}."
      },
      "owner()": {
        "details": "Returns the address of the current owner."
      },
      "ownerOf(uint256)": {
        "details": "See {IERC721-ownerOf}."
      },
      "renounceOwnership()": {
        "details": "Leaves the contract without owner. It will not be possible to call `onlyOwner` functions anymore. Can only be called by the current owner. NOTE: Renouncing ownership will leave the contract without an owner, thereby removing any functionality that is only available to the owner."
      },
      "safeTransferFrom(address,address,uint256)": {
        "details": "See {IERC721-safeTransferFrom}."
      },
      "safeTransferFrom(address,address,uint256,bytes)": {
        "details": "See {IERC721-safeTransferFrom}."
      },
      "setApprovalForAll(address,bool)": {
        "details": "See {IERC721-setApprovalForAll}."
      },
      "supportsInterface(bytes4)": {
        "details": "See {IERC165-supportsInterface}."
      },
      "symbol()": {
        "details": "See {IERC721Metadata-symbol}."
      },
      "tokenByIndex(uint256)": {
        "details": "See {IERC721Enumerable-tokenByIndex}."
      },
      "tokenOfOwnerByIndex(address,uint256)": {
        "details": "See {IERC721Enumerable-tokenOfOwnerByIndex}."
      },
      "tokenURI(uint256)": {
        "details": "Returns the Uniform Resource Identifier (URI) for `tokenId` token."
      },
      "totalSupply()": {
        "details": "See {IERC721Enumerable-totalSupply}."
      },
      "transferFrom(address,address,uint256)": {
        "details": "See {IERC721-transferFrom}."
      },
      "transferOwnership(address)": {
        "details": "Transfers ownership of the contract to a new account (`newOwner`). Can only be called by the current owner."
      }
    },
    "version": 1
  },
  "userdoc": {
    "kind": "user",
    "methods": {},
    "version": 1
  }
}