{
  "contractName": "BuddiCollection",
  "abi": [
    {
      "inputs": [
        {
          "internalType": "string",
          "name": "_name",
          "type": "string"
        },
        {
          "internalType": "string",
          "name": "_symbol",
          "type": "string"
        },
        {
          "internalType": "string",
          "name": "_uri",
          "type": "string"
        },
        {
          "internalType": "address",
          "name": "_signer",
          "type": "address"
        },
        {
          "internalType": "address",
          "name": "_royalty",
          "type": "address"
        }
      ],
      "stateMutability": "nonpayable",
      "type": "constructor"
    },
    {
      "anonymous": false,
      "inputs": [
        {
          "indexed": true,
          "internalType": "address",
          "name": "account",
          "type": "address"
        },
        {
          "indexed": true,
          "internalType": "address",
          "name": "operator",
          "type": "address"
        },
        {
          "indexed": false,
          "internalType": "bool",
          "name": "approved",
          "type": "bool"
        }
      ],
      "name": "ApprovalForAll",
      "type": "event"
    },
    {
      "anonymous": false,
      "inputs": [
        {
          "indexed": true,
          "internalType": "address",
          "name": "previousOwner",
          "type": "address"
        },
        {
          "indexed": true,
          "internalType": "address",
          "name": "newOwner",
          "type": "address"
        }
      ],
      "name": "OwnershipTransferred",
      "type": "event"
    },
    {
      "anonymous": false,
      "inputs": [
        {
          "indexed": false,
          "internalType": "address",
          "name": "mintedBy",
          "type": "address"
        },
        {
          "indexed": false,
          "internalType": "uint256",
          "name": "tokensNumber",
          "type": "uint256"
        }
      ],
      "name": "TokensMinted",
      "type": "event"
    },
    {
      "anonymous": false,
      "inputs": [
        {
          "indexed": true,
          "internalType": "address",
          "name": "operator",
          "type": "address"
        },
        {
          "indexed": true,
          "internalType": "address",
          "name": "from",
          "type": "address"
        },
        {
          "indexed": true,
          "internalType": "address",
          "name": "to",
          "type": "address"
        },
        {
          "indexed": false,
          "internalType": "uint256[]",
          "name": "ids",
          "type": "uint256[]"
        },
        {
          "indexed": false,
          "internalType": "uint256[]",
          "name": "values",
          "type": "uint256[]"
        }
      ],
      "name": "TransferBatch",
      "type": "event"
    },
    {
      "anonymous": false,
      "inputs": [
        {
          "indexed": true,
          "internalType": "address",
          "name": "operator",
          "type": "address"
        },
        {
          "indexed": true,
          "internalType": "address",
          "name": "from",
          "type": "address"
        },
        {
          "indexed": true,
          "internalType": "address",
          "name": "to",
          "type": "address"
        },
        {
          "indexed": false,
          "internalType": "uint256",
          "name": "id",
          "type": "uint256"
        },
        {
          "indexed": false,
          "internalType": "uint256",
          "name": "value",
          "type": "uint256"
        }
      ],
      "name": "TransferSingle",
      "type": "event"
    },
    {
      "anonymous": false,
      "inputs": [
        {
          "indexed": false,
          "internalType": "string",
          "name": "value",
          "type": "string"
        },
        {
          "indexed": true,
          "internalType": "uint256",
          "name": "id",
          "type": "uint256"
        }
      ],
      "name": "URI",
      "type": "event"
    },
    {
      "inputs": [],
      "name": "DNA_ARMADILLO",
      "outputs": [
        {
          "internalType": "uint256",
          "name": "",
          "type": "uint256"
        }
      ],
      "stateMutability": "view",
      "type": "function",
      "constant": true
    },
    {
      "inputs": [],
      "name": "DNA_CROCODILE",
      "outputs": [
        {
          "internalType": "uint256",
          "name": "",
          "type": "uint256"
        }
      ],
      "stateMutability": "view",
      "type": "function",
      "constant": true
    },
    {
      "inputs": [],
      "name": "DNA_SLOTH",
      "outputs": [
        {
          "internalType": "uint256",
          "name": "",
          "type": "uint256"
        }
      ],
      "stateMutability": "view",
      "type": "function",
      "constant": true
    },
    {
      "inputs": [],
      "name": "DNA_SPIDER",
      "outputs": [
        {
          "internalType": "uint256",
          "name": "",
          "type": "uint256"
        }
      ],
      "stateMutability": "view",
      "type": "function",
      "constant": true
    },
    {
      "inputs": [],
      "name": "DNA_WHALE",
      "outputs": [
        {
          "internalType": "uint256",
          "name": "",
          "type": "uint256"
        }
      ],
      "stateMutability": "view",
      "type": "function",
      "constant": true
    },
    {
      "inputs": [],
      "name": "MAX_SUPPLY",
      "outputs": [
        {
          "internalType": "uint256",
          "name": "",
          "type": "uint256"
        }
      ],
      "stateMutability": "view",
      "type": "function",
      "constant": true
    },
    {
      "inputs": [],
      "name": "PER_WALLET_LIMIT",
      "outputs": [
        {
          "internalType": "uint256",
          "name": "",
          "type": "uint256"
        }
      ],
      "stateMutability": "view",
      "type": "function",
      "constant": true
    },
    {
      "inputs": [],
      "name": "ROYALTY_DENOMINATOR",
      "outputs": [
        {
          "internalType": "uint256",
          "name": "",
          "type": "uint256"
        }
      ],
      "stateMutability": "view",
      "type": "function",
      "constant": true
    },
    {
      "inputs": [],
      "name": "ROYALTY_SIZE",
      "outputs": [
        {
          "internalType": "uint256",
          "name": "",
          "type": "uint256"
        }
      ],
      "stateMutability": "view",
      "type": "function",
      "constant": true
    },
    {
      "inputs": [
        {
          "internalType": "address",
          "name": "account",
          "type": "address"
        },
        {
          "internalType": "uint256",
          "name": "id",
          "type": "uint256"
        }
      ],
      "name": "balanceOf",
      "outputs": [
        {
          "internalType": "uint256",
          "name": "",
          "type": "uint256"
        }
      ],
      "stateMutability": "view",
      "type": "function",
      "constant": true
    },
    {
      "inputs": [
        {
          "internalType": "address[]",
          "name": "accounts",
          "type": "address[]"
        },
        {
          "internalType": "uint256[]",
          "name": "ids",
          "type": "uint256[]"
        }
      ],
      "name": "balanceOfBatch",
      "outputs": [
        {
          "internalType": "uint256[]",
          "name": "",
          "type": "uint256[]"
        }
      ],
      "stateMutability": "view",
      "type": "function",
      "constant": true
    },
    {
      "inputs": [
        {
          "internalType": "uint256",
          "name": "id",
          "type": "uint256"
        }
      ],
      "name": "exists",
      "outputs": [
        {
          "internalType": "bool",
          "name": "",
          "type": "bool"
        }
      ],
      "stateMutability": "view",
      "type": "function",
      "constant": true
    },
    {
      "inputs": [
        {
          "internalType": "address",
          "name": "account",
          "type": "address"
        },
        {
          "internalType": "address",
          "name": "operator",
          "type": "address"
        }
      ],
      "name": "isApprovedForAll",
      "outputs": [
        {
          "internalType": "bool",
          "name": "",
          "type": "bool"
        }
      ],
      "stateMutability": "view",
      "type": "function",
      "constant": true
    },
    {
      "inputs": [],
      "name": "isPaused",
      "outputs": [
        {
          "internalType": "bool",
          "name": "",
          "type": "bool"
        }
      ],
      "stateMutability": "view",
      "type": "function",
      "constant": true
    },
    {
      "inputs": [],
      "name": "owner",
      "outputs": [
        {
          "internalType": "address",
          "name": "",
          "type": "address"
        }
      ],
      "stateMutability": "view",
      "type": "function",
      "constant": true
    },
    {
      "inputs": [],
      "name": "renounceOwnership",
      "outputs": [],
      "stateMutability": "nonpayable",
      "type": "function"
    },
    {
      "inputs": [],
      "name": "royaltyAddress",
      "outputs": [
        {
          "internalType": "address",
          "name": "",
          "type": "address"
        }
      ],
      "stateMutability": "view",
      "type": "function",
      "constant": true
    },
    {
      "inputs": [
        {
          "internalType": "address",
          "name": "from",
          "type": "address"
        },
        {
          "internalType": "address",
          "name": "to",
          "type": "address"
        },
        {
          "internalType": "uint256[]",
          "name": "ids",
          "type": "uint256[]"
        },
        {
          "internalType": "uint256[]",
          "name": "amounts",
          "type": "uint256[]"
        },
        {
          "internalType": "bytes",
          "name": "data",
          "type": "bytes"
        }
      ],
      "name": "safeBatchTransferFrom",
      "outputs": [],
      "stateMutability": "nonpayable",
      "type": "function"
    },
    {
      "inputs": [
        {
          "internalType": "address",
          "name": "from",
          "type": "address"
        },
        {
          "internalType": "address",
          "name": "to",
          "type": "address"
        },
        {
          "internalType": "uint256",
          "name": "id",
          "type": "uint256"
        },
        {
          "internalType": "uint256",
          "name": "amount",
          "type": "uint256"
        },
        {
          "internalType": "bytes",
          "name": "data",
          "type": "bytes"
        }
      ],
      "name": "safeTransferFrom",
      "outputs": [],
      "stateMutability": "nonpayable",
      "type": "function"
    },
    {
      "inputs": [],
      "name": "saleIsActive",
      "outputs": [
        {
          "internalType": "bool",
          "name": "",
          "type": "bool"
        }
      ],
      "stateMutability": "view",
      "type": "function",
      "constant": true
    },
    {
      "inputs": [
        {
          "internalType": "address",
          "name": "operator",
          "type": "address"
        },
        {
          "internalType": "bool",
          "name": "approved",
          "type": "bool"
        }
      ],
      "name": "setApprovalForAll",
      "outputs": [],
      "stateMutability": "nonpayable",
      "type": "function"
    },
    {
      "inputs": [],
      "name": "signerAddress",
      "outputs": [
        {
          "internalType": "address",
          "name": "",
          "type": "address"
        }
      ],
      "stateMutability": "view",
      "type": "function",
      "constant": true
    },
    {
      "inputs": [
        {
          "internalType": "bytes4",
          "name": "interfaceId",
          "type": "bytes4"
        }
      ],
      "name": "supportsInterface",
      "outputs": [
        {
          "internalType": "bool",
          "name": "",
          "type": "bool"
        }
      ],
      "stateMutability": "view",
      "type": "function",
      "constant": true
    },
    {
      "inputs": [],
      "name": "tokenPrice",
      "outputs": [
        {
          "internalType": "uint256",
          "name": "",
          "type": "uint256"
        }
      ],
      "stateMutability": "view",
      "type": "function",
      "constant": true
    },
    {
      "inputs": [
        {
          "internalType": "uint256",
          "name": "id",
          "type": "uint256"
        }
      ],
      "name": "totalSupply",
      "outputs": [
        {
          "internalType": "uint256",
          "name": "",
          "type": "uint256"
        }
      ],
      "stateMutability": "view",
      "type": "function",
      "constant": true
    },
    {
      "inputs": [
        {
          "internalType": "address",
          "name": "newOwner",
          "type": "address"
        }
      ],
      "name": "transferOwnership",
      "outputs": [],
      "stateMutability": "nonpayable",
      "type": "function"
    },
    {
      "inputs": [
        {
          "internalType": "uint256",
          "name": "",
          "type": "uint256"
        }
      ],
      "name": "uri",
      "outputs": [
        {
          "internalType": "string",
          "name": "",
          "type": "string"
        }
      ],
      "stateMutability": "view",
      "type": "function",
      "constant": true
    },
    {
      "inputs": [],
      "name": "name",
      "outputs": [
        {
          "internalType": "string",
          "name": "",
          "type": "string"
        }
      ],
      "stateMutability": "view",
      "type": "function",
      "constant": true
    },
    {
      "inputs": [],
      "name": "symbol",
      "outputs": [
        {
          "internalType": "string",
          "name": "",
          "type": "string"
        }
      ],
      "stateMutability": "view",
      "type": "function",
      "constant": true
    },
    {
      "inputs": [
        {
          "internalType": "uint256",
          "name": "_tokenId",
          "type": "uint256"
        },
        {
          "internalType": "uint256",
          "name": "_salePrice",
          "type": "uint256"
        }
      ],
      "name": "royaltyInfo",
      "outputs": [
        {
          "internalType": "address",
          "name": "receiver",
          "type": "address"
        },
        {
          "internalType": "uint256",
          "name": "royaltyAmount",
          "type": "uint256"
        }
      ],
      "stateMutability": "view",
      "type": "function",
      "constant": true
    },
    {
      "inputs": [
        {
          "internalType": "address",
          "name": "receiver",
          "type": "address"
        },
        {
          "internalType": "uint256",
          "name": "tokenId",
          "type": "uint256"
        }
      ],
      "name": "addRoyaltyReceiverForTokenId",
      "outputs": [],
      "stateMutability": "nonpayable",
      "type": "function"
    },
    {
      "inputs": [
        {
          "internalType": "uint256[]",
          "name": "tokensToMint",
          "type": "uint256[]"
        }
      ],
      "name": "purchase",
      "outputs": [],
      "stateMutability": "payable",
      "type": "function",
      "payable": true
    },
    {
      "inputs": [
        {
          "internalType": "bytes",
          "name": "signature",
          "type": "bytes"
        },
        {
          "internalType": "address",
          "name": "caller",
          "type": "address"
        }
      ],
      "name": "checkIfWhitelisted",
      "outputs": [
        {
          "internalType": "bool",
          "name": "",
          "type": "bool"
        }
      ],
      "stateMutability": "view",
      "type": "function",
      "constant": true
    },
    {
      "inputs": [
        {
          "internalType": "bool",
          "name": "status",
          "type": "bool"
        }
      ],
      "name": "updateSaleStatus",
      "outputs": [],
      "stateMutability": "nonpayable",
      "type": "function"
    },
    {
      "inputs": [
        {
          "internalType": "uint256",
          "name": "_tokenPrice",
          "type": "uint256"
        }
      ],
      "name": "setTokenPrice",
      "outputs": [],
      "stateMutability": "nonpayable",
      "type": "function"
    },
    {
      "inputs": [],
      "name": "withdraw",
      "outputs": [],
      "stateMutability": "nonpayable",
      "type": "function"
    },
    {
      "inputs": [
        {
          "internalType": "bool",
          "name": "_isPaused",
          "type": "bool"
        }
      ],
      "name": "pause",
      "outputs": [],
      "stateMutability": "nonpayable",
      "type": "function"
    }
  ],
  "bytecode": "0x60806040526101f4600b55612710600c553480156200001d57600080fd5b506040516200561738038062005617833981810160405281019062000043919062000372565b8262000055816200014360201b60201c565b50620000766200006a6200015f60201b60201c565b6200016760201b60201c565b84600790805190602001906200008e9291906200022d565b508360089080519060200190620000a79291906200022d565b5081600960006101000a81548173ffffffffffffffffffffffffffffffffffffffff021916908373ffffffffffffffffffffffffffffffffffffffff16021790555080600a60006101000a81548173ffffffffffffffffffffffffffffffffffffffff021916908373ffffffffffffffffffffffffffffffffffffffff16021790555066b1a2bc2ec50000600581905550505050505062000629565b80600290805190602001906200015b9291906200022d565b5050565b600033905090565b6000600460009054906101000a900473ffffffffffffffffffffffffffffffffffffffff16905081600460006101000a81548173ffffffffffffffffffffffffffffffffffffffff021916908373ffffffffffffffffffffffffffffffffffffffff1602179055508173ffffffffffffffffffffffffffffffffffffffff168173ffffffffffffffffffffffffffffffffffffffff167f8be0079c531659141344cd1fd0a4f28419497f9722a3daafe3b4186f6b6457e060405160405180910390a35050565b8280546200023b9062000520565b90600052602060002090601f0160209004810192826200025f5760008555620002ab565b82601f106200027a57805160ff1916838001178555620002ab565b82800160010185558215620002ab579182015b82811115620002aa5782518255916020019190600101906200028d565b5b509050620002ba9190620002be565b5090565b5b80821115620002d9576000816000905550600101620002bf565b5090565b6000620002f4620002ee8462000480565b62000457565b905082815260208101848484011115620003135762000312620005ef565b5b62000320848285620004ea565b509392505050565b60008151905062000339816200060f565b92915050565b600082601f830112620003575762000356620005ea565b5b815162000369848260208601620002dd565b91505092915050565b600080600080600060a08688031215620003915762000390620005f9565b5b600086015167ffffffffffffffff811115620003b257620003b1620005f4565b5b620003c0888289016200033f565b955050602086015167ffffffffffffffff811115620003e457620003e3620005f4565b5b620003f2888289016200033f565b945050604086015167ffffffffffffffff811115620004165762000415620005f4565b5b62000424888289016200033f565b9350506060620004378882890162000328565b92505060806200044a8882890162000328565b9150509295509295909350565b60006200046362000476565b905062000471828262000556565b919050565b6000604051905090565b600067ffffffffffffffff8211156200049e576200049d620005bb565b5b620004a982620005fe565b9050602081019050919050565b6000620004c382620004ca565b9050919050565b600073ffffffffffffffffffffffffffffffffffffffff82169050919050565b60005b838110156200050a578082015181840152602081019050620004ed565b838111156200051a576000848401525b50505050565b600060028204905060018216806200053957607f821691505b6020821081141562000550576200054f6200058c565b5b50919050565b6200056182620005fe565b810181811067ffffffffffffffff82111715620005835762000582620005bb565b5b80604052505050565b7f4e487b7100000000000000000000000000000000000000000000000000000000600052602260045260246000fd5b7f4e487b7100000000000000000000000000000000000000000000000000000000600052604160045260246000fd5b600080fd5b600080fd5b600080fd5b600080fd5b6000601f19601f8301169050919050565b6200061a81620004b6565b81146200062657600080fd5b50565b614fde80620006396000396000f3fe6080604052600436106102195760003560e01c806379f1d30511610123578063aec06a28116100ab578063df173dba1161006f578063df173dba146107cc578063e985e9c5146107f7578063eb8d244414610834578063f242432a1461085f578063f2fde38b1461088857610219565b8063aec06a28146106d3578063b187bd2614610710578063bd85b0391461073b578063cd6a3ea514610778578063db3c57d1146107a157610219565b80638da5cb5b116100f25780638da5cb5b146105fe57806395d89b4114610629578063a22cb46514610654578063aa36172e1461067d578063ad2f852a146106a857610219565b806379f1d305146105615780637ff9b5961461058c57806380d5d4ad146105b757806386769186146105e257610219565b806332cb6b0c116101a65780634f558e79116101755780634f558e791461048e5780635b7633d0146104cb5780636a61e5fc146104f65780636d2e192f1461051f578063715018a61461054a57610219565b806332cb6b0c146103e45780633b0822ca1461040f5780633ccfd60b1461043a5780634e1273f41461045157610219565b8063099becfb116101ed578063099becfb146102ec5780630a088949146103175780630e89341c146103405780632a55205a1461037d5780632eb2c2d6146103bb57610219565b8062fdd58e1461021e57806301ffc9a71461025b57806302329a291461029857806306fdde03146102c1575b600080fd5b34801561022a57600080fd5b50610245600480360381019061024091906134d2565b6108b1565b60405161025291906141ed565b60405180910390f35b34801561026757600080fd5b50610282600480360381019061027d9190613600565b61097a565b60405161028f9190613e0b565b60405180910390f35b3480156102a457600080fd5b506102bf60048036038101906102ba91906135d3565b610a5c565b005b3480156102cd57600080fd5b506102d6610af5565b6040516102e39190613e6b565b60405180910390f35b3480156102f857600080fd5b50610301610b87565b60405161030e91906141ed565b60405180910390f35b34801561032357600080fd5b5061033e600480360381019061033991906135d3565b610b8d565b005b34801561034c57600080fd5b50610367600480360381019061036291906136ba565b610c6c565b6040516103749190613e6b565b60405180910390f35b34801561038957600080fd5b506103a4600480360381019061039f91906136e7565b610d00565b6040516103b2929190613d89565b60405180910390f35b3480156103c757600080fd5b506103e260048036038101906103dd919061332c565b610df9565b005b3480156103f057600080fd5b506103f9610e9a565b60405161040691906141ed565b60405180910390f35b34801561041b57600080fd5b50610424610ea0565b60405161043191906141ed565b60405180910390f35b34801561044657600080fd5b5061044f610ea5565b005b34801561045d57600080fd5b5061047860048036038101906104739190613512565b610f77565b6040516104859190613db2565b60405180910390f35b34801561049a57600080fd5b506104b560048036038101906104b091906136ba565b611090565b6040516104c29190613e0b565b60405180910390f35b3480156104d757600080fd5b506104e06110a4565b6040516104ed9190613cac565b60405180910390f35b34801561050257600080fd5b5061051d600480360381019061051891906136ba565b6110ca565b005b34801561052b57600080fd5b506105346111a0565b60405161054191906141ed565b60405180910390f35b34801561055657600080fd5b5061055f6111a5565b005b34801561056d57600080fd5b5061057661122d565b60405161058391906141ed565b60405180910390f35b34801561059857600080fd5b506105a1611232565b6040516105ae91906141ed565b60405180910390f35b3480156105c357600080fd5b506105cc611238565b6040516105d991906141ed565b60405180910390f35b6105fc60048036038101906105f7919061358a565b61123d565b005b34801561060a57600080fd5b506106136115f1565b6040516106209190613cac565b60405180910390f35b34801561063557600080fd5b5061063e61161b565b60405161064b9190613e6b565b60405180910390f35b34801561066057600080fd5b5061067b60048036038101906106769190613492565b6116ad565b005b34801561068957600080fd5b506106926116c3565b60405161069f91906141ed565b60405180910390f35b3480156106b457600080fd5b506106bd6116c8565b6040516106ca9190613cac565b60405180910390f35b3480156106df57600080fd5b506106fa60048036038101906106f5919061365a565b6116ee565b6040516107079190613e0b565b60405180910390f35b34801561071c57600080fd5b50610725611704565b6040516107329190613e0b565b60405180910390f35b34801561074757600080fd5b50610762600480360381019061075d91906136ba565b611717565b60405161076f91906141ed565b60405180910390f35b34801561078457600080fd5b5061079f600480360381019061079a91906134d2565b611734565b005b3480156107ad57600080fd5b506107b6611806565b6040516107c391906141ed565b60405180910390f35b3480156107d857600080fd5b506107e161180b565b6040516107ee91906141ed565b60405180910390f35b34801561080357600080fd5b5061081e600480360381019061081991906132ec565b611811565b60405161082b9190613e0b565b60405180910390f35b34801561084057600080fd5b506108496118a5565b6040516108569190613e0b565b60405180910390f35b34801561086b57600080fd5b50610886600480360381019061088191906133fb565b6118b8565b005b34801561089457600080fd5b506108af60048036038101906108aa91906132bf565b611959565b005b60008073ffffffffffffffffffffffffffffffffffffffff168373ffffffffffffffffffffffffffffffffffffffff161415610922576040517f08c379a000000000000000000000000000000000000000000000000000000000815260040161091990613f2d565b60405180910390fd5b60008083815260200190815260200160002060008473ffffffffffffffffffffffffffffffffffffffff1673ffffffffffffffffffffffffffffffffffffffff16815260200190815260200160002054905092915050565b60007fd9b67a26000000000000000000000000000000000000000000000000000000007bffffffffffffffffffffffffffffffffffffffffffffffffffffffff1916827bffffffffffffffffffffffffffffffffffffffffffffffffffffffff19161480610a4557507f0e89341c000000000000000000000000000000000000000000000000000000007bffffffffffffffffffffffffffffffffffffffffffffffffffffffff1916827bffffffffffffffffffffffffffffffffffffffffffffffffffffffff1916145b80610a555750610a5482611a51565b5b9050919050565b610a64611abb565b73ffffffffffffffffffffffffffffffffffffffff16610a826115f1565b73ffffffffffffffffffffffffffffffffffffffff1614610ad8576040517f08c379a0000000000000000000000000000000000000000000000000000000008152600401610acf906140ad565b60405180910390fd5b80600660016101000a81548160ff02191690831515021790555050565b606060078054610b0490614509565b80601f0160208091040260200160405190810160405280929190818152602001828054610b3090614509565b8015610b7d5780601f10610b5257610100808354040283529160200191610b7d565b820191906000526020600020905b815481529060010190602001808311610b6057829003601f168201915b5050505050905090565b600b5481565b610b95611abb565b73ffffffffffffffffffffffffffffffffffffffff16610bb36115f1565b73ffffffffffffffffffffffffffffffffffffffff1614610c09576040517f08c379a0000000000000000000000000000000000000000000000000000000008152600401610c00906140ad565b60405180910390fd5b60006005541415610c4f576040517f08c379a0000000000000000000000000000000000000000000000000000000008152600401610c4690613f8d565b60405180910390fd5b80600660006101000a81548160ff02191690831515021790555050565b606060028054610c7b90614509565b80601f0160208091040260200160405190810160405280929190818152602001828054610ca790614509565b8015610cf45780601f10610cc957610100808354040283529160200191610cf4565b820191906000526020600020905b815481529060010190602001808311610cd757829003601f168201915b50505050509050919050565b6000806000600c54600b5485610d1691906143e2565b610d2091906143b1565b905060008073ffffffffffffffffffffffffffffffffffffffff16600d600088815260200190815260200160002060009054906101000a900473ffffffffffffffffffffffffffffffffffffffff1673ffffffffffffffffffffffffffffffffffffffff161415610db357600a60009054906101000a900473ffffffffffffffffffffffffffffffffffffffff16610de8565b600d600087815260200190815260200160002060009054906101000a900473ffffffffffffffffffffffffffffffffffffffff165b905080829350935050509250929050565b610e01611abb565b73ffffffffffffffffffffffffffffffffffffffff168573ffffffffffffffffffffffffffffffffffffffff161480610e475750610e4685610e41611abb565b611811565b5b610e86576040517f08c379a0000000000000000000000000000000000000000000000000000000008152600401610e7d9061404d565b60405180910390fd5b610e938585858585611ac3565b5050505050565b6107d081565b600281565b610ead611abb565b73ffffffffffffffffffffffffffffffffffffffff16610ecb6115f1565b73ffffffffffffffffffffffffffffffffffffffff1614610f21576040517f08c379a0000000000000000000000000000000000000000000000000000000008152600401610f18906140ad565b60405180910390fd5b6000479050610f2e6115f1565b73ffffffffffffffffffffffffffffffffffffffff166108fc829081150290604051600060405180830381858888f19350505050158015610f73573d6000803e3d6000fd5b5050565b60608151835114610fbd576040517f08c379a0000000000000000000000000000000000000000000000000000000008152600401610fb49061416d565b60405180910390fd5b6000835167ffffffffffffffff811115610fda57610fd96146ce565b5b6040519080825280602002602001820160405280156110085781602001602082028036833780820191505090505b50905060005b84518110156110855761105585828151811061102d5761102c61469f565b5b60200260200101518583815181106110485761104761469f565b5b60200260200101516108b1565b8282815181106110685761106761469f565b5b6020026020010181815250508061107e9061456c565b905061100e565b508091505092915050565b60008061109c83611717565b119050919050565b600960009054906101000a900473ffffffffffffffffffffffffffffffffffffffff1681565b6110d2611abb565b73ffffffffffffffffffffffffffffffffffffffff166110f06115f1565b73ffffffffffffffffffffffffffffffffffffffff1614611146576040517f08c379a000000000000000000000000000000000000000000000000000000000815260040161113d906140ad565b60405180910390fd5b600660009054906101000a900460ff1615611196576040517f08c379a000000000000000000000000000000000000000000000000000000000815260040161118d9061412d565b60405180910390fd5b8060058190555050565b600181565b6111ad611abb565b73ffffffffffffffffffffffffffffffffffffffff166111cb6115f1565b73ffffffffffffffffffffffffffffffffffffffff1614611221576040517f08c379a0000000000000000000000000000000000000000000000000000000008152600401611218906140ad565b60405180910390fd5b61122b6000611de5565b565b600381565b60055481565b600a81565b600660009054906101000a900460ff1661128c576040517f08c379a0000000000000000000000000000000000000000000000000000000008152600401611283906141cd565b60405180910390fd5b60058151146112d0576040517f08c379a00000000000000000000000000000000000000000000000000000000081526004016112c790613ecd565b60405180910390fd5b6000805b600581101561138a578281815181106112f0576112ef61469f565b5b602002602001015182611303919061435b565b91506107d083828151811061131b5761131a61469f565b5b602002602001015161132c83611717565b611336919061435b565b1115611377576040517f08c379a000000000000000000000000000000000000000000000000000000000815260040161136e90613f6d565b60405180910390fd5b80806113829061456c565b9150506112d4565b50600081116113ce576040517f08c379a00000000000000000000000000000000000000000000000000000000081526004016113c59061400d565b60405180910390fd5b6113d66115f1565b73ffffffffffffffffffffffffffffffffffffffff166113f4611abb565b73ffffffffffffffffffffffffffffffffffffffff161461155157600a81600e600061141e611abb565b73ffffffffffffffffffffffffffffffffffffffff1673ffffffffffffffffffffffffffffffffffffffff16815260200190815260200160002054611463919061435b565b11156114a4576040517f08c379a000000000000000000000000000000000000000000000000000000000815260040161149b906140cd565b60405180910390fd5b34600554826114b391906143e2565b146114f3576040517f08c379a00000000000000000000000000000000000000000000000000000000081526004016114ea906140ed565b60405180910390fd5b80600e6000611500611abb565b73ffffffffffffffffffffffffffffffffffffffff1673ffffffffffffffffffffffffffffffffffffffff1681526020019081526020016000206000828254611549919061435b565b925050819055505b60005b60058110156115ac57611599611568611abb565b8285848151811061157c5761157b61469f565b5b602002602001015160405180602001604052806000815250611eab565b80806115a49061456c565b915050611554565b507f3f2c9d57c068687834f0de942a9babb9e5acab57d516d3480a3c16ee165a42736115d6611abb565b826040516115e5929190613d89565b60405180910390a15050565b6000600460009054906101000a900473ffffffffffffffffffffffffffffffffffffffff16905090565b60606008805461162a90614509565b80601f016020809104026020016040519081016040528092919081815260200182805461165690614509565b80156116a35780601f10611678576101008083540402835291602001916116a3565b820191906000526020600020905b81548152906001019060200180831161168657829003601f168201915b5050505050905090565b6116bf6116b8611abb565b838361205c565b5050565b600481565b600a60009054906101000a900473ffffffffffffffffffffffffffffffffffffffff1681565b60006116fb8484846121c9565b90509392505050565b600660019054906101000a900460ff1681565b600060036000838152602001908152602001600020549050919050565b61173c611abb565b73ffffffffffffffffffffffffffffffffffffffff1661175a6115f1565b73ffffffffffffffffffffffffffffffffffffffff16146117b0576040517f08c379a00000000000000000000000000000000000000000000000000000000081526004016117a7906140ad565b60405180910390fd5b81600d600083815260200190815260200160002060006101000a81548173ffffffffffffffffffffffffffffffffffffffff021916908373ffffffffffffffffffffffffffffffffffffffff1602179055505050565b600081565b600c5481565b6000600160008473ffffffffffffffffffffffffffffffffffffffff1673ffffffffffffffffffffffffffffffffffffffff16815260200190815260200160002060008373ffffffffffffffffffffffffffffffffffffffff1673ffffffffffffffffffffffffffffffffffffffff16815260200190815260200160002060009054906101000a900460ff16905092915050565b600660009054906101000a900460ff1681565b6118c0611abb565b73ffffffffffffffffffffffffffffffffffffffff168573ffffffffffffffffffffffffffffffffffffffff161480611906575061190585611900611abb565b611811565b5b611945576040517f08c379a000000000000000000000000000000000000000000000000000000000815260040161193c90613fcd565b60405180910390fd5b61195285858585856122ea565b5050505050565b611961611abb565b73ffffffffffffffffffffffffffffffffffffffff1661197f6115f1565b73ffffffffffffffffffffffffffffffffffffffff16146119d5576040517f08c379a00000000000000000000000000000000000000000000000000000000081526004016119cc906140ad565b60405180910390fd5b600073ffffffffffffffffffffffffffffffffffffffff168173ffffffffffffffffffffffffffffffffffffffff161415611a45576040517f08c379a0000000000000000000000000000000000000000000000000000000008152600401611a3c90613f4d565b60405180910390fd5b611a4e81611de5565b50565b60007f01ffc9a7000000000000000000000000000000000000000000000000000000007bffffffffffffffffffffffffffffffffffffffffffffffffffffffff1916827bffffffffffffffffffffffffffffffffffffffffffffffffffffffff1916149050919050565b600033905090565b8151835114611b07576040517f08c379a0000000000000000000000000000000000000000000000000000000008152600401611afe9061418d565b60405180910390fd5b600073ffffffffffffffffffffffffffffffffffffffff168473ffffffffffffffffffffffffffffffffffffffff161415611b77576040517f08c379a0000000000000000000000000000000000000000000000000000000008152600401611b6e9061402d565b60405180910390fd5b6000611b81611abb565b9050611b91818787878787612586565b60005b8451811015611d42576000858281518110611bb257611bb161469f565b5b602002602001015190506000858381518110611bd157611bd061469f565b5b60200260200101519050600080600084815260200190815260200160002060008b73ffffffffffffffffffffffffffffffffffffffff1673ffffffffffffffffffffffffffffffffffffffff16815260200190815260200160002054905081811015611c72576040517f08c379a0000000000000000000000000000000000000000000000000000000008152600401611c699061408d565b60405180910390fd5b81810360008085815260200190815260200160002060008c73ffffffffffffffffffffffffffffffffffffffff1673ffffffffffffffffffffffffffffffffffffffff168152602001908152602001600020819055508160008085815260200190815260200160002060008b73ffffffffffffffffffffffffffffffffffffffff1673ffffffffffffffffffffffffffffffffffffffff1681526020019081526020016000206000828254611d27919061435b565b9250508190555050505080611d3b9061456c565b9050611b94565b508473ffffffffffffffffffffffffffffffffffffffff168673ffffffffffffffffffffffffffffffffffffffff168273ffffffffffffffffffffffffffffffffffffffff167f4a39dc06d4c0dbc64b70af90fd698a233a518aa5d07e595d983b8c0526c8f7fb8787604051611db9929190613dd4565b60405180910390a4611dcf8187878787876125ec565b611ddd8187878787876125f4565b505050505050565b6000600460009054906101000a900473ffffffffffffffffffffffffffffffffffffffff16905081600460006101000a81548173ffffffffffffffffffffffffffffffffffffffff021916908373ffffffffffffffffffffffffffffffffffffffff1602179055508173ffffffffffffffffffffffffffffffffffffffff168173ffffffffffffffffffffffffffffffffffffffff167f8be0079c531659141344cd1fd0a4f28419497f9722a3daafe3b4186f6b6457e060405160405180910390a35050565b600073ffffffffffffffffffffffffffffffffffffffff168473ffffffffffffffffffffffffffffffffffffffff161415611f1b576040517f08c379a0000000000000000000000000000000000000000000000000000000008152600401611f12906141ad565b60405180910390fd5b6000611f25611abb565b90506000611f32856127db565b90506000611f3f856127db565b9050611f5083600089858589612586565b8460008088815260200190815260200160002060008973ffffffffffffffffffffffffffffffffffffffff1673ffffffffffffffffffffffffffffffffffffffff1681526020019081526020016000206000828254611faf919061435b565b925050819055508673ffffffffffffffffffffffffffffffffffffffff16600073ffffffffffffffffffffffffffffffffffffffff168473ffffffffffffffffffffffffffffffffffffffff167fc3d58168c5ae7397731d063d5bbf3d657854427343f4c083240f7aacaa2d0f62898960405161202d929190614208565b60405180910390a4612044836000898585896125ec565b61205383600089898989612855565b50505050505050565b8173ffffffffffffffffffffffffffffffffffffffff168373ffffffffffffffffffffffffffffffffffffffff1614156120cb576040517f08c379a00000000000000000000000000000000000000000000000000000000081526004016120c29061414d565b60405180910390fd5b80600160008573ffffffffffffffffffffffffffffffffffffffff1673ffffffffffffffffffffffffffffffffffffffff16815260200190815260200160002060008473ffffffffffffffffffffffffffffffffffffffff1673ffffffffffffffffffffffffffffffffffffffff16815260200190815260200160002060006101000a81548160ff0219169083151502179055508173ffffffffffffffffffffffffffffffffffffffff168373ffffffffffffffffffffffffffffffffffffffff167f17307eab39ab6107e8899845ad3d59bd9653f200f220920489ca2b5937696c31836040516121bc9190613e0b565b60405180910390a3505050565b600080826040516020016121dd9190613c6b565b604051602081830303815290604052805190602001209050600061220082612a3c565b905060006122528288888080601f016020809104026020016040519081016040528093929190818152602001838380828437600081840152601f19601f82011690508083019250505050505050612a6c565b9050600073ffffffffffffffffffffffffffffffffffffffff168173ffffffffffffffffffffffffffffffffffffffff16141580156122de5750600960009054906101000a900473ffffffffffffffffffffffffffffffffffffffff1673ffffffffffffffffffffffffffffffffffffffff168173ffffffffffffffffffffffffffffffffffffffff16145b93505050509392505050565b600073ffffffffffffffffffffffffffffffffffffffff168473ffffffffffffffffffffffffffffffffffffffff16141561235a576040517f08c379a00000000000000000000000000000000000000000000000000000000081526004016123519061402d565b60405180910390fd5b6000612364611abb565b90506000612371856127db565b9050600061237e856127db565b905061238e838989858589612586565b600080600088815260200190815260200160002060008a73ffffffffffffffffffffffffffffffffffffffff1673ffffffffffffffffffffffffffffffffffffffff16815260200190815260200160002054905085811015612425576040517f08c379a000000000000000000000000000000000000000000000000000000000815260040161241c9061408d565b60405180910390fd5b85810360008089815260200190815260200160002060008b73ffffffffffffffffffffffffffffffffffffffff1673ffffffffffffffffffffffffffffffffffffffff168152602001908152602001600020819055508560008089815260200190815260200160002060008a73ffffffffffffffffffffffffffffffffffffffff1673ffffffffffffffffffffffffffffffffffffffff16815260200190815260200160002060008282546124da919061435b565b925050819055508773ffffffffffffffffffffffffffffffffffffffff168973ffffffffffffffffffffffffffffffffffffffff168573ffffffffffffffffffffffffffffffffffffffff167fc3d58168c5ae7397731d063d5bbf3d657854427343f4c083240f7aacaa2d0f628a8a604051612557929190614208565b60405180910390a461256d848a8a86868a6125ec565b61257b848a8a8a8a8a612855565b505050505050505050565b612594868686868686612a93565b600660019054906101000a900460ff16156125e4576040517f08c379a00000000000000000000000000000000000000000000000000000000081526004016125db90613fad565b60405180910390fd5b505050505050565b505050505050565b6126138473ffffffffffffffffffffffffffffffffffffffff16612c65565b156127d3578373ffffffffffffffffffffffffffffffffffffffff1663bc197c8187878686866040518663ffffffff1660e01b8152600401612659959493929190613cc7565b602060405180830381600087803b15801561267357600080fd5b505af19250505080156126a457506040513d601f19601f820116820180604052508101906126a1919061362d565b60015b61274a576126b06146fd565b806308c379a0141561270d57506126c5614eb6565b806126d0575061270f565b806040517f08c379a00000000000000000000000000000000000000000000000000000000081526004016127049190613e6b565b60405180910390fd5b505b6040517f08c379a000000000000000000000000000000000000000000000000000000000815260040161274190613ead565b60405180910390fd5b63bc197c8160e01b7bffffffffffffffffffffffffffffffffffffffffffffffffffffffff1916817bffffffffffffffffffffffffffffffffffffffffffffffffffffffff1916146127d1576040517f08c379a00000000000000000000000000000000000000000000000000000000081526004016127c890613eed565b60405180910390fd5b505b505050505050565b60606000600167ffffffffffffffff8111156127fa576127f96146ce565b5b6040519080825280602002602001820160405280156128285781602001602082028036833780820191505090505b50905082816000815181106128405761283f61469f565b5b60200260200101818152505080915050919050565b6128748473ffffffffffffffffffffffffffffffffffffffff16612c65565b15612a34578373ffffffffffffffffffffffffffffffffffffffff1663f23a6e6187878686866040518663ffffffff1660e01b81526004016128ba959493929190613d2f565b602060405180830381600087803b1580156128d457600080fd5b505af192505050801561290557506040513d601f19601f82011682018060405250810190612902919061362d565b60015b6129ab576129116146fd565b806308c379a0141561296e5750612926614eb6565b806129315750612970565b806040517f08c379a00000000000000000000000000000000000000000000000000000000081526004016129659190613e6b565b60405180910390fd5b505b6040517f08c379a00000000000000000000000000000000000000000000000000000000081526004016129a290613ead565b60405180910390fd5b63f23a6e6160e01b7bffffffffffffffffffffffffffffffffffffffffffffffffffffffff1916817bffffffffffffffffffffffffffffffffffffffffffffffffffffffff191614612a32576040517f08c379a0000000000000000000000000000000000000000000000000000000008152600401612a2990613eed565b60405180910390fd5b505b505050505050565b600081604051602001612a4f9190613c86565b604051602081830303815290604052805190602001209050919050565b6000806000612a7b8585612c88565b91509150612a8881612d0b565b819250505092915050565b612aa1868686868686612ee0565b600073ffffffffffffffffffffffffffffffffffffffff168573ffffffffffffffffffffffffffffffffffffffff161415612b535760005b8351811015612b5157828181518110612af557612af461469f565b5b602002602001015160036000868481518110612b1457612b1361469f565b5b602002602001015181526020019081526020016000206000828254612b39919061435b565b9250508190555080612b4a9061456c565b9050612ad9565b505b600073ffffffffffffffffffffffffffffffffffffffff168473ffffffffffffffffffffffffffffffffffffffff161415612c5d5760005b8351811015612c5b576000848281518110612ba957612ba861469f565b5b602002602001015190506000848381518110612bc857612bc761469f565b5b6020026020010151905060006003600084815260200190815260200160002054905081811015612c2d576040517f08c379a0000000000000000000000000000000000000000000000000000000008152600401612c249061410d565b60405180910390fd5b818103600360008581526020019081526020016000208190555050505080612c549061456c565b9050612b8b565b505b505050505050565b6000808273ffffffffffffffffffffffffffffffffffffffff163b119050919050565b600080604183511415612cca5760008060006020860151925060408601519150606086015160001a9050612cbe87828585612ee8565b94509450505050612d04565b604083511415612cfb576000806020850151915060408501519050612cf0868383612ff5565b935093505050612d04565b60006002915091505b9250929050565b60006004811115612d1f57612d1e614641565b5b816004811115612d3257612d31614641565b5b1415612d3d57612edd565b60016004811115612d5157612d50614641565b5b816004811115612d6457612d63614641565b5b1415612da5576040517f08c379a0000000000000000000000000000000000000000000000000000000008152600401612d9c90613e8d565b60405180910390fd5b60026004811115612db957612db8614641565b5b816004811115612dcc57612dcb614641565b5b1415612e0d576040517f08c379a0000000000000000000000000000000000000000000000000000000008152600401612e0490613f0d565b60405180910390fd5b60036004811115612e2157612e20614641565b5b816004811115612e3457612e33614641565b5b1415612e75576040517f08c379a0000000000000000000000000000000000000000000000000000000008152600401612e6c90613fed565b60405180910390fd5b600480811115612e8857612e87614641565b5b816004811115612e9b57612e9a614641565b5b1415612edc576040517f08c379a0000000000000000000000000000000000000000000000000000000008152600401612ed39061406d565b60405180910390fd5b5b50565b505050505050565b6000807f7fffffffffffffffffffffffffffffff5d576e7357a4501ddfe92f46681b20a08360001c1115612f23576000600391509150612fec565b601b8560ff1614158015612f3b5750601c8560ff1614155b15612f4d576000600491509150612fec565b600060018787878760405160008152602001604052604051612f729493929190613e26565b6020604051602081039080840390855afa158015612f94573d6000803e3d6000fd5b505050602060405103519050600073ffffffffffffffffffffffffffffffffffffffff168173ffffffffffffffffffffffffffffffffffffffff161415612fe357600060019250925050612fec565b80600092509250505b94509492505050565b60008060007f7fffffffffffffffffffffffffffffffffffffffffffffffffffffffffffffff60001b841690506000601b60ff8660001c901c613038919061435b565b905061304687828885612ee8565b935093505050935093915050565b600061306761306284614256565b614231565b9050808382526020820190508285602086028201111561308a57613089614729565b5b60005b858110156130ba57816130a08882613176565b84526020840193506020830192505060018101905061308d565b5050509392505050565b60006130d76130d284614282565b614231565b905080838252602082019050828560208602820111156130fa576130f9614729565b5b60005b8581101561312a578161311088826132aa565b8452602084019350602083019250506001810190506130fd565b5050509392505050565b6000613147613142846142ae565b614231565b9050828152602081018484840111156131635761316261472e565b5b61316e8482856144c7565b509392505050565b60008135905061318581614f4c565b92915050565b600082601f8301126131a05761319f614724565b5b81356131b0848260208601613054565b91505092915050565b600082601f8301126131ce576131cd614724565b5b81356131de8482602086016130c4565b91505092915050565b6000813590506131f681614f63565b92915050565b60008135905061320b81614f7a565b92915050565b60008151905061322081614f7a565b92915050565b60008083601f84011261323c5761323b614724565b5b8235905067ffffffffffffffff8111156132595761325861471f565b5b60208301915083600182028301111561327557613274614729565b5b9250929050565b600082601f83011261329157613290614724565b5b81356132a1848260208601613134565b91505092915050565b6000813590506132b981614f91565b92915050565b6000602082840312156132d5576132d4614738565b5b60006132e384828501613176565b91505092915050565b6000806040838503121561330357613302614738565b5b600061331185828601613176565b925050602061332285828601613176565b9150509250929050565b600080600080600060a0868803121561334857613347614738565b5b600061335688828901613176565b955050602061336788828901613176565b945050604086013567ffffffffffffffff81111561338857613387614733565b5b613394888289016131b9565b935050606086013567ffffffffffffffff8111156133b5576133b4614733565b5b6133c1888289016131b9565b925050608086013567ffffffffffffffff8111156133e2576133e1614733565b5b6133ee8882890161327c565b9150509295509295909350565b600080600080600060a0868803121561341757613416614738565b5b600061342588828901613176565b955050602061343688828901613176565b9450506040613447888289016132aa565b9350506060613458888289016132aa565b925050608086013567ffffffffffffffff81111561347957613478614733565b5b6134858882890161327c565b9150509295509295909350565b600080604083850312156134a9576134a8614738565b5b60006134b785828601613176565b92505060206134c8858286016131e7565b9150509250929050565b600080604083850312156134e9576134e8614738565b5b60006134f785828601613176565b9250506020613508858286016132aa565b9150509250929050565b6000806040838503121561352957613528614738565b5b600083013567ffffffffffffffff81111561354757613546614733565b5b6135538582860161318b565b925050602083013567ffffffffffffffff81111561357457613573614733565b5b613580858286016131b9565b9150509250929050565b6000602082840312156135a05761359f614738565b5b600082013567ffffffffffffffff8111156135be576135bd614733565b5b6135ca848285016131b9565b91505092915050565b6000602082840312156135e9576135e8614738565b5b60006135f7848285016131e7565b91505092915050565b60006020828403121561361657613615614738565b5b6000613624848285016131fc565b91505092915050565b60006020828403121561364357613642614738565b5b600061365184828501613211565b91505092915050565b60008060006040848603121561367357613672614738565b5b600084013567ffffffffffffffff81111561369157613690614733565b5b61369d86828701613226565b935093505060206136b086828701613176565b9150509250925092565b6000602082840312156136d0576136cf614738565b5b60006136de848285016132aa565b91505092915050565b600080604083850312156136fe576136fd614738565b5b600061370c858286016132aa565b925050602061371d858286016132aa565b9150509250929050565b60006137338383613c3e565b60208301905092915050565b6137488161443c565b82525050565b61375f61375a8261443c565b6145b5565b82525050565b6000613770826142ef565b61377a818561431d565b9350613785836142df565b8060005b838110156137b657815161379d8882613727565b97506137a883614310565b925050600181019050613789565b5085935050505092915050565b6137cc8161444e565b82525050565b6137db8161445a565b82525050565b6137f26137ed8261445a565b6145c7565b82525050565b6000613803826142fa565b61380d818561432e565b935061381d8185602086016144d6565b6138268161473d565b840191505092915050565b600061383c82614305565b613846818561433f565b93506138568185602086016144d6565b61385f8161473d565b840191505092915050565b600061387760188361433f565b915061388282614768565b602082019050919050565b600061389a60348361433f565b91506138a582614791565b604082019050919050565b60006138bd60168361433f565b91506138c8826147e0565b602082019050919050565b60006138e060288361433f565b91506138eb82614809565b604082019050919050565b6000613903601f8361433f565b915061390e82614858565b602082019050919050565b6000613926601c83614350565b915061393182614881565b601c82019050919050565b6000613949602b8361433f565b9150613954826148aa565b604082019050919050565b600061396c60268361433f565b9150613977826148f9565b604082019050919050565b600061398f602b8361433f565b915061399a82614948565b604082019050919050565b60006139b260108361433f565b91506139bd82614997565b602082019050919050565b60006139d5602c8361433f565b91506139e0826149c0565b604082019050919050565b60006139f860298361433f565b9150613a0382614a0f565b604082019050919050565b6000613a1b60228361433f565b9150613a2682614a5e565b604082019050919050565b6000613a3e60168361433f565b9150613a4982614aad565b602082019050919050565b6000613a6160258361433f565b9150613a6c82614ad6565b604082019050919050565b6000613a8460328361433f565b9150613a8f82614b25565b604082019050919050565b6000613aa760228361433f565b9150613ab282614b74565b604082019050919050565b6000613aca602a8361433f565b9150613ad582614bc3565b604082019050919050565b6000613aed60208361433f565b9150613af882614c12565b602082019050919050565b6000613b1060268361433f565b9150613b1b82614c3b565b604082019050919050565b6000613b33601c8361433f565b9150613b3e82614c8a565b602082019050919050565b6000613b5660288361433f565b9150613b6182614cb3565b604082019050919050565b6000613b79602c8361433f565b9150613b8482614d02565b604082019050919050565b6000613b9c60298361433f565b9150613ba782614d51565b604082019050919050565b6000613bbf60298361433f565b9150613bca82614da0565b604082019050919050565b6000613be260288361433f565b9150613bed82614def565b604082019050919050565b6000613c0560218361433f565b9150613c1082614e3e565b604082019050919050565b6000613c28601c8361433f565b9150613c3382614e8d565b602082019050919050565b613c47816144b0565b82525050565b613c56816144b0565b82525050565b613c65816144ba565b82525050565b6000613c77828461374e565b60148201915081905092915050565b6000613c9182613919565b9150613c9d82846137e1565b60208201915081905092915050565b6000602082019050613cc1600083018461373f565b92915050565b600060a082019050613cdc600083018861373f565b613ce9602083018761373f565b8181036040830152613cfb8186613765565b90508181036060830152613d0f8185613765565b90508181036080830152613d2381846137f8565b90509695505050505050565b600060a082019050613d44600083018861373f565b613d51602083018761373f565b613d5e6040830186613c4d565b613d6b6060830185613c4d565b8181036080830152613d7d81846137f8565b90509695505050505050565b6000604082019050613d9e600083018561373f565b613dab6020830184613c4d565b9392505050565b60006020820190508181036000830152613dcc8184613765565b905092915050565b60006040820190508181036000830152613dee8185613765565b90508181036020830152613e028184613765565b90509392505050565b6000602082019050613e2060008301846137c3565b92915050565b6000608082019050613e3b60008301876137d2565b613e486020830186613c5c565b613e5560408301856137d2565b613e6260608301846137d2565b95945050505050565b60006020820190508181036000830152613e858184613831565b905092915050565b60006020820190508181036000830152613ea68161386a565b9050919050565b60006020820190508181036000830152613ec68161388d565b9050919050565b60006020820190508181036000830152613ee6816138b0565b9050919050565b60006020820190508181036000830152613f06816138d3565b9050919050565b60006020820190508181036000830152613f26816138f6565b9050919050565b60006020820190508181036000830152613f468161393c565b9050919050565b60006020820190508181036000830152613f668161395f565b9050919050565b60006020820190508181036000830152613f8681613982565b9050919050565b60006020820190508181036000830152613fa6816139a5565b9050919050565b60006020820190508181036000830152613fc6816139c8565b9050919050565b60006020820190508181036000830152613fe6816139eb565b9050919050565b6000602082019050818103600083015261400681613a0e565b9050919050565b6000602082019050818103600083015261402681613a31565b9050919050565b6000602082019050818103600083015261404681613a54565b9050919050565b6000602082019050818103600083015261406681613a77565b9050919050565b6000602082019050818103600083015261408681613a9a565b9050919050565b600060208201905081810360008301526140a681613abd565b9050919050565b600060208201905081810360008301526140c681613ae0565b9050919050565b600060208201905081810360008301526140e681613b03565b9050919050565b6000602082019050818103600083015261410681613b26565b9050919050565b6000602082019050818103600083015261412681613b49565b9050919050565b6000602082019050818103600083015261414681613b6c565b9050919050565b6000602082019050818103600083015261416681613b8f565b9050919050565b6000602082019050818103600083015261418681613bb2565b9050919050565b600060208201905081810360008301526141a681613bd5565b9050919050565b600060208201905081810360008301526141c681613bf8565b9050919050565b600060208201905081810360008301526141e681613c1b565b9050919050565b60006020820190506142026000830184613c4d565b92915050565b600060408201905061421d6000830185613c4d565b61422a6020830184613c4d565b9392505050565b600061423b61424c565b9050614247828261453b565b919050565b6000604051905090565b600067ffffffffffffffff821115614271576142706146ce565b5b602082029050602081019050919050565b600067ffffffffffffffff82111561429d5761429c6146ce565b5b602082029050602081019050919050565b600067ffffffffffffffff8211156142c9576142c86146ce565b5b6142d28261473d565b9050602081019050919050565b6000819050602082019050919050565b600081519050919050565b600081519050919050565b600081519050919050565b6000602082019050919050565b600082825260208201905092915050565b600082825260208201905092915050565b600082825260208201905092915050565b600081905092915050565b6000614366826144b0565b9150614371836144b0565b9250827fffffffffffffffffffffffffffffffffffffffffffffffffffffffffffffffff038211156143a6576143a56145e3565b5b828201905092915050565b60006143bc826144b0565b91506143c7836144b0565b9250826143d7576143d6614612565b5b828204905092915050565b60006143ed826144b0565b91506143f8836144b0565b9250817fffffffffffffffffffffffffffffffffffffffffffffffffffffffffffffffff0483118215151615614431576144306145e3565b5b828202905092915050565b600061444782614490565b9050919050565b60008115159050919050565b6000819050919050565b60007fffffffff0000000000000000000000000000000000000000000000000000000082169050919050565b600073ffffffffffffffffffffffffffffffffffffffff82169050919050565b6000819050919050565b600060ff82169050919050565b82818337600083830152505050565b60005b838110156144f45780820151818401526020810190506144d9565b83811115614503576000848401525b50505050565b6000600282049050600182168061452157607f821691505b6020821081141561453557614534614670565b5b50919050565b6145448261473d565b810181811067ffffffffffffffff82111715614563576145626146ce565b5b80604052505050565b6000614577826144b0565b91507fffffffffffffffffffffffffffffffffffffffffffffffffffffffffffffffff8214156145aa576145a96145e3565b5b600182019050919050565b60006145c0826145d1565b9050919050565b6000819050919050565b60006145dc8261474e565b9050919050565b7f4e487b7100000000000000000000000000000000000000000000000000000000600052601160045260246000fd5b7f4e487b7100000000000000000000000000000000000000000000000000000000600052601260045260246000fd5b7f4e487b7100000000000000000000000000000000000000000000000000000000600052602160045260246000fd5b7f4e487b7100000000000000000000000000000000000000000000000000000000600052602260045260246000fd5b7f4e487b7100000000000000000000000000000000000000000000000000000000600052603260045260246000fd5b7f4e487b7100000000000000000000000000000000000000000000000000000000600052604160045260246000fd5b600060033d111561471c5760046000803e61471960005161475b565b90505b90565b600080fd5b600080fd5b600080fd5b600080fd5b600080fd5b600080fd5b6000601f19601f8301169050919050565b60008160601b9050919050565b60008160e01c9050919050565b7f45434453413a20696e76616c6964207369676e61747572650000000000000000600082015250565b7f455243313135353a207472616e7366657220746f206e6f6e204552433131353560008201527f526563656976657220696d706c656d656e746572000000000000000000000000602082015250565b7f57726f6e67205075726368617365205265717565737400000000000000000000600082015250565b7f455243313135353a204552433131353552656365697665722072656a6563746560008201527f6420746f6b656e73000000000000000000000000000000000000000000000000602082015250565b7f45434453413a20696e76616c6964207369676e6174757265206c656e67746800600082015250565b7f19457468657265756d205369676e6564204d6573736167653a0a333200000000600082015250565b7f455243313135353a2062616c616e636520717565727920666f7220746865207a60008201527f65726f2061646472657373000000000000000000000000000000000000000000602082015250565b7f4f776e61626c653a206e6577206f776e657220697320746865207a65726f206160008201527f6464726573730000000000000000000000000000000000000000000000000000602082015250565b7f596f7520747269656420746f206d696e74206d6f7265207468616e207468652060008201527f6d617820616c6c6f776564000000000000000000000000000000000000000000602082015250565b7f5072696365206973206e6f742073657400000000000000000000000000000000600082015250565b7f455243313135355061757361626c653a20746f6b656e207472616e736665722060008201527f7768696c65207061757365640000000000000000000000000000000000000000602082015250565b7f455243313135353a2063616c6c6572206973206e6f74206f776e6572206e6f7260008201527f20617070726f7665640000000000000000000000000000000000000000000000602082015250565b7f45434453413a20696e76616c6964207369676e6174757265202773272076616c60008201527f7565000000000000000000000000000000000000000000000000000000000000602082015250565b7f57726f6e6720616d6f756e742072657175657374656400000000000000000000600082015250565b7f455243313135353a207472616e7366657220746f20746865207a65726f20616460008201527f6472657373000000000000000000000000000000000000000000000000000000602082015250565b7f455243313135353a207472616e736665722063616c6c6572206973206e6f742060008201527f6f776e6572206e6f7220617070726f7665640000000000000000000000000000602082015250565b7f45434453413a20696e76616c6964207369676e6174757265202776272076616c60008201527f7565000000000000000000000000000000000000000000000000000000000000602082015250565b7f455243313135353a20696e73756666696369656e742062616c616e636520666f60008201527f72207472616e7366657200000000000000000000000000000000000000000000602082015250565b7f4f776e61626c653a2063616c6c6572206973206e6f7420746865206f776e6572600082015250565b7f596f7520686176652068697420746865206d617820746f6b656e73207065722060008201527f77616c6c65740000000000000000000000000000000000000000000000000000602082015250565b7f596f752068617665206e6f742073656e7420656e6f7567682045544800000000600082015250565b7f455243313135353a206275726e20616d6f756e74206578636565647320746f7460008201527f616c537570706c79000000000000000000000000000000000000000000000000602082015250565b7f50726963652063616e6e6f74206265206368616e676564207768696c6520736160008201527f6c65206973206163746976650000000000000000000000000000000000000000602082015250565b7f455243313135353a2073657474696e6720617070726f76616c2073746174757360008201527f20666f722073656c660000000000000000000000000000000000000000000000602082015250565b7f455243313135353a206163636f756e747320616e6420696473206c656e67746860008201527f206d69736d617463680000000000000000000000000000000000000000000000602082015250565b7f455243313135353a2069647320616e6420616d6f756e7473206c656e6774682060008201527f6d69736d61746368000000000000000000000000000000000000000000000000602082015250565b7f455243313135353a206d696e7420746f20746865207a65726f2061646472657360008201527f7300000000000000000000000000000000000000000000000000000000000000602082015250565b7f546865206d696e7420686173206e6f7420737461727465642079657400000000600082015250565b600060443d1015614ec657614f49565b614ece61424c565b60043d036004823e80513d602482011167ffffffffffffffff82111715614ef6575050614f49565b808201805167ffffffffffffffff811115614f145750505050614f49565b80602083010160043d038501811115614f31575050505050614f49565b614f408260200185018661453b565b82955050505050505b90565b614f558161443c565b8114614f6057600080fd5b50565b614f6c8161444e565b8114614f7757600080fd5b50565b614f8381614464565b8114614f8e57600080fd5b50565b614f9a816144b0565b8114614fa557600080fd5b5056fea264697066735822122068e9b41e32287897f120b2e785b861cf8517316dc7bf04abc6640b5f0264e28764736f6c63430008070033",
  "immutableReferences": {},
  "source": "// SPDX-License-Identifier: MIT\npragma solidity ^0.8.7;\n\nimport \"@openzeppelin/contracts/token/ERC1155/extensions/ERC1155Supply.sol\";\nimport \"@openzeppelin/contracts/access/Ownable.sol\";\nimport \"@openzeppelin/contracts/utils/cryptography/ECDSA.sol\";\n\n                                                           \ncontract BuddiCollection is ERC1155Supply, Ownable {\n    using ECDSA for bytes32;\n\n    // BUDDI RUNNER DNA TOKEN IDs\n    uint256 public constant DNA_WHALE = 0;\n    uint256 public constant DNA_SPIDER = 1;\n    uint256 public constant DNA_SLOTH = 2;\n    uint256 public constant DNA_ARMADILLO = 3;\n    uint256 public constant DNA_CROCODILE = 4;\n\n    uint256 public constant MAX_SUPPLY = 2000;\n    uint256 public constant PER_WALLET_LIMIT = 10;\n\n    uint256 public tokenPrice;\n    bool public saleIsActive;\n    bool public isPaused;\n\n    string private name_;\n    string private symbol_; \n\n    address public signerAddress;\n\n    address public royaltyAddress;\n    uint256 public ROYALTY_SIZE = 500; // 5%\n    uint256 public ROYALTY_DENOMINATOR = 10000;\n\n    mapping(uint256 => address) private _royaltyReceivers;\n    mapping (address => uint256) private _mintedPerAddress;\n\n    event TokensMinted(\n      address mintedBy,\n      uint256 tokensNumber\n    );\n\n    constructor(\n      string memory _name,\n      string memory _symbol,\n      string memory _uri,\n      address _signer,\n      address _royalty\n    ) ERC1155(_uri) {\n      name_ = _name;\n      symbol_ = _symbol;\n      signerAddress = _signer;\n      royaltyAddress = _royalty;\n\n      tokenPrice = 0.05 ether;\n    }\n    \n    function name() public view returns (string memory) {\n      return name_;\n    }\n\n    function symbol() public view returns (string memory) {\n      return symbol_;\n    }\n\n    function royaltyInfo(uint256 _tokenId, uint256 _salePrice) external view returns (address receiver, uint256 royaltyAmount) {\n      uint256 amount = _salePrice * ROYALTY_SIZE / ROYALTY_DENOMINATOR;\n      address royaltyReceiver = _royaltyReceivers[_tokenId] != address(0) ? _royaltyReceivers[_tokenId] : royaltyAddress;\n      return (royaltyReceiver, amount);\n    }\n\n    function addRoyaltyReceiverForTokenId(address receiver, uint256 tokenId) public onlyOwner {\n      _royaltyReceivers[tokenId] = receiver;\n    }\n\n    // function purchase(uint256 [] memory tokensToMint, bytes calldata signature) public payable {\n    function purchase(uint256 [] memory tokensToMint) public payable {\n      require(saleIsActive, \"The mint has not started yet\");\n      require(tokensToMint.length == 5, \"Wrong Purchase Request\");\n\n      uint256 totalPurchaseCount = 0;\n\n      for (uint256 dnaType = 0; dnaType < 5; dnaType++) {\n        totalPurchaseCount += tokensToMint[dnaType];\n        require(totalSupply(dnaType) + tokensToMint[dnaType] <= MAX_SUPPLY, \"You tried to mint more than the max allowed\");\n      }\n\n      require(totalPurchaseCount > 0, \"Wrong amount requested\");\n\n      if (_msgSender() != owner()) {\n        require(_mintedPerAddress[_msgSender()] + totalPurchaseCount <= PER_WALLET_LIMIT, \"You have hit the max tokens per wallet\");\n        // require(_validateSignature(signature, _msgSender()), \"Your wallet is not whitelisted\");\n        require(totalPurchaseCount * tokenPrice == msg.value,\n          \"You have not sent enough ETH\"\n        );\n        _mintedPerAddress[_msgSender()] += totalPurchaseCount;\n      }\n\n      for (uint256 dnaType = 0; dnaType < 5; dnaType++) {\n        _mint(_msgSender(), dnaType, tokensToMint[dnaType], \"\");\n      }\n\n      emit TokensMinted(_msgSender(), totalPurchaseCount);\n    }\n\n    function checkIfWhitelisted(bytes calldata signature, address caller) public view returns (bool) {\n        return (_validateSignature(signature, caller));\n    }\n\n    function _validateSignature(bytes calldata signature, address caller) internal view returns (bool) {\n      bytes32 dataHash = keccak256(abi.encodePacked(caller));\n      bytes32 message = ECDSA.toEthSignedMessageHash(dataHash);\n\n      address receivedAddress = ECDSA.recover(message, signature);\n      return (receivedAddress != address(0) && receivedAddress == signerAddress);\n    }\n\n    function updateSaleStatus(bool status) public onlyOwner {\n      require(tokenPrice != 0, \"Price is not set\");\n      saleIsActive = status;\n    }\n    \n    function setTokenPrice(uint256 _tokenPrice) public onlyOwner {\n      require(!saleIsActive, \"Price cannot be changed while sale is active\");\n      tokenPrice = _tokenPrice;\n    }\n\n    function withdraw() external onlyOwner {\n      uint256 balance = address(this).balance;\n      payable(owner()).transfer(balance);\n    }\n\n    function pause(bool _isPaused) external onlyOwner {\n      isPaused = _isPaused;\n    }\n\n    /**\n     * @dev See {ERC1155-_beforeTokenTransfer}.\n     *\n     * Requirements:\n     *\n     * - the contract must not be paused.\n     */\n    function _beforeTokenTransfer(\n        address operator,\n        address from,\n        address to,\n        uint256[] memory ids,\n        uint256[] memory amounts,\n        bytes memory data\n    ) internal virtual override {\n        super._beforeTokenTransfer(operator, from, to, ids, amounts, data);\n\n        require(!isPaused, \"ERC1155Pausable: token transfer while paused\");\n    }\n}",
  "sourcePath": "/home/osboxes/Documents/Buddie/buddie-contract/contracts/BuddiCollection.sol",
  "compiler": {
    "name": "solc",
    "version": "0.8.7+commit.e28d00a7.Emscripten.clang"
  },
  "schemaVersion": "3.4.5",
  "updatedAt": "2022-06-07T22:09:48.577Z",
  "networkType": "ethereum",
  "devdoc": {
    "kind": "dev",
    "methods": {
      "balanceOf(address,uint256)": {
        "details": "See {IERC1155-balanceOf}. Requirements: - `account` cannot be the zero address."
      },
      "balanceOfBatch(address[],uint256[])": {
        "details": "See {IERC1155-balanceOfBatch}. Requirements: - `accounts` and `ids` must have the same length."
      },
      "exists(uint256)": {
        "details": "Indicates whether any token exist with a given id, or not."
      },
      "isApprovedForAll(address,address)": {
        "details": "See {IERC1155-isApprovedForAll}."
      },
      "owner()": {
        "details": "Returns the address of the current owner."
      },
      "renounceOwnership()": {
        "details": "Leaves the contract without owner. It will not be possible to call `onlyOwner` functions anymore. Can only be called by the current owner. NOTE: Renouncing ownership will leave the contract without an owner, thereby removing any functionality that is only available to the owner."
      },
      "safeBatchTransferFrom(address,address,uint256[],uint256[],bytes)": {
        "details": "See {IERC1155-safeBatchTransferFrom}."
      },
      "safeTransferFrom(address,address,uint256,uint256,bytes)": {
        "details": "See {IERC1155-safeTransferFrom}."
      },
      "setApprovalForAll(address,bool)": {
        "details": "See {IERC1155-setApprovalForAll}."
      },
      "supportsInterface(bytes4)": {
        "details": "See {IERC165-supportsInterface}."
      },
      "totalSupply(uint256)": {
        "details": "Total amount of tokens in with a given id."
      },
      "transferOwnership(address)": {
        "details": "Transfers ownership of the contract to a new account (`newOwner`). Can only be called by the current owner."
      },
      "uri(uint256)": {
        "details": "See {IERC1155MetadataURI-uri}. This implementation returns the same URI for *all* token types. It relies on the token type ID substitution mechanism https://eips.ethereum.org/EIPS/eip-1155#metadata[defined in the EIP]. Clients calling this function must replace the `\\{id\\}` substring with the actual token type ID."
      }
    },
    "version": 1
  },
  "userdoc": {
    "kind": "user",
    "methods": {},
    "version": 1
  }
}