{
  "contractName": "BuddiCollection",
  "abi": [
    {
      "inputs": [
        {
          "internalType": "string",
          "name": "_name",
          "type": "string"
        },
        {
          "internalType": "string",
          "name": "_symbol",
          "type": "string"
        },
        {
          "internalType": "string",
          "name": "_uri",
          "type": "string"
        },
        {
          "internalType": "address",
          "name": "_royalty",
          "type": "address"
        }
      ],
      "stateMutability": "nonpayable",
      "type": "constructor"
    },
    {
      "anonymous": false,
      "inputs": [
        {
          "indexed": true,
          "internalType": "address",
          "name": "account",
          "type": "address"
        },
        {
          "indexed": true,
          "internalType": "address",
          "name": "operator",
          "type": "address"
        },
        {
          "indexed": false,
          "internalType": "bool",
          "name": "approved",
          "type": "bool"
        }
      ],
      "name": "ApprovalForAll",
      "type": "event"
    },
    {
      "anonymous": false,
      "inputs": [
        {
          "indexed": true,
          "internalType": "address",
          "name": "previousOwner",
          "type": "address"
        },
        {
          "indexed": true,
          "internalType": "address",
          "name": "newOwner",
          "type": "address"
        }
      ],
      "name": "OwnershipTransferred",
      "type": "event"
    },
    {
      "anonymous": false,
      "inputs": [
        {
          "indexed": false,
          "internalType": "address",
          "name": "mintedBy",
          "type": "address"
        },
        {
          "indexed": false,
          "internalType": "uint256",
          "name": "tokensNumber",
          "type": "uint256"
        }
      ],
      "name": "TokensMinted",
      "type": "event"
    },
    {
      "anonymous": false,
      "inputs": [
        {
          "indexed": true,
          "internalType": "address",
          "name": "operator",
          "type": "address"
        },
        {
          "indexed": true,
          "internalType": "address",
          "name": "from",
          "type": "address"
        },
        {
          "indexed": true,
          "internalType": "address",
          "name": "to",
          "type": "address"
        },
        {
          "indexed": false,
          "internalType": "uint256[]",
          "name": "ids",
          "type": "uint256[]"
        },
        {
          "indexed": false,
          "internalType": "uint256[]",
          "name": "values",
          "type": "uint256[]"
        }
      ],
      "name": "TransferBatch",
      "type": "event"
    },
    {
      "anonymous": false,
      "inputs": [
        {
          "indexed": true,
          "internalType": "address",
          "name": "operator",
          "type": "address"
        },
        {
          "indexed": true,
          "internalType": "address",
          "name": "from",
          "type": "address"
        },
        {
          "indexed": true,
          "internalType": "address",
          "name": "to",
          "type": "address"
        },
        {
          "indexed": false,
          "internalType": "uint256",
          "name": "id",
          "type": "uint256"
        },
        {
          "indexed": false,
          "internalType": "uint256",
          "name": "value",
          "type": "uint256"
        }
      ],
      "name": "TransferSingle",
      "type": "event"
    },
    {
      "anonymous": false,
      "inputs": [
        {
          "indexed": false,
          "internalType": "string",
          "name": "value",
          "type": "string"
        },
        {
          "indexed": true,
          "internalType": "uint256",
          "name": "id",
          "type": "uint256"
        }
      ],
      "name": "URI",
      "type": "event"
    },
    {
      "inputs": [],
      "name": "DNA_ARMADILLO",
      "outputs": [
        {
          "internalType": "uint256",
          "name": "",
          "type": "uint256"
        }
      ],
      "stateMutability": "view",
      "type": "function",
      "constant": true
    },
    {
      "inputs": [],
      "name": "DNA_CROCODILE",
      "outputs": [
        {
          "internalType": "uint256",
          "name": "",
          "type": "uint256"
        }
      ],
      "stateMutability": "view",
      "type": "function",
      "constant": true
    },
    {
      "inputs": [],
      "name": "DNA_SLOTH",
      "outputs": [
        {
          "internalType": "uint256",
          "name": "",
          "type": "uint256"
        }
      ],
      "stateMutability": "view",
      "type": "function",
      "constant": true
    },
    {
      "inputs": [],
      "name": "DNA_SPIDER",
      "outputs": [
        {
          "internalType": "uint256",
          "name": "",
          "type": "uint256"
        }
      ],
      "stateMutability": "view",
      "type": "function",
      "constant": true
    },
    {
      "inputs": [],
      "name": "DNA_WHALE",
      "outputs": [
        {
          "internalType": "uint256",
          "name": "",
          "type": "uint256"
        }
      ],
      "stateMutability": "view",
      "type": "function",
      "constant": true
    },
    {
      "inputs": [],
      "name": "MAX_SUPPLY",
      "outputs": [
        {
          "internalType": "uint256",
          "name": "",
          "type": "uint256"
        }
      ],
      "stateMutability": "view",
      "type": "function",
      "constant": true
    },
    {
      "inputs": [],
      "name": "PER_WALLET_LIMIT",
      "outputs": [
        {
          "internalType": "uint256",
          "name": "",
          "type": "uint256"
        }
      ],
      "stateMutability": "view",
      "type": "function",
      "constant": true
    },
    {
      "inputs": [],
      "name": "ROYALTY_DENOMINATOR",
      "outputs": [
        {
          "internalType": "uint256",
          "name": "",
          "type": "uint256"
        }
      ],
      "stateMutability": "view",
      "type": "function",
      "constant": true
    },
    {
      "inputs": [],
      "name": "ROYALTY_SIZE",
      "outputs": [
        {
          "internalType": "uint256",
          "name": "",
          "type": "uint256"
        }
      ],
      "stateMutability": "view",
      "type": "function",
      "constant": true
    },
    {
      "inputs": [
        {
          "internalType": "address",
          "name": "account",
          "type": "address"
        },
        {
          "internalType": "uint256",
          "name": "id",
          "type": "uint256"
        }
      ],
      "name": "balanceOf",
      "outputs": [
        {
          "internalType": "uint256",
          "name": "",
          "type": "uint256"
        }
      ],
      "stateMutability": "view",
      "type": "function",
      "constant": true
    },
    {
      "inputs": [
        {
          "internalType": "address[]",
          "name": "accounts",
          "type": "address[]"
        },
        {
          "internalType": "uint256[]",
          "name": "ids",
          "type": "uint256[]"
        }
      ],
      "name": "balanceOfBatch",
      "outputs": [
        {
          "internalType": "uint256[]",
          "name": "",
          "type": "uint256[]"
        }
      ],
      "stateMutability": "view",
      "type": "function",
      "constant": true
    },
    {
      "inputs": [
        {
          "internalType": "uint256",
          "name": "id",
          "type": "uint256"
        }
      ],
      "name": "exists",
      "outputs": [
        {
          "internalType": "bool",
          "name": "",
          "type": "bool"
        }
      ],
      "stateMutability": "view",
      "type": "function",
      "constant": true
    },
    {
      "inputs": [
        {
          "internalType": "address",
          "name": "account",
          "type": "address"
        },
        {
          "internalType": "address",
          "name": "operator",
          "type": "address"
        }
      ],
      "name": "isApprovedForAll",
      "outputs": [
        {
          "internalType": "bool",
          "name": "",
          "type": "bool"
        }
      ],
      "stateMutability": "view",
      "type": "function",
      "constant": true
    },
    {
      "inputs": [],
      "name": "isPaused",
      "outputs": [
        {
          "internalType": "bool",
          "name": "",
          "type": "bool"
        }
      ],
      "stateMutability": "view",
      "type": "function",
      "constant": true
    },
    {
      "inputs": [],
      "name": "owner",
      "outputs": [
        {
          "internalType": "address",
          "name": "",
          "type": "address"
        }
      ],
      "stateMutability": "view",
      "type": "function",
      "constant": true
    },
    {
      "inputs": [],
      "name": "renounceOwnership",
      "outputs": [],
      "stateMutability": "nonpayable",
      "type": "function"
    },
    {
      "inputs": [],
      "name": "royaltyAddress",
      "outputs": [
        {
          "internalType": "address",
          "name": "",
          "type": "address"
        }
      ],
      "stateMutability": "view",
      "type": "function",
      "constant": true
    },
    {
      "inputs": [
        {
          "internalType": "address",
          "name": "from",
          "type": "address"
        },
        {
          "internalType": "address",
          "name": "to",
          "type": "address"
        },
        {
          "internalType": "uint256[]",
          "name": "ids",
          "type": "uint256[]"
        },
        {
          "internalType": "uint256[]",
          "name": "amounts",
          "type": "uint256[]"
        },
        {
          "internalType": "bytes",
          "name": "data",
          "type": "bytes"
        }
      ],
      "name": "safeBatchTransferFrom",
      "outputs": [],
      "stateMutability": "nonpayable",
      "type": "function"
    },
    {
      "inputs": [
        {
          "internalType": "address",
          "name": "from",
          "type": "address"
        },
        {
          "internalType": "address",
          "name": "to",
          "type": "address"
        },
        {
          "internalType": "uint256",
          "name": "id",
          "type": "uint256"
        },
        {
          "internalType": "uint256",
          "name": "amount",
          "type": "uint256"
        },
        {
          "internalType": "bytes",
          "name": "data",
          "type": "bytes"
        }
      ],
      "name": "safeTransferFrom",
      "outputs": [],
      "stateMutability": "nonpayable",
      "type": "function"
    },
    {
      "inputs": [],
      "name": "saleIsActive",
      "outputs": [
        {
          "internalType": "bool",
          "name": "",
          "type": "bool"
        }
      ],
      "stateMutability": "view",
      "type": "function",
      "constant": true
    },
    {
      "inputs": [
        {
          "internalType": "address",
          "name": "operator",
          "type": "address"
        },
        {
          "internalType": "bool",
          "name": "approved",
          "type": "bool"
        }
      ],
      "name": "setApprovalForAll",
      "outputs": [],
      "stateMutability": "nonpayable",
      "type": "function"
    },
    {
      "inputs": [],
      "name": "signerAddress",
      "outputs": [
        {
          "internalType": "address",
          "name": "",
          "type": "address"
        }
      ],
      "stateMutability": "view",
      "type": "function",
      "constant": true
    },
    {
      "inputs": [
        {
          "internalType": "bytes4",
          "name": "interfaceId",
          "type": "bytes4"
        }
      ],
      "name": "supportsInterface",
      "outputs": [
        {
          "internalType": "bool",
          "name": "",
          "type": "bool"
        }
      ],
      "stateMutability": "view",
      "type": "function",
      "constant": true
    },
    {
      "inputs": [],
      "name": "tokenPrice",
      "outputs": [
        {
          "internalType": "uint256",
          "name": "",
          "type": "uint256"
        }
      ],
      "stateMutability": "view",
      "type": "function",
      "constant": true
    },
    {
      "inputs": [
        {
          "internalType": "uint256",
          "name": "id",
          "type": "uint256"
        }
      ],
      "name": "totalSupply",
      "outputs": [
        {
          "internalType": "uint256",
          "name": "",
          "type": "uint256"
        }
      ],
      "stateMutability": "view",
      "type": "function",
      "constant": true
    },
    {
      "inputs": [
        {
          "internalType": "address",
          "name": "newOwner",
          "type": "address"
        }
      ],
      "name": "transferOwnership",
      "outputs": [],
      "stateMutability": "nonpayable",
      "type": "function"
    },
    {
      "inputs": [
        {
          "internalType": "uint256",
          "name": "",
          "type": "uint256"
        }
      ],
      "name": "uri",
      "outputs": [
        {
          "internalType": "string",
          "name": "",
          "type": "string"
        }
      ],
      "stateMutability": "view",
      "type": "function",
      "constant": true
    },
    {
      "inputs": [],
      "name": "name",
      "outputs": [
        {
          "internalType": "string",
          "name": "",
          "type": "string"
        }
      ],
      "stateMutability": "view",
      "type": "function",
      "constant": true
    },
    {
      "inputs": [],
      "name": "symbol",
      "outputs": [
        {
          "internalType": "string",
          "name": "",
          "type": "string"
        }
      ],
      "stateMutability": "view",
      "type": "function",
      "constant": true
    },
    {
      "inputs": [
        {
          "internalType": "uint256",
          "name": "_tokenId",
          "type": "uint256"
        },
        {
          "internalType": "uint256",
          "name": "_salePrice",
          "type": "uint256"
        }
      ],
      "name": "royaltyInfo",
      "outputs": [
        {
          "internalType": "address",
          "name": "receiver",
          "type": "address"
        },
        {
          "internalType": "uint256",
          "name": "royaltyAmount",
          "type": "uint256"
        }
      ],
      "stateMutability": "view",
      "type": "function",
      "constant": true
    },
    {
      "inputs": [
        {
          "internalType": "address",
          "name": "receiver",
          "type": "address"
        },
        {
          "internalType": "uint256",
          "name": "tokenId",
          "type": "uint256"
        }
      ],
      "name": "addRoyaltyReceiverForTokenId",
      "outputs": [],
      "stateMutability": "nonpayable",
      "type": "function"
    },
    {
      "inputs": [
        {
          "internalType": "uint256[]",
          "name": "tokensToMint",
          "type": "uint256[]"
        }
      ],
      "name": "purchase",
      "outputs": [],
      "stateMutability": "payable",
      "type": "function",
      "payable": true
    },
    {
      "inputs": [
        {
          "internalType": "bool",
          "name": "status",
          "type": "bool"
        }
      ],
      "name": "updateSaleStatus",
      "outputs": [],
      "stateMutability": "nonpayable",
      "type": "function"
    },
    {
      "inputs": [
        {
          "internalType": "uint256",
          "name": "_tokenPrice",
          "type": "uint256"
        }
      ],
      "name": "setTokenPrice",
      "outputs": [],
      "stateMutability": "nonpayable",
      "type": "function"
    },
    {
      "inputs": [],
      "name": "withdraw",
      "outputs": [],
      "stateMutability": "nonpayable",
      "type": "function"
    },
    {
      "inputs": [
        {
          "internalType": "bool",
          "name": "_isPaused",
          "type": "bool"
        }
      ],
      "name": "pause",
      "outputs": [],
      "stateMutability": "nonpayable",
      "type": "function"
    }
  ],
  "bytecode": "0x60806040526101f4600b55612710600c553480156200001d57600080fd5b5060405162004bc438038062004bc4833981810160405281019062000043919062000330565b8162000055816200010160201b60201c565b50620000766200006a6200011d60201b60201c565b6200012560201b60201c565b83600790805190602001906200008e929190620001eb565b508260089080519060200190620000a7929190620001eb565b5080600a60006101000a81548173ffffffffffffffffffffffffffffffffffffffff021916908373ffffffffffffffffffffffffffffffffffffffff16021790555066b1a2bc2ec5000060058190555050505050620005d1565b806002908051906020019062000119929190620001eb565b5050565b600033905090565b6000600460009054906101000a900473ffffffffffffffffffffffffffffffffffffffff16905081600460006101000a81548173ffffffffffffffffffffffffffffffffffffffff021916908373ffffffffffffffffffffffffffffffffffffffff1602179055508173ffffffffffffffffffffffffffffffffffffffff168173ffffffffffffffffffffffffffffffffffffffff167f8be0079c531659141344cd1fd0a4f28419497f9722a3daafe3b4186f6b6457e060405160405180910390a35050565b828054620001f990620004c8565b90600052602060002090601f0160209004810192826200021d576000855562000269565b82601f106200023857805160ff191683800117855562000269565b8280016001018555821562000269579182015b82811115620002685782518255916020019190600101906200024b565b5b5090506200027891906200027c565b5090565b5b80821115620002975760008160009055506001016200027d565b5090565b6000620002b2620002ac8462000428565b620003ff565b905082815260208101848484011115620002d157620002d062000597565b5b620002de84828562000492565b509392505050565b600081519050620002f781620005b7565b92915050565b600082601f83011262000315576200031462000592565b5b8151620003278482602086016200029b565b91505092915050565b600080600080608085870312156200034d576200034c620005a1565b5b600085015167ffffffffffffffff8111156200036e576200036d6200059c565b5b6200037c87828801620002fd565b945050602085015167ffffffffffffffff811115620003a0576200039f6200059c565b5b620003ae87828801620002fd565b935050604085015167ffffffffffffffff811115620003d257620003d16200059c565b5b620003e087828801620002fd565b9250506060620003f387828801620002e6565b91505092959194509250565b60006200040b6200041e565b9050620004198282620004fe565b919050565b6000604051905090565b600067ffffffffffffffff82111562000446576200044562000563565b5b6200045182620005a6565b9050602081019050919050565b60006200046b8262000472565b9050919050565b600073ffffffffffffffffffffffffffffffffffffffff82169050919050565b60005b83811015620004b257808201518184015260208101905062000495565b83811115620004c2576000848401525b50505050565b60006002820490506001821680620004e157607f821691505b60208210811415620004f857620004f762000534565b5b50919050565b6200050982620005a6565b810181811067ffffffffffffffff821117156200052b576200052a62000563565b5b80604052505050565b7f4e487b7100000000000000000000000000000000000000000000000000000000600052602260045260246000fd5b7f4e487b7100000000000000000000000000000000000000000000000000000000600052604160045260246000fd5b600080fd5b600080fd5b600080fd5b600080fd5b6000601f19601f8301169050919050565b620005c2816200045e565b8114620005ce57600080fd5b50565b6145e380620005e16000396000f3fe60806040526004361061020e5760003560e01c806379f1d30511610118578063b187bd26116100a0578063df173dba1161006f578063df173dba14610784578063e985e9c5146107af578063eb8d2444146107ec578063f242432a14610817578063f2fde38b146108405761020e565b8063b187bd26146106c8578063bd85b039146106f3578063cd6a3ea514610730578063db3c57d1146107595761020e565b80638da5cb5b116100e75780638da5cb5b146105f357806395d89b411461061e578063a22cb46514610649578063aa36172e14610672578063ad2f852a1461069d5761020e565b806379f1d305146105565780637ff9b5961461058157806380d5d4ad146105ac57806386769186146105d75761020e565b806332cb6b0c1161019b5780634f558e791161016a5780634f558e79146104835780635b7633d0146104c05780636a61e5fc146104eb5780636d2e192f14610514578063715018a61461053f5761020e565b806332cb6b0c146103d95780633b0822ca146104045780633ccfd60b1461042f5780634e1273f4146104465761020e565b8063099becfb116101e2578063099becfb146102e15780630a0889491461030c5780630e89341c146103355780632a55205a146103725780632eb2c2d6146103b05761020e565b8062fdd58e1461021357806301ffc9a71461025057806302329a291461028d57806306fdde03146102b6575b600080fd5b34801561021f57600080fd5b5061023a60048036038101906102359190612ee2565b610869565b604051610247919061399c565b60405180910390f35b34801561025c57600080fd5b5061027760048036038101906102729190613010565b610932565b604051610284919061367f565b60405180910390f35b34801561029957600080fd5b506102b460048036038101906102af9190612fe3565b610a14565b005b3480156102c257600080fd5b506102cb610aad565b6040516102d8919061369a565b60405180910390f35b3480156102ed57600080fd5b506102f6610b3f565b604051610303919061399c565b60405180910390f35b34801561031857600080fd5b50610333600480360381019061032e9190612fe3565b610b45565b005b34801561034157600080fd5b5061035c6004803603810190610357919061306a565b610c24565b604051610369919061369a565b60405180910390f35b34801561037e57600080fd5b5061039960048036038101906103949190613097565b610cb8565b6040516103a79291906135fd565b60405180910390f35b3480156103bc57600080fd5b506103d760048036038101906103d29190612d3c565b610db1565b005b3480156103e557600080fd5b506103ee610e52565b6040516103fb919061399c565b60405180910390f35b34801561041057600080fd5b50610419610e58565b604051610426919061399c565b60405180910390f35b34801561043b57600080fd5b50610444610e5d565b005b34801561045257600080fd5b5061046d60048036038101906104689190612f22565b610f2f565b60405161047a9190613626565b60405180910390f35b34801561048f57600080fd5b506104aa60048036038101906104a5919061306a565b611048565b6040516104b7919061367f565b60405180910390f35b3480156104cc57600080fd5b506104d561105c565b6040516104e29190613520565b60405180910390f35b3480156104f757600080fd5b50610512600480360381019061050d919061306a565b611082565b005b34801561052057600080fd5b50610529611158565b604051610536919061399c565b60405180910390f35b34801561054b57600080fd5b5061055461115d565b005b34801561056257600080fd5b5061056b6111e5565b604051610578919061399c565b60405180910390f35b34801561058d57600080fd5b506105966111ea565b6040516105a3919061399c565b60405180910390f35b3480156105b857600080fd5b506105c16111f0565b6040516105ce919061399c565b60405180910390f35b6105f160048036038101906105ec9190612f9a565b6111f5565b005b3480156105ff57600080fd5b506106086115a9565b6040516106159190613520565b60405180910390f35b34801561062a57600080fd5b506106336115d3565b604051610640919061369a565b60405180910390f35b34801561065557600080fd5b50610670600480360381019061066b9190612ea2565b611665565b005b34801561067e57600080fd5b5061068761167b565b604051610694919061399c565b60405180910390f35b3480156106a957600080fd5b506106b2611680565b6040516106bf9190613520565b60405180910390f35b3480156106d457600080fd5b506106dd6116a6565b6040516106ea919061367f565b60405180910390f35b3480156106ff57600080fd5b5061071a6004803603810190610715919061306a565b6116b9565b604051610727919061399c565b60405180910390f35b34801561073c57600080fd5b5061075760048036038101906107529190612ee2565b6116d6565b005b34801561076557600080fd5b5061076e6117a8565b60405161077b919061399c565b60405180910390f35b34801561079057600080fd5b506107996117ad565b6040516107a6919061399c565b60405180910390f35b3480156107bb57600080fd5b506107d660048036038101906107d19190612cfc565b6117b3565b6040516107e3919061367f565b60405180910390f35b3480156107f857600080fd5b50610801611847565b60405161080e919061367f565b60405180910390f35b34801561082357600080fd5b5061083e60048036038101906108399190612e0b565b61185a565b005b34801561084c57600080fd5b5061086760048036038101906108629190612ccf565b6118fb565b005b60008073ffffffffffffffffffffffffffffffffffffffff168373ffffffffffffffffffffffffffffffffffffffff1614156108da576040517f08c379a00000000000000000000000000000000000000000000000000000000081526004016108d19061371c565b60405180910390fd5b60008083815260200190815260200160002060008473ffffffffffffffffffffffffffffffffffffffff1673ffffffffffffffffffffffffffffffffffffffff16815260200190815260200160002054905092915050565b60007fd9b67a26000000000000000000000000000000000000000000000000000000007bffffffffffffffffffffffffffffffffffffffffffffffffffffffff1916827bffffffffffffffffffffffffffffffffffffffffffffffffffffffff191614806109fd57507f0e89341c000000000000000000000000000000000000000000000000000000007bffffffffffffffffffffffffffffffffffffffffffffffffffffffff1916827bffffffffffffffffffffffffffffffffffffffffffffffffffffffff1916145b80610a0d5750610a0c826119f3565b5b9050919050565b610a1c611a5d565b73ffffffffffffffffffffffffffffffffffffffff16610a3a6115a9565b73ffffffffffffffffffffffffffffffffffffffff1614610a90576040517f08c379a0000000000000000000000000000000000000000000000000000000008152600401610a879061385c565b60405180910390fd5b80600660016101000a81548160ff02191690831515021790555050565b606060078054610abc90613c96565b80601f0160208091040260200160405190810160405280929190818152602001828054610ae890613c96565b8015610b355780601f10610b0a57610100808354040283529160200191610b35565b820191906000526020600020905b815481529060010190602001808311610b1857829003601f168201915b5050505050905090565b600b5481565b610b4d611a5d565b73ffffffffffffffffffffffffffffffffffffffff16610b6b6115a9565b73ffffffffffffffffffffffffffffffffffffffff1614610bc1576040517f08c379a0000000000000000000000000000000000000000000000000000000008152600401610bb89061385c565b60405180910390fd5b60006005541415610c07576040517f08c379a0000000000000000000000000000000000000000000000000000000008152600401610bfe9061377c565b60405180910390fd5b80600660006101000a81548160ff02191690831515021790555050565b606060028054610c3390613c96565b80601f0160208091040260200160405190810160405280929190818152602001828054610c5f90613c96565b8015610cac5780601f10610c8157610100808354040283529160200191610cac565b820191906000526020600020905b815481529060010190602001808311610c8f57829003601f168201915b50505050509050919050565b6000806000600c54600b5485610cce9190613b86565b610cd89190613b55565b905060008073ffffffffffffffffffffffffffffffffffffffff16600d600088815260200190815260200160002060009054906101000a900473ffffffffffffffffffffffffffffffffffffffff1673ffffffffffffffffffffffffffffffffffffffff161415610d6b57600a60009054906101000a900473ffffffffffffffffffffffffffffffffffffffff16610da0565b600d600087815260200190815260200160002060009054906101000a900473ffffffffffffffffffffffffffffffffffffffff165b905080829350935050509250929050565b610db9611a5d565b73ffffffffffffffffffffffffffffffffffffffff168573ffffffffffffffffffffffffffffffffffffffff161480610dff5750610dfe85610df9611a5d565b6117b3565b5b610e3e576040517f08c379a0000000000000000000000000000000000000000000000000000000008152600401610e359061381c565b60405180910390fd5b610e4b8585858585611a65565b5050505050565b6107d081565b600281565b610e65611a5d565b73ffffffffffffffffffffffffffffffffffffffff16610e836115a9565b73ffffffffffffffffffffffffffffffffffffffff1614610ed9576040517f08c379a0000000000000000000000000000000000000000000000000000000008152600401610ed09061385c565b60405180910390fd5b6000479050610ee66115a9565b73ffffffffffffffffffffffffffffffffffffffff166108fc829081150290604051600060405180830381858888f19350505050158015610f2b573d6000803e3d6000fd5b5050565b60608151835114610f75576040517f08c379a0000000000000000000000000000000000000000000000000000000008152600401610f6c9061391c565b60405180910390fd5b6000835167ffffffffffffffff811115610f9257610f91613dfe565b5b604051908082528060200260200182016040528015610fc05781602001602082028036833780820191505090505b50905060005b845181101561103d5761100d858281518110610fe557610fe4613dcf565b5b602002602001015185838151811061100057610fff613dcf565b5b6020026020010151610869565b8282815181106110205761101f613dcf565b5b6020026020010181815250508061103690613cf9565b9050610fc6565b508091505092915050565b600080611054836116b9565b119050919050565b600960009054906101000a900473ffffffffffffffffffffffffffffffffffffffff1681565b61108a611a5d565b73ffffffffffffffffffffffffffffffffffffffff166110a86115a9565b73ffffffffffffffffffffffffffffffffffffffff16146110fe576040517f08c379a00000000000000000000000000000000000000000000000000000000081526004016110f59061385c565b60405180910390fd5b600660009054906101000a900460ff161561114e576040517f08c379a0000000000000000000000000000000000000000000000000000000008152600401611145906138dc565b60405180910390fd5b8060058190555050565b600181565b611165611a5d565b73ffffffffffffffffffffffffffffffffffffffff166111836115a9565b73ffffffffffffffffffffffffffffffffffffffff16146111d9576040517f08c379a00000000000000000000000000000000000000000000000000000000081526004016111d09061385c565b60405180910390fd5b6111e36000611d87565b565b600381565b60055481565b600a81565b600660009054906101000a900460ff16611244576040517f08c379a000000000000000000000000000000000000000000000000000000000815260040161123b9061397c565b60405180910390fd5b6005815114611288576040517f08c379a000000000000000000000000000000000000000000000000000000000815260040161127f906136dc565b60405180910390fd5b6000805b6005811015611342578281815181106112a8576112a7613dcf565b5b6020026020010151826112bb9190613aff565b91506107d08382815181106112d3576112d2613dcf565b5b60200260200101516112e4836116b9565b6112ee9190613aff565b111561132f576040517f08c379a00000000000000000000000000000000000000000000000000000000081526004016113269061375c565b60405180910390fd5b808061133a90613cf9565b91505061128c565b5060008111611386576040517f08c379a000000000000000000000000000000000000000000000000000000000815260040161137d906137dc565b60405180910390fd5b61138e6115a9565b73ffffffffffffffffffffffffffffffffffffffff166113ac611a5d565b73ffffffffffffffffffffffffffffffffffffffff161461150957600a81600e60006113d6611a5d565b73ffffffffffffffffffffffffffffffffffffffff1673ffffffffffffffffffffffffffffffffffffffff1681526020019081526020016000205461141b9190613aff565b111561145c576040517f08c379a00000000000000000000000000000000000000000000000000000000081526004016114539061387c565b60405180910390fd5b346005548261146b9190613b86565b146114ab576040517f08c379a00000000000000000000000000000000000000000000000000000000081526004016114a29061389c565b60405180910390fd5b80600e60006114b8611a5d565b73ffffffffffffffffffffffffffffffffffffffff1673ffffffffffffffffffffffffffffffffffffffff16815260200190815260200160002060008282546115019190613aff565b925050819055505b60005b600581101561156457611551611520611a5d565b8285848151811061153457611533613dcf565b5b602002602001015160405180602001604052806000815250611e4d565b808061155c90613cf9565b91505061150c565b507f3f2c9d57c068687834f0de942a9babb9e5acab57d516d3480a3c16ee165a427361158e611a5d565b8260405161159d9291906135fd565b60405180910390a15050565b6000600460009054906101000a900473ffffffffffffffffffffffffffffffffffffffff16905090565b6060600880546115e290613c96565b80601f016020809104026020016040519081016040528092919081815260200182805461160e90613c96565b801561165b5780601f106116305761010080835404028352916020019161165b565b820191906000526020600020905b81548152906001019060200180831161163e57829003601f168201915b5050505050905090565b611677611670611a5d565b8383611ffe565b5050565b600481565b600a60009054906101000a900473ffffffffffffffffffffffffffffffffffffffff1681565b600660019054906101000a900460ff1681565b600060036000838152602001908152602001600020549050919050565b6116de611a5d565b73ffffffffffffffffffffffffffffffffffffffff166116fc6115a9565b73ffffffffffffffffffffffffffffffffffffffff1614611752576040517f08c379a00000000000000000000000000000000000000000000000000000000081526004016117499061385c565b60405180910390fd5b81600d600083815260200190815260200160002060006101000a81548173ffffffffffffffffffffffffffffffffffffffff021916908373ffffffffffffffffffffffffffffffffffffffff1602179055505050565b600081565b600c5481565b6000600160008473ffffffffffffffffffffffffffffffffffffffff1673ffffffffffffffffffffffffffffffffffffffff16815260200190815260200160002060008373ffffffffffffffffffffffffffffffffffffffff1673ffffffffffffffffffffffffffffffffffffffff16815260200190815260200160002060009054906101000a900460ff16905092915050565b600660009054906101000a900460ff1681565b611862611a5d565b73ffffffffffffffffffffffffffffffffffffffff168573ffffffffffffffffffffffffffffffffffffffff1614806118a857506118a7856118a2611a5d565b6117b3565b5b6118e7576040517f08c379a00000000000000000000000000000000000000000000000000000000081526004016118de906137bc565b60405180910390fd5b6118f4858585858561216b565b5050505050565b611903611a5d565b73ffffffffffffffffffffffffffffffffffffffff166119216115a9565b73ffffffffffffffffffffffffffffffffffffffff1614611977576040517f08c379a000000000000000000000000000000000000000000000000000000000815260040161196e9061385c565b60405180910390fd5b600073ffffffffffffffffffffffffffffffffffffffff168173ffffffffffffffffffffffffffffffffffffffff1614156119e7576040517f08c379a00000000000000000000000000000000000000000000000000000000081526004016119de9061373c565b60405180910390fd5b6119f081611d87565b50565b60007f01ffc9a7000000000000000000000000000000000000000000000000000000007bffffffffffffffffffffffffffffffffffffffffffffffffffffffff1916827bffffffffffffffffffffffffffffffffffffffffffffffffffffffff1916149050919050565b600033905090565b8151835114611aa9576040517f08c379a0000000000000000000000000000000000000000000000000000000008152600401611aa09061393c565b60405180910390fd5b600073ffffffffffffffffffffffffffffffffffffffff168473ffffffffffffffffffffffffffffffffffffffff161415611b19576040517f08c379a0000000000000000000000000000000000000000000000000000000008152600401611b10906137fc565b60405180910390fd5b6000611b23611a5d565b9050611b33818787878787612407565b60005b8451811015611ce4576000858281518110611b5457611b53613dcf565b5b602002602001015190506000858381518110611b7357611b72613dcf565b5b60200260200101519050600080600084815260200190815260200160002060008b73ffffffffffffffffffffffffffffffffffffffff1673ffffffffffffffffffffffffffffffffffffffff16815260200190815260200160002054905081811015611c14576040517f08c379a0000000000000000000000000000000000000000000000000000000008152600401611c0b9061383c565b60405180910390fd5b81810360008085815260200190815260200160002060008c73ffffffffffffffffffffffffffffffffffffffff1673ffffffffffffffffffffffffffffffffffffffff168152602001908152602001600020819055508160008085815260200190815260200160002060008b73ffffffffffffffffffffffffffffffffffffffff1673ffffffffffffffffffffffffffffffffffffffff1681526020019081526020016000206000828254611cc99190613aff565b9250508190555050505080611cdd90613cf9565b9050611b36565b508473ffffffffffffffffffffffffffffffffffffffff168673ffffffffffffffffffffffffffffffffffffffff168273ffffffffffffffffffffffffffffffffffffffff167f4a39dc06d4c0dbc64b70af90fd698a233a518aa5d07e595d983b8c0526c8f7fb8787604051611d5b929190613648565b60405180910390a4611d7181878787878761246d565b611d7f818787878787612475565b505050505050565b6000600460009054906101000a900473ffffffffffffffffffffffffffffffffffffffff16905081600460006101000a81548173ffffffffffffffffffffffffffffffffffffffff021916908373ffffffffffffffffffffffffffffffffffffffff1602179055508173ffffffffffffffffffffffffffffffffffffffff168173ffffffffffffffffffffffffffffffffffffffff167f8be0079c531659141344cd1fd0a4f28419497f9722a3daafe3b4186f6b6457e060405160405180910390a35050565b600073ffffffffffffffffffffffffffffffffffffffff168473ffffffffffffffffffffffffffffffffffffffff161415611ebd576040517f08c379a0000000000000000000000000000000000000000000000000000000008152600401611eb49061395c565b60405180910390fd5b6000611ec7611a5d565b90506000611ed48561265c565b90506000611ee18561265c565b9050611ef283600089858589612407565b8460008088815260200190815260200160002060008973ffffffffffffffffffffffffffffffffffffffff1673ffffffffffffffffffffffffffffffffffffffff1681526020019081526020016000206000828254611f519190613aff565b925050819055508673ffffffffffffffffffffffffffffffffffffffff16600073ffffffffffffffffffffffffffffffffffffffff168473ffffffffffffffffffffffffffffffffffffffff167fc3d58168c5ae7397731d063d5bbf3d657854427343f4c083240f7aacaa2d0f628989604051611fcf9291906139b7565b60405180910390a4611fe68360008985858961246d565b611ff5836000898989896126d6565b50505050505050565b8173ffffffffffffffffffffffffffffffffffffffff168373ffffffffffffffffffffffffffffffffffffffff16141561206d576040517f08c379a0000000000000000000000000000000000000000000000000000000008152600401612064906138fc565b60405180910390fd5b80600160008573ffffffffffffffffffffffffffffffffffffffff1673ffffffffffffffffffffffffffffffffffffffff16815260200190815260200160002060008473ffffffffffffffffffffffffffffffffffffffff1673ffffffffffffffffffffffffffffffffffffffff16815260200190815260200160002060006101000a81548160ff0219169083151502179055508173ffffffffffffffffffffffffffffffffffffffff168373ffffffffffffffffffffffffffffffffffffffff167f17307eab39ab6107e8899845ad3d59bd9653f200f220920489ca2b5937696c318360405161215e919061367f565b60405180910390a3505050565b600073ffffffffffffffffffffffffffffffffffffffff168473ffffffffffffffffffffffffffffffffffffffff1614156121db576040517f08c379a00000000000000000000000000000000000000000000000000000000081526004016121d2906137fc565b60405180910390fd5b60006121e5611a5d565b905060006121f28561265c565b905060006121ff8561265c565b905061220f838989858589612407565b600080600088815260200190815260200160002060008a73ffffffffffffffffffffffffffffffffffffffff1673ffffffffffffffffffffffffffffffffffffffff168152602001908152602001600020549050858110156122a6576040517f08c379a000000000000000000000000000000000000000000000000000000000815260040161229d9061383c565b60405180910390fd5b85810360008089815260200190815260200160002060008b73ffffffffffffffffffffffffffffffffffffffff1673ffffffffffffffffffffffffffffffffffffffff168152602001908152602001600020819055508560008089815260200190815260200160002060008a73ffffffffffffffffffffffffffffffffffffffff1673ffffffffffffffffffffffffffffffffffffffff168152602001908152602001600020600082825461235b9190613aff565b925050819055508773ffffffffffffffffffffffffffffffffffffffff168973ffffffffffffffffffffffffffffffffffffffff168573ffffffffffffffffffffffffffffffffffffffff167fc3d58168c5ae7397731d063d5bbf3d657854427343f4c083240f7aacaa2d0f628a8a6040516123d89291906139b7565b60405180910390a46123ee848a8a86868a61246d565b6123fc848a8a8a8a8a6126d6565b505050505050505050565b6124158686868686866128bd565b600660019054906101000a900460ff1615612465576040517f08c379a000000000000000000000000000000000000000000000000000000000815260040161245c9061379c565b60405180910390fd5b505050505050565b505050505050565b6124948473ffffffffffffffffffffffffffffffffffffffff16612a8f565b15612654578373ffffffffffffffffffffffffffffffffffffffff1663bc197c8187878686866040518663ffffffff1660e01b81526004016124da95949392919061353b565b602060405180830381600087803b1580156124f457600080fd5b505af192505050801561252557506040513d601f19601f82011682018060405250810190612522919061303d565b60015b6125cb57612531613e2d565b806308c379a0141561258e57506125466144bb565b806125515750612590565b806040517f08c379a0000000000000000000000000000000000000000000000000000000008152600401612585919061369a565b60405180910390fd5b505b6040517f08c379a00000000000000000000000000000000000000000000000000000000081526004016125c2906136bc565b60405180910390fd5b63bc197c8160e01b7bffffffffffffffffffffffffffffffffffffffffffffffffffffffff1916817bffffffffffffffffffffffffffffffffffffffffffffffffffffffff191614612652576040517f08c379a0000000000000000000000000000000000000000000000000000000008152600401612649906136fc565b60405180910390fd5b505b505050505050565b60606000600167ffffffffffffffff81111561267b5761267a613dfe565b5b6040519080825280602002602001820160405280156126a95781602001602082028036833780820191505090505b50905082816000815181106126c1576126c0613dcf565b5b60200260200101818152505080915050919050565b6126f58473ffffffffffffffffffffffffffffffffffffffff16612a8f565b156128b5578373ffffffffffffffffffffffffffffffffffffffff1663f23a6e6187878686866040518663ffffffff1660e01b815260040161273b9594939291906135a3565b602060405180830381600087803b15801561275557600080fd5b505af192505050801561278657506040513d601f19601f82011682018060405250810190612783919061303d565b60015b61282c57612792613e2d565b806308c379a014156127ef57506127a76144bb565b806127b257506127f1565b806040517f08c379a00000000000000000000000000000000000000000000000000000000081526004016127e6919061369a565b60405180910390fd5b505b6040517f08c379a0000000000000000000000000000000000000000000000000000000008152600401612823906136bc565b60405180910390fd5b63f23a6e6160e01b7bffffffffffffffffffffffffffffffffffffffffffffffffffffffff1916817bffffffffffffffffffffffffffffffffffffffffffffffffffffffff1916146128b3576040517f08c379a00000000000000000000000000000000000000000000000000000000081526004016128aa906136fc565b60405180910390fd5b505b505050505050565b6128cb868686868686612ab2565b600073ffffffffffffffffffffffffffffffffffffffff168573ffffffffffffffffffffffffffffffffffffffff16141561297d5760005b835181101561297b5782818151811061291f5761291e613dcf565b5b60200260200101516003600086848151811061293e5761293d613dcf565b5b6020026020010151815260200190815260200160002060008282546129639190613aff565b925050819055508061297490613cf9565b9050612903565b505b600073ffffffffffffffffffffffffffffffffffffffff168473ffffffffffffffffffffffffffffffffffffffff161415612a875760005b8351811015612a855760008482815181106129d3576129d2613dcf565b5b6020026020010151905060008483815181106129f2576129f1613dcf565b5b6020026020010151905060006003600084815260200190815260200160002054905081811015612a57576040517f08c379a0000000000000000000000000000000000000000000000000000000008152600401612a4e906138bc565b60405180910390fd5b818103600360008581526020019081526020016000208190555050505080612a7e90613cf9565b90506129b5565b505b505050505050565b6000808273ffffffffffffffffffffffffffffffffffffffff163b119050919050565b505050505050565b6000612acd612ac884613a05565b6139e0565b90508083825260208201905082856020860282011115612af057612aef613e54565b5b60005b85811015612b205781612b068882612bdc565b845260208401935060208301925050600181019050612af3565b5050509392505050565b6000612b3d612b3884613a31565b6139e0565b90508083825260208201905082856020860282011115612b6057612b5f613e54565b5b60005b85811015612b905781612b768882612cba565b845260208401935060208301925050600181019050612b63565b5050509392505050565b6000612bad612ba884613a5d565b6139e0565b905082815260208101848484011115612bc957612bc8613e59565b5b612bd4848285613c54565b509392505050565b600081359050612beb81614551565b92915050565b600082601f830112612c0657612c05613e4f565b5b8135612c16848260208601612aba565b91505092915050565b600082601f830112612c3457612c33613e4f565b5b8135612c44848260208601612b2a565b91505092915050565b600081359050612c5c81614568565b92915050565b600081359050612c718161457f565b92915050565b600081519050612c868161457f565b92915050565b600082601f830112612ca157612ca0613e4f565b5b8135612cb1848260208601612b9a565b91505092915050565b600081359050612cc981614596565b92915050565b600060208284031215612ce557612ce4613e63565b5b6000612cf384828501612bdc565b91505092915050565b60008060408385031215612d1357612d12613e63565b5b6000612d2185828601612bdc565b9250506020612d3285828601612bdc565b9150509250929050565b600080600080600060a08688031215612d5857612d57613e63565b5b6000612d6688828901612bdc565b9550506020612d7788828901612bdc565b945050604086013567ffffffffffffffff811115612d9857612d97613e5e565b5b612da488828901612c1f565b935050606086013567ffffffffffffffff811115612dc557612dc4613e5e565b5b612dd188828901612c1f565b925050608086013567ffffffffffffffff811115612df257612df1613e5e565b5b612dfe88828901612c8c565b9150509295509295909350565b600080600080600060a08688031215612e2757612e26613e63565b5b6000612e3588828901612bdc565b9550506020612e4688828901612bdc565b9450506040612e5788828901612cba565b9350506060612e6888828901612cba565b925050608086013567ffffffffffffffff811115612e8957612e88613e5e565b5b612e9588828901612c8c565b9150509295509295909350565b60008060408385031215612eb957612eb8613e63565b5b6000612ec785828601612bdc565b9250506020612ed885828601612c4d565b9150509250929050565b60008060408385031215612ef957612ef8613e63565b5b6000612f0785828601612bdc565b9250506020612f1885828601612cba565b9150509250929050565b60008060408385031215612f3957612f38613e63565b5b600083013567ffffffffffffffff811115612f5757612f56613e5e565b5b612f6385828601612bf1565b925050602083013567ffffffffffffffff811115612f8457612f83613e5e565b5b612f9085828601612c1f565b9150509250929050565b600060208284031215612fb057612faf613e63565b5b600082013567ffffffffffffffff811115612fce57612fcd613e5e565b5b612fda84828501612c1f565b91505092915050565b600060208284031215612ff957612ff8613e63565b5b600061300784828501612c4d565b91505092915050565b60006020828403121561302657613025613e63565b5b600061303484828501612c62565b91505092915050565b60006020828403121561305357613052613e63565b5b600061306184828501612c77565b91505092915050565b6000602082840312156130805761307f613e63565b5b600061308e84828501612cba565b91505092915050565b600080604083850312156130ae576130ad613e63565b5b60006130bc85828601612cba565b92505060206130cd85828601612cba565b9150509250929050565b60006130e38383613502565b60208301905092915050565b6130f881613be0565b82525050565b600061310982613a9e565b6131138185613acc565b935061311e83613a8e565b8060005b8381101561314f57815161313688826130d7565b975061314183613abf565b925050600181019050613122565b5085935050505092915050565b61316581613bf2565b82525050565b600061317682613aa9565b6131808185613add565b9350613190818560208601613c63565b61319981613e68565b840191505092915050565b60006131af82613ab4565b6131b98185613aee565b93506131c9818560208601613c63565b6131d281613e68565b840191505092915050565b60006131ea603483613aee565b91506131f582613e86565b604082019050919050565b600061320d601683613aee565b915061321882613ed5565b602082019050919050565b6000613230602883613aee565b915061323b82613efe565b604082019050919050565b6000613253602b83613aee565b915061325e82613f4d565b604082019050919050565b6000613276602683613aee565b915061328182613f9c565b604082019050919050565b6000613299602b83613aee565b91506132a482613feb565b604082019050919050565b60006132bc601083613aee565b91506132c78261403a565b602082019050919050565b60006132df602c83613aee565b91506132ea82614063565b604082019050919050565b6000613302602983613aee565b915061330d826140b2565b604082019050919050565b6000613325601683613aee565b915061333082614101565b602082019050919050565b6000613348602583613aee565b91506133538261412a565b604082019050919050565b600061336b603283613aee565b915061337682614179565b604082019050919050565b600061338e602a83613aee565b9150613399826141c8565b604082019050919050565b60006133b1602083613aee565b91506133bc82614217565b602082019050919050565b60006133d4602683613aee565b91506133df82614240565b604082019050919050565b60006133f7601c83613aee565b91506134028261428f565b602082019050919050565b600061341a602883613aee565b9150613425826142b8565b604082019050919050565b600061343d602c83613aee565b915061344882614307565b604082019050919050565b6000613460602983613aee565b915061346b82614356565b604082019050919050565b6000613483602983613aee565b915061348e826143a5565b604082019050919050565b60006134a6602883613aee565b91506134b1826143f4565b604082019050919050565b60006134c9602183613aee565b91506134d482614443565b604082019050919050565b60006134ec601c83613aee565b91506134f782614492565b602082019050919050565b61350b81613c4a565b82525050565b61351a81613c4a565b82525050565b600060208201905061353560008301846130ef565b92915050565b600060a08201905061355060008301886130ef565b61355d60208301876130ef565b818103604083015261356f81866130fe565b9050818103606083015261358381856130fe565b90508181036080830152613597818461316b565b90509695505050505050565b600060a0820190506135b860008301886130ef565b6135c560208301876130ef565b6135d26040830186613511565b6135df6060830185613511565b81810360808301526135f1818461316b565b90509695505050505050565b600060408201905061361260008301856130ef565b61361f6020830184613511565b9392505050565b6000602082019050818103600083015261364081846130fe565b905092915050565b6000604082019050818103600083015261366281856130fe565b9050818103602083015261367681846130fe565b90509392505050565b6000602082019050613694600083018461315c565b92915050565b600060208201905081810360008301526136b481846131a4565b905092915050565b600060208201905081810360008301526136d5816131dd565b9050919050565b600060208201905081810360008301526136f581613200565b9050919050565b6000602082019050818103600083015261371581613223565b9050919050565b6000602082019050818103600083015261373581613246565b9050919050565b6000602082019050818103600083015261375581613269565b9050919050565b600060208201905081810360008301526137758161328c565b9050919050565b60006020820190508181036000830152613795816132af565b9050919050565b600060208201905081810360008301526137b5816132d2565b9050919050565b600060208201905081810360008301526137d5816132f5565b9050919050565b600060208201905081810360008301526137f581613318565b9050919050565b600060208201905081810360008301526138158161333b565b9050919050565b600060208201905081810360008301526138358161335e565b9050919050565b6000602082019050818103600083015261385581613381565b9050919050565b60006020820190508181036000830152613875816133a4565b9050919050565b60006020820190508181036000830152613895816133c7565b9050919050565b600060208201905081810360008301526138b5816133ea565b9050919050565b600060208201905081810360008301526138d58161340d565b9050919050565b600060208201905081810360008301526138f581613430565b9050919050565b6000602082019050818103600083015261391581613453565b9050919050565b6000602082019050818103600083015261393581613476565b9050919050565b6000602082019050818103600083015261395581613499565b9050919050565b60006020820190508181036000830152613975816134bc565b9050919050565b60006020820190508181036000830152613995816134df565b9050919050565b60006020820190506139b16000830184613511565b92915050565b60006040820190506139cc6000830185613511565b6139d96020830184613511565b9392505050565b60006139ea6139fb565b90506139f68282613cc8565b919050565b6000604051905090565b600067ffffffffffffffff821115613a2057613a1f613dfe565b5b602082029050602081019050919050565b600067ffffffffffffffff821115613a4c57613a4b613dfe565b5b602082029050602081019050919050565b600067ffffffffffffffff821115613a7857613a77613dfe565b5b613a8182613e68565b9050602081019050919050565b6000819050602082019050919050565b600081519050919050565b600081519050919050565b600081519050919050565b6000602082019050919050565b600082825260208201905092915050565b600082825260208201905092915050565b600082825260208201905092915050565b6000613b0a82613c4a565b9150613b1583613c4a565b9250827fffffffffffffffffffffffffffffffffffffffffffffffffffffffffffffffff03821115613b4a57613b49613d42565b5b828201905092915050565b6000613b6082613c4a565b9150613b6b83613c4a565b925082613b7b57613b7a613d71565b5b828204905092915050565b6000613b9182613c4a565b9150613b9c83613c4a565b9250817fffffffffffffffffffffffffffffffffffffffffffffffffffffffffffffffff0483118215151615613bd557613bd4613d42565b5b828202905092915050565b6000613beb82613c2a565b9050919050565b60008115159050919050565b60007fffffffff0000000000000000000000000000000000000000000000000000000082169050919050565b600073ffffffffffffffffffffffffffffffffffffffff82169050919050565b6000819050919050565b82818337600083830152505050565b60005b83811015613c81578082015181840152602081019050613c66565b83811115613c90576000848401525b50505050565b60006002820490506001821680613cae57607f821691505b60208210811415613cc257613cc1613da0565b5b50919050565b613cd182613e68565b810181811067ffffffffffffffff82111715613cf057613cef613dfe565b5b80604052505050565b6000613d0482613c4a565b91507fffffffffffffffffffffffffffffffffffffffffffffffffffffffffffffffff821415613d3757613d36613d42565b5b600182019050919050565b7f4e487b7100000000000000000000000000000000000000000000000000000000600052601160045260246000fd5b7f4e487b7100000000000000000000000000000000000000000000000000000000600052601260045260246000fd5b7f4e487b7100000000000000000000000000000000000000000000000000000000600052602260045260246000fd5b7f4e487b7100000000000000000000000000000000000000000000000000000000600052603260045260246000fd5b7f4e487b7100000000000000000000000000000000000000000000000000000000600052604160045260246000fd5b600060033d1115613e4c5760046000803e613e49600051613e79565b90505b90565b600080fd5b600080fd5b600080fd5b600080fd5b600080fd5b6000601f19601f8301169050919050565b60008160e01c9050919050565b7f455243313135353a207472616e7366657220746f206e6f6e204552433131353560008201527f526563656976657220696d706c656d656e746572000000000000000000000000602082015250565b7f57726f6e67205075726368617365205265717565737400000000000000000000600082015250565b7f455243313135353a204552433131353552656365697665722072656a6563746560008201527f6420746f6b656e73000000000000000000000000000000000000000000000000602082015250565b7f455243313135353a2062616c616e636520717565727920666f7220746865207a60008201527f65726f2061646472657373000000000000000000000000000000000000000000602082015250565b7f4f776e61626c653a206e6577206f776e657220697320746865207a65726f206160008201527f6464726573730000000000000000000000000000000000000000000000000000602082015250565b7f596f7520747269656420746f206d696e74206d6f7265207468616e207468652060008201527f6d617820616c6c6f776564000000000000000000000000000000000000000000602082015250565b7f5072696365206973206e6f742073657400000000000000000000000000000000600082015250565b7f455243313135355061757361626c653a20746f6b656e207472616e736665722060008201527f7768696c65207061757365640000000000000000000000000000000000000000602082015250565b7f455243313135353a2063616c6c6572206973206e6f74206f776e6572206e6f7260008201527f20617070726f7665640000000000000000000000000000000000000000000000602082015250565b7f57726f6e6720616d6f756e742072657175657374656400000000000000000000600082015250565b7f455243313135353a207472616e7366657220746f20746865207a65726f20616460008201527f6472657373000000000000000000000000000000000000000000000000000000602082015250565b7f455243313135353a207472616e736665722063616c6c6572206973206e6f742060008201527f6f776e6572206e6f7220617070726f7665640000000000000000000000000000602082015250565b7f455243313135353a20696e73756666696369656e742062616c616e636520666f60008201527f72207472616e7366657200000000000000000000000000000000000000000000602082015250565b7f4f776e61626c653a2063616c6c6572206973206e6f7420746865206f776e6572600082015250565b7f596f7520686176652068697420746865206d617820746f6b656e73207065722060008201527f77616c6c65740000000000000000000000000000000000000000000000000000602082015250565b7f596f752068617665206e6f742073656e7420656e6f7567682045544800000000600082015250565b7f455243313135353a206275726e20616d6f756e74206578636565647320746f7460008201527f616c537570706c79000000000000000000000000000000000000000000000000602082015250565b7f50726963652063616e6e6f74206265206368616e676564207768696c6520736160008201527f6c65206973206163746976650000000000000000000000000000000000000000602082015250565b7f455243313135353a2073657474696e6720617070726f76616c2073746174757360008201527f20666f722073656c660000000000000000000000000000000000000000000000602082015250565b7f455243313135353a206163636f756e747320616e6420696473206c656e67746860008201527f206d69736d617463680000000000000000000000000000000000000000000000602082015250565b7f455243313135353a2069647320616e6420616d6f756e7473206c656e6774682060008201527f6d69736d61746368000000000000000000000000000000000000000000000000602082015250565b7f455243313135353a206d696e7420746f20746865207a65726f2061646472657360008201527f7300000000000000000000000000000000000000000000000000000000000000602082015250565b7f546865206d696e7420686173206e6f7420737461727465642079657400000000600082015250565b600060443d10156144cb5761454e565b6144d36139fb565b60043d036004823e80513d602482011167ffffffffffffffff821117156144fb57505061454e565b808201805167ffffffffffffffff811115614519575050505061454e565b80602083010160043d03850181111561453657505050505061454e565b61454582602001850186613cc8565b82955050505050505b90565b61455a81613be0565b811461456557600080fd5b50565b61457181613bf2565b811461457c57600080fd5b50565b61458881613bfe565b811461459357600080fd5b50565b61459f81613c4a565b81146145aa57600080fd5b5056fea264697066735822122017642c5bda479af82a8d46213197741f4a2529dce62361fc0cdc9ca5458a22b464736f6c63430008070033",
  "immutableReferences": {},
  "source": "// SPDX-License-Identifier: MIT\npragma solidity ^0.8.7;\n\nimport \"@openzeppelin/contracts/token/ERC1155/extensions/ERC1155Supply.sol\";\nimport \"@openzeppelin/contracts/access/Ownable.sol\";\nimport \"@openzeppelin/contracts/utils/cryptography/ECDSA.sol\";\n\n/*\n\n\n\n\n\n\n\n\n\n\n\n\n\n*/\n\ncontract BuddiCollection is ERC1155Supply, Ownable {\n    using ECDSA for bytes32;\n\n    // BUDDI RUNNER DNA TOKEN IDs\n    uint256 public constant DNA_WHALE = 0;\n    uint256 public constant DNA_SPIDER = 1;\n    uint256 public constant DNA_SLOTH = 2;\n    uint256 public constant DNA_ARMADILLO = 3;\n    uint256 public constant DNA_CROCODILE = 4;\n\n    uint256 public constant MAX_SUPPLY = 2000;\n    uint256 public constant PER_WALLET_LIMIT = 10;\n\n    uint256 public tokenPrice;\n    bool public saleIsActive;\n    bool public isPaused;\n\n    string private name_;\n    string private symbol_; \n\n    address public signerAddress;\n\n    address public royaltyAddress;\n    uint256 public ROYALTY_SIZE = 500; // 5%\n    uint256 public ROYALTY_DENOMINATOR = 10000;\n\n    mapping(uint256 => address) private _royaltyReceivers;\n    mapping (address => uint256) private _mintedPerAddress;\n\n    event TokensMinted(\n      address mintedBy,\n      uint256 tokensNumber\n    );\n\n    constructor(\n      string memory _name,\n      string memory _symbol,\n      string memory _uri,\n      address _royalty\n    ) ERC1155(_uri) {\n      name_ = _name;\n      symbol_ = _symbol;\n      royaltyAddress = _royalty;\n\n      tokenPrice = 0.05 ether;\n    }\n    \n    function name() public view returns (string memory) {\n      return name_;\n    }\n\n    function symbol() public view returns (string memory) {\n      return symbol_;\n    }\n\n    function royaltyInfo(uint256 _tokenId, uint256 _salePrice) external view returns (address receiver, uint256 royaltyAmount) {\n      uint256 amount = _salePrice * ROYALTY_SIZE / ROYALTY_DENOMINATOR;\n      address royaltyReceiver = _royaltyReceivers[_tokenId] != address(0) ? _royaltyReceivers[_tokenId] : royaltyAddress;\n      return (royaltyReceiver, amount);\n    }\n\n    function addRoyaltyReceiverForTokenId(address receiver, uint256 tokenId) public onlyOwner {\n      _royaltyReceivers[tokenId] = receiver;\n    }\n\n    // function purchase(uint256 [] memory tokensToMint, bytes calldata signature) public payable {\n    function purchase(uint256 [] memory tokensToMint) public payable {\n      require(saleIsActive, \"The mint has not started yet\");\n      require(tokensToMint.length == 5, \"Wrong Purchase Request\");\n\n      uint256 totalPurchaseCount = 0;\n\n      for (uint256 dnaType = 0; dnaType < 5; dnaType++) {\n        totalPurchaseCount += tokensToMint[dnaType];\n        require(totalSupply(dnaType) + tokensToMint[dnaType] <= MAX_SUPPLY, \"You tried to mint more than the max allowed\");\n      }\n\n      require(totalPurchaseCount > 0, \"Wrong amount requested\");\n\n      if (_msgSender() != owner()) {\n        require(_mintedPerAddress[_msgSender()] + totalPurchaseCount <= PER_WALLET_LIMIT, \"You have hit the max tokens per wallet\");\n        require(totalPurchaseCount * tokenPrice == msg.value,\n          \"You have not sent enough ETH\"\n        );\n        _mintedPerAddress[_msgSender()] += totalPurchaseCount;\n      }\n\n      for (uint256 dnaType = 0; dnaType < 5; dnaType++) {\n        _mint(_msgSender(), dnaType, tokensToMint[dnaType], \"\");\n      }\n\n      emit TokensMinted(_msgSender(), totalPurchaseCount);\n    }\n\n    function updateSaleStatus(bool status) public onlyOwner {\n      require(tokenPrice != 0, \"Price is not set\");\n      saleIsActive = status;\n    }\n    \n    function setTokenPrice(uint256 _tokenPrice) public onlyOwner {\n      require(!saleIsActive, \"Price cannot be changed while sale is active\");\n      tokenPrice = _tokenPrice;\n    }\n\n    function withdraw() external onlyOwner {\n      uint256 balance = address(this).balance;\n      payable(owner()).transfer(balance);\n    }\n\n    function pause(bool _isPaused) external onlyOwner {\n      isPaused = _isPaused;\n    }\n\n    /**\n     * @dev See {ERC1155-_beforeTokenTransfer}.\n     *\n     * Requirements:\n     *\n     * - the contract must not be paused.\n     */\n    function _beforeTokenTransfer(\n        address operator,\n        address from,\n        address to,\n        uint256[] memory ids,\n        uint256[] memory amounts,\n        bytes memory data\n    ) internal virtual override {\n        super._beforeTokenTransfer(operator, from, to, ids, amounts, data);\n\n        require(!isPaused, \"ERC1155Pausable: token transfer while paused\");\n    }\n}",
  "sourcePath": "/home/osboxes/Documents/Buddie/buddi-nft/contracts/BuddiCollection.sol",
  "compiler": {
    "name": "solc",
    "version": "0.8.7+commit.e28d00a7.Emscripten.clang"
  },
  "schemaVersion": "3.4.5",
  "updatedAt": "2022-06-10T17:52:49.853Z",
  "networkType": "ethereum",
  "devdoc": {
    "kind": "dev",
    "methods": {
      "balanceOf(address,uint256)": {
        "details": "See {IERC1155-balanceOf}. Requirements: - `account` cannot be the zero address."
      },
      "balanceOfBatch(address[],uint256[])": {
        "details": "See {IERC1155-balanceOfBatch}. Requirements: - `accounts` and `ids` must have the same length."
      },
      "exists(uint256)": {
        "details": "Indicates whether any token exist with a given id, or not."
      },
      "isApprovedForAll(address,address)": {
        "details": "See {IERC1155-isApprovedForAll}."
      },
      "owner()": {
        "details": "Returns the address of the current owner."
      },
      "renounceOwnership()": {
        "details": "Leaves the contract without owner. It will not be possible to call `onlyOwner` functions anymore. Can only be called by the current owner. NOTE: Renouncing ownership will leave the contract without an owner, thereby removing any functionality that is only available to the owner."
      },
      "safeBatchTransferFrom(address,address,uint256[],uint256[],bytes)": {
        "details": "See {IERC1155-safeBatchTransferFrom}."
      },
      "safeTransferFrom(address,address,uint256,uint256,bytes)": {
        "details": "See {IERC1155-safeTransferFrom}."
      },
      "setApprovalForAll(address,bool)": {
        "details": "See {IERC1155-setApprovalForAll}."
      },
      "supportsInterface(bytes4)": {
        "details": "See {IERC165-supportsInterface}."
      },
      "totalSupply(uint256)": {
        "details": "Total amount of tokens in with a given id."
      },
      "transferOwnership(address)": {
        "details": "Transfers ownership of the contract to a new account (`newOwner`). Can only be called by the current owner."
      },
      "uri(uint256)": {
        "details": "See {IERC1155MetadataURI-uri}. This implementation returns the same URI for *all* token types. It relies on the token type ID substitution mechanism https://eips.ethereum.org/EIPS/eip-1155#metadata[defined in the EIP]. Clients calling this function must replace the `\\{id\\}` substring with the actual token type ID."
      }
    },
    "version": 1
  },
  "userdoc": {
    "kind": "user",
    "methods": {},
    "version": 1
  }
}