{
  "contractName": "BuddiNFT",
  "abi": [
    {
      "inputs": [
        {
          "internalType": "address",
          "name": "_royaltyAddress",
          "type": "address"
        },
        {
          "internalType": "address",
          "name": "_buddiCollection",
          "type": "address"
        },
        {
          "internalType": "string",
          "name": "_baseURI",
          "type": "string"
        }
      ],
      "stateMutability": "nonpayable",
      "type": "constructor"
    },
    {
      "anonymous": false,
      "inputs": [
        {
          "indexed": true,
          "internalType": "address",
          "name": "owner",
          "type": "address"
        },
        {
          "indexed": true,
          "internalType": "address",
          "name": "approved",
          "type": "address"
        },
        {
          "indexed": true,
          "internalType": "uint256",
          "name": "tokenId",
          "type": "uint256"
        }
      ],
      "name": "Approval",
      "type": "event"
    },
    {
      "anonymous": false,
      "inputs": [
        {
          "indexed": true,
          "internalType": "address",
          "name": "owner",
          "type": "address"
        },
        {
          "indexed": true,
          "internalType": "address",
          "name": "operator",
          "type": "address"
        },
        {
          "indexed": false,
          "internalType": "bool",
          "name": "approved",
          "type": "bool"
        }
      ],
      "name": "ApprovalForAll",
      "type": "event"
    },
    {
      "anonymous": false,
      "inputs": [
        {
          "indexed": true,
          "internalType": "address",
          "name": "previousOwner",
          "type": "address"
        },
        {
          "indexed": true,
          "internalType": "address",
          "name": "newOwner",
          "type": "address"
        }
      ],
      "name": "OwnershipTransferred",
      "type": "event"
    },
    {
      "anonymous": false,
      "inputs": [
        {
          "indexed": true,
          "internalType": "address",
          "name": "mintedBy",
          "type": "address"
        },
        {
          "indexed": true,
          "internalType": "uint256",
          "name": "tokensNumber",
          "type": "uint256"
        }
      ],
      "name": "TokensMinted",
      "type": "event"
    },
    {
      "anonymous": false,
      "inputs": [
        {
          "indexed": true,
          "internalType": "address",
          "name": "from",
          "type": "address"
        },
        {
          "indexed": true,
          "internalType": "address",
          "name": "to",
          "type": "address"
        },
        {
          "indexed": true,
          "internalType": "uint256",
          "name": "tokenId",
          "type": "uint256"
        }
      ],
      "name": "Transfer",
      "type": "event"
    },
    {
      "anonymous": false,
      "inputs": [
        {
          "indexed": false,
          "internalType": "string",
          "name": "oldBaseUri",
          "type": "string"
        },
        {
          "indexed": false,
          "internalType": "string",
          "name": "newBaseUri",
          "type": "string"
        }
      ],
      "name": "baseUriUpdated",
      "type": "event"
    },
    {
      "anonymous": false,
      "inputs": [
        {
          "indexed": true,
          "internalType": "uint256",
          "name": "startingIndex",
          "type": "uint256"
        }
      ],
      "name": "startingIndexFinalized",
      "type": "event"
    },
    {
      "inputs": [],
      "name": "BuddiCollection",
      "outputs": [
        {
          "internalType": "contract IERC1155",
          "name": "",
          "type": "address"
        }
      ],
      "stateMutability": "view",
      "type": "function",
      "constant": true
    },
    {
      "inputs": [],
      "name": "MAX_PER_TRANSACTION",
      "outputs": [
        {
          "internalType": "uint256",
          "name": "",
          "type": "uint256"
        }
      ],
      "stateMutability": "view",
      "type": "function",
      "constant": true
    },
    {
      "inputs": [],
      "name": "MAX_SUPPLY",
      "outputs": [
        {
          "internalType": "uint256",
          "name": "",
          "type": "uint256"
        }
      ],
      "stateMutability": "view",
      "type": "function",
      "constant": true
    },
    {
      "inputs": [],
      "name": "MAX_SUPPLY_PER_DNA",
      "outputs": [
        {
          "internalType": "uint256",
          "name": "",
          "type": "uint256"
        }
      ],
      "stateMutability": "view",
      "type": "function",
      "constant": true
    },
    {
      "inputs": [],
      "name": "PROVENANCE_HASH",
      "outputs": [
        {
          "internalType": "string",
          "name": "",
          "type": "string"
        }
      ],
      "stateMutability": "view",
      "type": "function",
      "constant": true
    },
    {
      "inputs": [],
      "name": "ROYALTY_DENOMINATOR",
      "outputs": [
        {
          "internalType": "uint256",
          "name": "",
          "type": "uint256"
        }
      ],
      "stateMutability": "view",
      "type": "function",
      "constant": true
    },
    {
      "inputs": [],
      "name": "ROYALTY_SIZE",
      "outputs": [
        {
          "internalType": "uint256",
          "name": "",
          "type": "uint256"
        }
      ],
      "stateMutability": "view",
      "type": "function",
      "constant": true
    },
    {
      "inputs": [
        {
          "internalType": "address",
          "name": "",
          "type": "address"
        },
        {
          "internalType": "uint256",
          "name": "",
          "type": "uint256"
        }
      ],
      "name": "_mintPassesUsed",
      "outputs": [
        {
          "internalType": "uint256",
          "name": "",
          "type": "uint256"
        }
      ],
      "stateMutability": "view",
      "type": "function",
      "constant": true
    },
    {
      "inputs": [
        {
          "internalType": "uint256",
          "name": "",
          "type": "uint256"
        }
      ],
      "name": "_mintPassesUsedByDnaType",
      "outputs": [
        {
          "internalType": "uint256",
          "name": "",
          "type": "uint256"
        }
      ],
      "stateMutability": "view",
      "type": "function",
      "constant": true
    },
    {
      "inputs": [
        {
          "internalType": "address",
          "name": "",
          "type": "address"
        }
      ],
      "name": "_usedNonces",
      "outputs": [
        {
          "internalType": "uint256",
          "name": "",
          "type": "uint256"
        }
      ],
      "stateMutability": "view",
      "type": "function",
      "constant": true
    },
    {
      "inputs": [
        {
          "internalType": "address",
          "name": "to",
          "type": "address"
        },
        {
          "internalType": "uint256",
          "name": "tokenId",
          "type": "uint256"
        }
      ],
      "name": "approve",
      "outputs": [],
      "stateMutability": "nonpayable",
      "type": "function"
    },
    {
      "inputs": [
        {
          "internalType": "address",
          "name": "owner",
          "type": "address"
        }
      ],
      "name": "balanceOf",
      "outputs": [
        {
          "internalType": "uint256",
          "name": "",
          "type": "uint256"
        }
      ],
      "stateMutability": "view",
      "type": "function",
      "constant": true
    },
    {
      "inputs": [
        {
          "internalType": "uint256",
          "name": "tokenId",
          "type": "uint256"
        }
      ],
      "name": "getApproved",
      "outputs": [
        {
          "internalType": "address",
          "name": "",
          "type": "address"
        }
      ],
      "stateMutability": "view",
      "type": "function",
      "constant": true
    },
    {
      "inputs": [
        {
          "internalType": "address",
          "name": "owner",
          "type": "address"
        },
        {
          "internalType": "address",
          "name": "operator",
          "type": "address"
        }
      ],
      "name": "isApprovedForAll",
      "outputs": [
        {
          "internalType": "bool",
          "name": "",
          "type": "bool"
        }
      ],
      "stateMutability": "view",
      "type": "function",
      "constant": true
    },
    {
      "inputs": [],
      "name": "metadataFinalised",
      "outputs": [
        {
          "internalType": "bool",
          "name": "",
          "type": "bool"
        }
      ],
      "stateMutability": "view",
      "type": "function",
      "constant": true
    },
    {
      "inputs": [],
      "name": "metadataRevealed",
      "outputs": [
        {
          "internalType": "bool",
          "name": "",
          "type": "bool"
        }
      ],
      "stateMutability": "view",
      "type": "function",
      "constant": true
    },
    {
      "inputs": [],
      "name": "name",
      "outputs": [
        {
          "internalType": "string",
          "name": "",
          "type": "string"
        }
      ],
      "stateMutability": "view",
      "type": "function",
      "constant": true
    },
    {
      "inputs": [],
      "name": "owner",
      "outputs": [
        {
          "internalType": "address",
          "name": "",
          "type": "address"
        }
      ],
      "stateMutability": "view",
      "type": "function",
      "constant": true
    },
    {
      "inputs": [
        {
          "internalType": "uint256",
          "name": "tokenId",
          "type": "uint256"
        }
      ],
      "name": "ownerOf",
      "outputs": [
        {
          "internalType": "address",
          "name": "",
          "type": "address"
        }
      ],
      "stateMutability": "view",
      "type": "function",
      "constant": true
    },
    {
      "inputs": [],
      "name": "renounceOwnership",
      "outputs": [],
      "stateMutability": "nonpayable",
      "type": "function"
    },
    {
      "inputs": [],
      "name": "royaltyAddress",
      "outputs": [
        {
          "internalType": "address",
          "name": "",
          "type": "address"
        }
      ],
      "stateMutability": "view",
      "type": "function",
      "constant": true
    },
    {
      "inputs": [
        {
          "internalType": "address",
          "name": "from",
          "type": "address"
        },
        {
          "internalType": "address",
          "name": "to",
          "type": "address"
        },
        {
          "internalType": "uint256",
          "name": "tokenId",
          "type": "uint256"
        }
      ],
      "name": "safeTransferFrom",
      "outputs": [],
      "stateMutability": "nonpayable",
      "type": "function"
    },
    {
      "inputs": [
        {
          "internalType": "address",
          "name": "from",
          "type": "address"
        },
        {
          "internalType": "address",
          "name": "to",
          "type": "address"
        },
        {
          "internalType": "uint256",
          "name": "tokenId",
          "type": "uint256"
        },
        {
          "internalType": "bytes",
          "name": "_data",
          "type": "bytes"
        }
      ],
      "name": "safeTransferFrom",
      "outputs": [],
      "stateMutability": "nonpayable",
      "type": "function"
    },
    {
      "inputs": [],
      "name": "saleIsActive",
      "outputs": [
        {
          "internalType": "bool",
          "name": "",
          "type": "bool"
        }
      ],
      "stateMutability": "view",
      "type": "function",
      "constant": true
    },
    {
      "inputs": [
        {
          "internalType": "address",
          "name": "operator",
          "type": "address"
        },
        {
          "internalType": "bool",
          "name": "approved",
          "type": "bool"
        }
      ],
      "name": "setApprovalForAll",
      "outputs": [],
      "stateMutability": "nonpayable",
      "type": "function"
    },
    {
      "inputs": [],
      "name": "startingIndex",
      "outputs": [
        {
          "internalType": "uint256",
          "name": "",
          "type": "uint256"
        }
      ],
      "stateMutability": "view",
      "type": "function",
      "constant": true
    },
    {
      "inputs": [
        {
          "internalType": "bytes4",
          "name": "interfaceId",
          "type": "bytes4"
        }
      ],
      "name": "supportsInterface",
      "outputs": [
        {
          "internalType": "bool",
          "name": "",
          "type": "bool"
        }
      ],
      "stateMutability": "view",
      "type": "function",
      "constant": true
    },
    {
      "inputs": [],
      "name": "symbol",
      "outputs": [
        {
          "internalType": "string",
          "name": "",
          "type": "string"
        }
      ],
      "stateMutability": "view",
      "type": "function",
      "constant": true
    },
    {
      "inputs": [
        {
          "internalType": "uint256",
          "name": "index",
          "type": "uint256"
        }
      ],
      "name": "tokenByIndex",
      "outputs": [
        {
          "internalType": "uint256",
          "name": "",
          "type": "uint256"
        }
      ],
      "stateMutability": "view",
      "type": "function",
      "constant": true
    },
    {
      "inputs": [
        {
          "internalType": "address",
          "name": "owner",
          "type": "address"
        },
        {
          "internalType": "uint256",
          "name": "index",
          "type": "uint256"
        }
      ],
      "name": "tokenOfOwnerByIndex",
      "outputs": [
        {
          "internalType": "uint256",
          "name": "tokenId",
          "type": "uint256"
        }
      ],
      "stateMutability": "view",
      "type": "function",
      "constant": true
    },
    {
      "inputs": [],
      "name": "totalSupply",
      "outputs": [
        {
          "internalType": "uint256",
          "name": "",
          "type": "uint256"
        }
      ],
      "stateMutability": "view",
      "type": "function",
      "constant": true
    },
    {
      "inputs": [
        {
          "internalType": "address",
          "name": "from",
          "type": "address"
        },
        {
          "internalType": "address",
          "name": "to",
          "type": "address"
        },
        {
          "internalType": "uint256",
          "name": "tokenId",
          "type": "uint256"
        }
      ],
      "name": "transferFrom",
      "outputs": [],
      "stateMutability": "nonpayable",
      "type": "function"
    },
    {
      "inputs": [
        {
          "internalType": "address",
          "name": "newOwner",
          "type": "address"
        }
      ],
      "name": "transferOwnership",
      "outputs": [],
      "stateMutability": "nonpayable",
      "type": "function"
    },
    {
      "inputs": [
        {
          "internalType": "uint256[]",
          "name": "tokensToMint",
          "type": "uint256[]"
        }
      ],
      "name": "mintPassPurchase",
      "outputs": [],
      "stateMutability": "nonpayable",
      "type": "function"
    },
    {
      "inputs": [
        {
          "internalType": "uint256",
          "name": "_tokenId",
          "type": "uint256"
        },
        {
          "internalType": "uint256",
          "name": "_salePrice",
          "type": "uint256"
        }
      ],
      "name": "royaltyInfo",
      "outputs": [
        {
          "internalType": "address",
          "name": "receiver",
          "type": "address"
        },
        {
          "internalType": "uint256",
          "name": "royaltyAmount",
          "type": "uint256"
        }
      ],
      "stateMutability": "view",
      "type": "function",
      "constant": true
    },
    {
      "inputs": [
        {
          "internalType": "address",
          "name": "receiver",
          "type": "address"
        },
        {
          "internalType": "uint256",
          "name": "tokenId",
          "type": "uint256"
        }
      ],
      "name": "addRoyaltyReceiverForTokenId",
      "outputs": [],
      "stateMutability": "nonpayable",
      "type": "function"
    },
    {
      "inputs": [
        {
          "internalType": "bool",
          "name": "status",
          "type": "bool"
        }
      ],
      "name": "updateSaleStatus",
      "outputs": [],
      "stateMutability": "nonpayable",
      "type": "function"
    },
    {
      "inputs": [
        {
          "internalType": "string",
          "name": "newBaseURI",
          "type": "string"
        }
      ],
      "name": "setBaseURI",
      "outputs": [],
      "stateMutability": "nonpayable",
      "type": "function"
    },
    {
      "inputs": [
        {
          "internalType": "uint256",
          "name": "tokenId",
          "type": "uint256"
        }
      ],
      "name": "tokenURI",
      "outputs": [
        {
          "internalType": "string",
          "name": "",
          "type": "string"
        }
      ],
      "stateMutability": "view",
      "type": "function",
      "constant": true
    },
    {
      "inputs": [],
      "name": "revealMetadata",
      "outputs": [],
      "stateMutability": "nonpayable",
      "type": "function"
    },
    {
      "inputs": [],
      "name": "finalizeMetadata",
      "outputs": [],
      "stateMutability": "nonpayable",
      "type": "function"
    },
    {
      "inputs": [],
      "name": "withdraw",
      "outputs": [],
      "stateMutability": "nonpayable",
      "type": "function"
    }
  ],
  "bytecode": "0x60806040526102ee6010556127106011553480156200001d57600080fd5b5060405162004f3f38038062004f3f8339818101604052810190620000439190620003d9565b6040518060400160405280600c81526020017f42756464692052756e6e657200000000000000000000000000000000000000008152506040518060400160405280600381526020017f42554400000000000000000000000000000000000000000000000000000000008152508160009080519060200190620000c792919062000294565b508060019080519060200190620000e092919062000294565b50600060068190555050506200010b620000ff620001c660201b60201c565b620001ce60201b60201c565b6001600a8190555082600f60036101000a81548173ffffffffffffffffffffffffffffffffffffffff021916908373ffffffffffffffffffffffffffffffffffffffff16021790555081601360006101000a81548173ffffffffffffffffffffffffffffffffffffffff021916908373ffffffffffffffffffffffffffffffffffffffff160217905550671bc16d674ec8000060178190555080600d9080519060200190620001bc92919062000294565b5050505062000626565b600033905090565b6000600960009054906101000a900473ffffffffffffffffffffffffffffffffffffffff16905081600960006101000a81548173ffffffffffffffffffffffffffffffffffffffff021916908373ffffffffffffffffffffffffffffffffffffffff1602179055508173ffffffffffffffffffffffffffffffffffffffff168173ffffffffffffffffffffffffffffffffffffffff167f8be0079c531659141344cd1fd0a4f28419497f9722a3daafe3b4186f6b6457e060405160405180910390a35050565b828054620002a2906200051d565b90600052602060002090601f016020900481019282620002c6576000855562000312565b82601f10620002e157805160ff191683800117855562000312565b8280016001018555821562000312579182015b8281111562000311578251825591602001919060010190620002f4565b5b50905062000321919062000325565b5090565b5b808211156200034057600081600090555060010162000326565b5090565b60006200035b62000355846200047d565b62000454565b9050828152602081018484840111156200037a5762000379620005ec565b5b62000387848285620004e7565b509392505050565b600081519050620003a0816200060c565b92915050565b600082601f830112620003be57620003bd620005e7565b5b8151620003d084826020860162000344565b91505092915050565b600080600060608486031215620003f557620003f4620005f6565b5b600062000405868287016200038f565b935050602062000418868287016200038f565b925050604084015167ffffffffffffffff8111156200043c576200043b620005f1565b5b6200044a86828701620003a6565b9150509250925092565b60006200046062000473565b90506200046e828262000553565b919050565b6000604051905090565b600067ffffffffffffffff8211156200049b576200049a620005b8565b5b620004a682620005fb565b9050602081019050919050565b6000620004c082620004c7565b9050919050565b600073ffffffffffffffffffffffffffffffffffffffff82169050919050565b60005b8381101562000507578082015181840152602081019050620004ea565b8381111562000517576000848401525b50505050565b600060028204905060018216806200053657607f821691505b602082108114156200054d576200054c62000589565b5b50919050565b6200055e82620005fb565b810181811067ffffffffffffffff8211171562000580576200057f620005b8565b5b80604052505050565b7f4e487b7100000000000000000000000000000000000000000000000000000000600052602260045260246000fd5b7f4e487b7100000000000000000000000000000000000000000000000000000000600052604160045260246000fd5b600080fd5b600080fd5b600080fd5b600080fd5b6000601f19601f8301169050919050565b6200061781620004b3565b81146200062357600080fd5b50565b61490980620006366000396000f3fe608060405234801561001057600080fd5b506004361061025e5760003560e01c8063715018a611610146578063cb14eb87116100c3578063df173dba11610087578063df173dba14610714578063e985e9c514610732578063eb8d244414610762578063f2fde38b14610780578063f4a560a51461079c578063ff1b6556146107a65761025e565b8063cb14eb8714610680578063cb774d471461069e578063cd6a3ea5146106bc578063dc4d42b7146106d8578063dcc7ba24146106f65761025e565b8063a22cb4651161010a578063a22cb465146105ca578063ad2f852a146105e6578063afd0f76914610604578063b88d4fde14610634578063c87b56dd146106505761025e565b8063715018a61461055c5780637c86bcb8146105665780638da5cb5b146105845780639182a9df146105a257806395d89b41146105ac5761025e565b80632a55205a116101df5780634a0c7b46116101a35780634a0c7b46146104765780634f6ccce71461049257806355f804b3146104c25780636352211e146104de5780636ecb87b61461050e57806370a082311461052c5761025e565b80632a55205a146103d15780632f745c591461040257806332cb6b0c146104325780633ccfd60b1461045057806342842e0e1461045a5761025e565b80630a088949116102265780630a0889491461031b57806318160ddd146103375780631b0a417f14610355578063208897801461038557806323b872dd146103b55761025e565b806301ffc9a71461026357806306fdde0314610293578063081812fc146102b1578063095ea7b3146102e1578063099becfb146102fd575b600080fd5b61027d6004803603810190610278919061324e565b6107c4565b60405161028a919061392b565b60405180910390f35b61029b61083e565b6040516102a89190613961565b60405180910390f35b6102cb60048036038101906102c691906132f1565b6108d0565b6040516102d8919061389b565b60405180910390f35b6102fb60048036038101906102f69190613198565b610955565b005b610305610a6d565b6040516103129190613cfa565b60405180910390f35b61033560048036038101906103309190613221565b610a73565b005b61033f610b0c565b60405161034c9190613cfa565b60405180910390f35b61036f600480360381019061036a9190613198565b610b16565b60405161037c9190613cfa565b60405180910390f35b61039f600480360381019061039a91906132f1565b610b3b565b6040516103ac9190613cfa565b60405180910390f35b6103cf60048036038101906103ca9190613082565b610b53565b005b6103eb60048036038101906103e6919061334b565b610bb3565b6040516103f9929190613902565b60405180910390f35b61041c60048036038101906104179190613198565b610cba565b6040516104299190613cfa565b60405180910390f35b61043a610d6a565b6040516104479190613cfa565b60405180910390f35b610458610d70565b005b610474600480360381019061046f9190613082565b610e42565b005b610490600480360381019061048b91906131d8565b610e62565b005b6104ac60048036038101906104a791906132f1565b6113b7565b6040516104b99190613cfa565b60405180910390f35b6104dc60048036038101906104d791906132a8565b611426565b005b6104f860048036038101906104f391906132f1565b6115d5565b604051610505919061389b565b60405180910390f35b610516611687565b6040516105239190613946565b60405180910390f35b61054660048036038101906105419190613015565b6116ad565b6040516105539190613cfa565b60405180910390f35b610564611765565b005b61056e6117ed565b60405161057b919061392b565b60405180910390f35b61058c611800565b604051610599919061389b565b60405180910390f35b6105aa61182a565b005b6105b4611913565b6040516105c19190613961565b60405180910390f35b6105e460048036038101906105df9190613158565b6119a5565b005b6105ee611b26565b6040516105fb919061389b565b60405180910390f35b61061e60048036038101906106199190613015565b611b4c565b60405161062b9190613cfa565b60405180910390f35b61064e600480360381019061064991906130d5565b611b64565b005b61066a600480360381019061066591906132f1565b611bc6565b6040516106779190613961565b60405180910390f35b610688611ce9565b6040516106959190613cfa565b60405180910390f35b6106a6611cee565b6040516106b39190613cfa565b60405180910390f35b6106d660048036038101906106d19190613198565b611cf4565b005b6106e0611dc6565b6040516106ed9190613cfa565b60405180910390f35b6106fe611dcc565b60405161070b919061392b565b60405180910390f35b61071c611ddf565b6040516107299190613cfa565b60405180910390f35b61074c60048036038101906107479190613042565b611de5565b604051610759919061392b565b60405180910390f35b61076a611e79565b604051610777919061392b565b60405180910390f35b61079a60048036038101906107959190613015565b611e8c565b005b6107a4611f84565b005b6107ae61206d565b6040516107bb9190613961565b60405180910390f35b60007f780e9d63000000000000000000000000000000000000000000000000000000007bffffffffffffffffffffffffffffffffffffffffffffffffffffffff1916827bffffffffffffffffffffffffffffffffffffffffffffffffffffffff191614806108375750610836826120fb565b5b9050919050565b60606000805461084d90614021565b80601f016020809104026020016040519081016040528092919081815260200182805461087990614021565b80156108c65780601f1061089b576101008083540402835291602001916108c6565b820191906000526020600020905b8154815290600101906020018083116108a957829003601f168201915b5050505050905090565b60006108db826121dd565b61091a576040517f08c379a000000000000000000000000000000000000000000000000000000000815260040161091190613b9a565b60405180910390fd5b6007600083815260200190815260200160002060009054906101000a900473ffffffffffffffffffffffffffffffffffffffff169050919050565b6000610960826115d5565b90508073ffffffffffffffffffffffffffffffffffffffff168373ffffffffffffffffffffffffffffffffffffffff1614156109d1576040517f08c379a00000000000000000000000000000000000000000000000000000000081526004016109c890613c1a565b60405180910390fd5b8073ffffffffffffffffffffffffffffffffffffffff166109f0612249565b73ffffffffffffffffffffffffffffffffffffffff161480610a1f5750610a1e81610a19612249565b611de5565b5b610a5e576040517f08c379a0000000000000000000000000000000000000000000000000000000008152600401610a5590613afa565b60405180910390fd5b610a688383612251565b505050565b60105481565b610a7b612249565b73ffffffffffffffffffffffffffffffffffffffff16610a99611800565b73ffffffffffffffffffffffffffffffffffffffff1614610aef576040517f08c379a0000000000000000000000000000000000000000000000000000000008152600401610ae690613bba565b60405180910390fd5b80600f60006101000a81548160ff02191690831515021790555050565b6000600654905090565b6014602052816000526040600020602052806000526040600020600091509150505481565b60156020528060005260406000206000915090505481565b610b64610b5e612249565b8261230a565b610ba3576040517f08c379a0000000000000000000000000000000000000000000000000000000008152600401610b9a90613c5a565b60405180910390fd5b610bae8383836123e8565b505050565b6000806000610be1601154610bd36010548761259690919063ffffffff16565b6125ac90919063ffffffff16565b905060008073ffffffffffffffffffffffffffffffffffffffff166012600088815260200190815260200160002060009054906101000a900473ffffffffffffffffffffffffffffffffffffffff1673ffffffffffffffffffffffffffffffffffffffff161415610c7457600f60039054906101000a900473ffffffffffffffffffffffffffffffffffffffff16610ca9565b6012600087815260200190815260200160002060009054906101000a900473ffffffffffffffffffffffffffffffffffffffff165b905080829350935050509250929050565b6000610cc5836116ad565b8210610d06576040517f08c379a0000000000000000000000000000000000000000000000000000000008152600401610cfd906139fa565b60405180910390fd5b600560008473ffffffffffffffffffffffffffffffffffffffff1673ffffffffffffffffffffffffffffffffffffffff1681526020019081526020016000208281548110610d5757610d5661418b565b5b9060005260206000200154905092915050565b61271081565b610d78612249565b73ffffffffffffffffffffffffffffffffffffffff16610d96611800565b73ffffffffffffffffffffffffffffffffffffffff1614610dec576040517f08c379a0000000000000000000000000000000000000000000000000000000008152600401610de390613bba565b60405180910390fd5b6000479050610df9611800565b73ffffffffffffffffffffffffffffffffffffffff166108fc829081150290604051600060405180830381858888f19350505050158015610e3e573d6000803e3d6000fd5b5050565b610e5d83838360405180602001604052806000815250611b64565b505050565b6002600a541415610ea8576040517f08c379a0000000000000000000000000000000000000000000000000000000008152600401610e9f90613cba565b60405180910390fd5b6002600a81905550610eb8611800565b73ffffffffffffffffffffffffffffffffffffffff16610ed6612249565b73ffffffffffffffffffffffffffffffffffffffff1614610f4157600f60009054906101000a900460ff16610f40576040517f08c379a0000000000000000000000000000000000000000000000000000000008152600401610f3790613cda565b60405180910390fd5b5b6005815114610f85576040517f08c379a0000000000000000000000000000000000000000000000000000000008152600401610f7c906139ba565b60405180910390fd5b6000805b6005811015610fcd57828181518110610fa557610fa461418b565b5b602002602001015182610fb89190613e20565b91508080610fc590614084565b915050610f89565b506032811115611012576040517f08c379a0000000000000000000000000000000000000000000000000000000008152600401611009906139da565b60405180910390fd5b61271061102f82611021610b0c565b6125c290919063ffffffff16565b1115611070576040517f08c379a000000000000000000000000000000000000000000000000000000000815260040161106790613b5a565b60405180910390fd5b60005b600581101561135f57600061119a6014600061108d612249565b73ffffffffffffffffffffffffffffffffffffffff1673ffffffffffffffffffffffffffffffffffffffff168152602001908152602001600020600084815260200190815260200160002054601360009054906101000a900473ffffffffffffffffffffffffffffffffffffffff1673ffffffffffffffffffffffffffffffffffffffff1662fdd58e61111e612249565b866040518363ffffffff1660e01b815260040161113c929190613902565b60206040518083038186803b15801561115457600080fd5b505afa158015611168573d6000803e3d6000fd5b505050506040513d601f19601f8201168201806040525081019061118c919061331e565b6125d890919063ffffffff16565b9050808483815181106111b0576111af61418b565b5b602002602001015111156111f9576040517f08c379a00000000000000000000000000000000000000000000000000000000081526004016111f090613a5a565b60405180910390fd5b60006015600084815260200190815260200160002054836107d061121d9190613ea7565b6112279190613e20565b905084838151811061123c5761123b61418b565b5b602002602001015160146000611250612249565b73ffffffffffffffffffffffffffffffffffffffff1673ffffffffffffffffffffffffffffffffffffffff168152602001908152602001600020600085815260200190815260200160002060008282546112aa9190613e20565b9250508190555060005b8584815181106112c7576112c661418b565b5b6020026020010151811015611305576112f26112e1612249565b82846112ed9190613e20565b6125ee565b80806112fd90614084565b9150506112b4565b508483815181106113195761131861418b565b5b60200260200101516015600085815260200190815260200160002060008282546113439190613e20565b925050819055505050808061135790614084565b915050611073565b5080611369612249565b73ffffffffffffffffffffffffffffffffffffffff167f3f2c9d57c068687834f0de942a9babb9e5acab57d516d3480a3c16ee165a427360405160405180910390a3506001600a8190555050565b60006002805490508210611400576040517f08c379a00000000000000000000000000000000000000000000000000000000081526004016113f790613c9a565b60405180910390fd5b600282815481106114145761141361418b565b5b90600052602060002001549050919050565b61142e612249565b73ffffffffffffffffffffffffffffffffffffffff1661144c611800565b73ffffffffffffffffffffffffffffffffffffffff16146114a2576040517f08c379a000000000000000000000000000000000000000000000000000000000815260040161149990613bba565b60405180910390fd5b600f60029054906101000a900460ff16156114f2576040517f08c379a00000000000000000000000000000000000000000000000000000000081526004016114e990613c3a565b60405180910390fd5b6000600d805461150190614021565b80601f016020809104026020016040519081016040528092919081815260200182805461152d90614021565b801561157a5780601f1061154f5761010080835404028352916020019161157a565b820191906000526020600020905b81548152906001019060200180831161155d57829003601f168201915b5050505050905081600d9080519060200190611597929190612d76565b507f9f02bf4cb60375a0a74d238c76d002df33d30d2b85e9e677f03455a22d96c14d81836040516115c9929190613983565b60405180910390a15050565b6000806003600084815260200190815260200160002060009054906101000a900473ffffffffffffffffffffffffffffffffffffffff169050600073ffffffffffffffffffffffffffffffffffffffff168173ffffffffffffffffffffffffffffffffffffffff16141561167e576040517f08c379a000000000000000000000000000000000000000000000000000000000815260040161167590613b3a565b60405180910390fd5b80915050919050565b601360009054906101000a900473ffffffffffffffffffffffffffffffffffffffff1681565b60008073ffffffffffffffffffffffffffffffffffffffff168273ffffffffffffffffffffffffffffffffffffffff16141561171e576040517f08c379a000000000000000000000000000000000000000000000000000000000815260040161171590613b1a565b60405180910390fd5b600460008373ffffffffffffffffffffffffffffffffffffffff1673ffffffffffffffffffffffffffffffffffffffff168152602001908152602001600020549050919050565b61176d612249565b73ffffffffffffffffffffffffffffffffffffffff1661178b611800565b73ffffffffffffffffffffffffffffffffffffffff16146117e1576040517f08c379a00000000000000000000000000000000000000000000000000000000081526004016117d890613bba565b60405180910390fd5b6117eb600061260c565b565b600f60029054906101000a900460ff1681565b6000600960009054906101000a900473ffffffffffffffffffffffffffffffffffffffff16905090565b611832612249565b73ffffffffffffffffffffffffffffffffffffffff16611850611800565b73ffffffffffffffffffffffffffffffffffffffff16146118a6576040517f08c379a000000000000000000000000000000000000000000000000000000000815260040161189d90613bba565b60405180910390fd5b600f60019054906101000a900460ff16156118f6576040517f08c379a00000000000000000000000000000000000000000000000000000000081526004016118ed90613c3a565b60405180910390fd5b6001600f60016101000a81548160ff021916908315150217905550565b60606001805461192290614021565b80601f016020809104026020016040519081016040528092919081815260200182805461194e90614021565b801561199b5780601f106119705761010080835404028352916020019161199b565b820191906000526020600020905b81548152906001019060200180831161197e57829003601f168201915b5050505050905090565b6119ad612249565b73ffffffffffffffffffffffffffffffffffffffff168273ffffffffffffffffffffffffffffffffffffffff161415611a1b576040517f08c379a0000000000000000000000000000000000000000000000000000000008152600401611a1290613aba565b60405180910390fd5b8060086000611a28612249565b73ffffffffffffffffffffffffffffffffffffffff1673ffffffffffffffffffffffffffffffffffffffff16815260200190815260200160002060008473ffffffffffffffffffffffffffffffffffffffff1673ffffffffffffffffffffffffffffffffffffffff16815260200190815260200160002060006101000a81548160ff0219169083151502179055508173ffffffffffffffffffffffffffffffffffffffff16611ad5612249565b73ffffffffffffffffffffffffffffffffffffffff167f17307eab39ab6107e8899845ad3d59bd9653f200f220920489ca2b5937696c3183604051611b1a919061392b565b60405180910390a35050565b600f60039054906101000a900473ffffffffffffffffffffffffffffffffffffffff1681565b60166020528060005260406000206000915090505481565b611b75611b6f612249565b8361230a565b611bb4576040517f08c379a0000000000000000000000000000000000000000000000000000000008152600401611bab90613c5a565b60405180910390fd5b611bc0848484846126d2565b50505050565b6060611bd1826121dd565b611c10576040517f08c379a0000000000000000000000000000000000000000000000000000000008152600401611c0790613bfa565b60405180910390fd5b600f60019054906101000a900460ff16611cb657600d8054611c3190614021565b80601f0160208091040260200160405190810160405280929190818152602001828054611c5d90614021565b8015611caa5780601f10611c7f57610100808354040283529160200191611caa565b820191906000526020600020905b815481529060010190602001808311611c8d57829003601f168201915b50505050509050611ce4565b600d611cc18361272e565b604051602001611cd2929190613877565b60405160208183030381529060405290505b919050565b603281565b600e5481565b611cfc612249565b73ffffffffffffffffffffffffffffffffffffffff16611d1a611800565b73ffffffffffffffffffffffffffffffffffffffff1614611d70576040517f08c379a0000000000000000000000000000000000000000000000000000000008152600401611d6790613bba565b60405180910390fd5b816012600083815260200190815260200160002060006101000a81548173ffffffffffffffffffffffffffffffffffffffff021916908373ffffffffffffffffffffffffffffffffffffffff1602179055505050565b6107d081565b600f60019054906101000a900460ff1681565b60115481565b6000600860008473ffffffffffffffffffffffffffffffffffffffff1673ffffffffffffffffffffffffffffffffffffffff16815260200190815260200160002060008373ffffffffffffffffffffffffffffffffffffffff1673ffffffffffffffffffffffffffffffffffffffff16815260200190815260200160002060009054906101000a900460ff16905092915050565b600f60009054906101000a900460ff1681565b611e94612249565b73ffffffffffffffffffffffffffffffffffffffff16611eb2611800565b73ffffffffffffffffffffffffffffffffffffffff1614611f08576040517f08c379a0000000000000000000000000000000000000000000000000000000008152600401611eff90613bba565b60405180910390fd5b600073ffffffffffffffffffffffffffffffffffffffff168173ffffffffffffffffffffffffffffffffffffffff161415611f78576040517f08c379a0000000000000000000000000000000000000000000000000000000008152600401611f6f90613a3a565b60405180910390fd5b611f818161260c565b50565b611f8c612249565b73ffffffffffffffffffffffffffffffffffffffff16611faa611800565b73ffffffffffffffffffffffffffffffffffffffff1614612000576040517f08c379a0000000000000000000000000000000000000000000000000000000008152600401611ff790613bba565b60405180910390fd5b600f60029054906101000a900460ff1615612050576040517f08c379a000000000000000000000000000000000000000000000000000000000815260040161204790613c7a565b60405180910390fd5b6001600f60026101000a81548160ff021916908315150217905550565b600c805461207a90614021565b80601f01602080910402602001604051908101604052809291908181526020018280546120a690614021565b80156120f35780601f106120c8576101008083540402835291602001916120f3565b820191906000526020600020905b8154815290600101906020018083116120d657829003601f168201915b505050505081565b60007f80ac58cd000000000000000000000000000000000000000000000000000000007bffffffffffffffffffffffffffffffffffffffffffffffffffffffff1916827bffffffffffffffffffffffffffffffffffffffffffffffffffffffff191614806121c657507f5b5e139f000000000000000000000000000000000000000000000000000000007bffffffffffffffffffffffffffffffffffffffffffffffffffffffff1916827bffffffffffffffffffffffffffffffffffffffffffffffffffffffff1916145b806121d657506121d58261288f565b5b9050919050565b60008073ffffffffffffffffffffffffffffffffffffffff166003600084815260200190815260200160002060009054906101000a900473ffffffffffffffffffffffffffffffffffffffff1673ffffffffffffffffffffffffffffffffffffffff1614159050919050565b600033905090565b816007600083815260200190815260200160002060006101000a81548173ffffffffffffffffffffffffffffffffffffffff021916908373ffffffffffffffffffffffffffffffffffffffff160217905550808273ffffffffffffffffffffffffffffffffffffffff166122c4836115d5565b73ffffffffffffffffffffffffffffffffffffffff167f8c5be1e5ebec7d5bd14f71427d1e84f3dd0314c0f7b2291e5b200ac8c7c3b92560405160405180910390a45050565b6000612315826121dd565b612354576040517f08c379a000000000000000000000000000000000000000000000000000000000815260040161234b90613ada565b60405180910390fd5b600061235f836115d5565b90508073ffffffffffffffffffffffffffffffffffffffff168473ffffffffffffffffffffffffffffffffffffffff1614806123ce57508373ffffffffffffffffffffffffffffffffffffffff166123b6846108d0565b73ffffffffffffffffffffffffffffffffffffffff16145b806123df57506123de8185611de5565b5b91505092915050565b8273ffffffffffffffffffffffffffffffffffffffff16612408826115d5565b73ffffffffffffffffffffffffffffffffffffffff161461245e576040517f08c379a000000000000000000000000000000000000000000000000000000000815260040161245590613bda565b60405180910390fd5b600073ffffffffffffffffffffffffffffffffffffffff168273ffffffffffffffffffffffffffffffffffffffff1614156124ce576040517f08c379a00000000000000000000000000000000000000000000000000000000081526004016124c590613a9a565b60405180910390fd5b6124d98383836128f9565b6124e4600082612251565b816003600083815260200190815260200160002060006101000a81548173ffffffffffffffffffffffffffffffffffffffff021916908373ffffffffffffffffffffffffffffffffffffffff160217905550808273ffffffffffffffffffffffffffffffffffffffff168473ffffffffffffffffffffffffffffffffffffffff167fddf252ad1be2c89b69c2b068fc378daa952ba7f163c4a11628f55a4df523b3ef60405160405180910390a4505050565b600081836125a49190613ea7565b905092915050565b600081836125ba9190613e76565b905092915050565b600081836125d09190613e20565b905092915050565b600081836125e69190613f01565b905092915050565b6126088282604051806020016040528060008152506128fe565b5050565b6000600960009054906101000a900473ffffffffffffffffffffffffffffffffffffffff16905081600960006101000a81548173ffffffffffffffffffffffffffffffffffffffff021916908373ffffffffffffffffffffffffffffffffffffffff1602179055508173ffffffffffffffffffffffffffffffffffffffff168173ffffffffffffffffffffffffffffffffffffffff167f8be0079c531659141344cd1fd0a4f28419497f9722a3daafe3b4186f6b6457e060405160405180910390a35050565b6126dd8484846123e8565b6126e984848484612959565b612728576040517f08c379a000000000000000000000000000000000000000000000000000000000815260040161271f90613a1a565b60405180910390fd5b50505050565b60606000821415612776576040518060400160405280600181526020017f3000000000000000000000000000000000000000000000000000000000000000815250905061288a565b600082905060005b600082146127a857808061279190614084565b915050600a826127a19190613e76565b915061277e565b60008167ffffffffffffffff8111156127c4576127c36141ba565b5b6040519080825280601f01601f1916602001820160405280156127f65781602001600182028036833780820191505090505b5090505b600085146128835760018261280f9190613f01565b9150600a8561281e91906140cd565b603061282a9190613e20565b60f81b8183815181106128405761283f61418b565b5b60200101907effffffffffffffffffffffffffffffffffffffffffffffffffffffffffffff1916908160001a905350600a8561287c9190613e76565b94506127fa565b8093505050505b919050565b60007f01ffc9a7000000000000000000000000000000000000000000000000000000007bffffffffffffffffffffffffffffffffffffffffffffffffffffffff1916827bffffffffffffffffffffffffffffffffffffffffffffffffffffffff1916149050919050565b505050565b6129088383612af0565b6129156000848484612959565b612954576040517f08c379a000000000000000000000000000000000000000000000000000000000815260040161294b90613a1a565b60405180910390fd5b505050565b600061297a8473ffffffffffffffffffffffffffffffffffffffff16612d63565b15612ae3578373ffffffffffffffffffffffffffffffffffffffff1663150b7a026129a3612249565b8786866040518563ffffffff1660e01b81526004016129c594939291906138b6565b602060405180830381600087803b1580156129df57600080fd5b505af1925050508015612a1057506040513d601f19601f82011682018060405250810190612a0d919061327b565b60015b612a93573d8060008114612a40576040519150601f19603f3d011682016040523d82523d6000602084013e612a45565b606091505b50600081511415612a8b576040517f08c379a0000000000000000000000000000000000000000000000000000000008152600401612a8290613a1a565b60405180910390fd5b805181602001fd5b63150b7a0260e01b7bffffffffffffffffffffffffffffffffffffffffffffffffffffffff1916817bffffffffffffffffffffffffffffffffffffffffffffffffffffffff191614915050612ae8565b600190505b949350505050565b600073ffffffffffffffffffffffffffffffffffffffff168273ffffffffffffffffffffffffffffffffffffffff161415612b60576040517f08c379a0000000000000000000000000000000000000000000000000000000008152600401612b5790613b7a565b60405180910390fd5b612b69816121dd565b15612ba9576040517f08c379a0000000000000000000000000000000000000000000000000000000008152600401612ba090613a7a565b60405180910390fd5b612bb5600083836128f9565b816003600083815260200190815260200160002060006101000a81548173ffffffffffffffffffffffffffffffffffffffff021916908373ffffffffffffffffffffffffffffffffffffffff1602179055506002819080600181540180825580915050600190039060005260206000200160009091909190915055600560008373ffffffffffffffffffffffffffffffffffffffff1673ffffffffffffffffffffffffffffffffffffffff168152602001908152602001600020819080600181540180825580915050600190039060005260206000200160009091909190915055600460008373ffffffffffffffffffffffffffffffffffffffff1673ffffffffffffffffffffffffffffffffffffffff1681526020019081526020016000206000815480929190612ce690614084565b919050555060066000815480929190612cfe90614084565b9190505550808273ffffffffffffffffffffffffffffffffffffffff16600073ffffffffffffffffffffffffffffffffffffffff167fddf252ad1be2c89b69c2b068fc378daa952ba7f163c4a11628f55a4df523b3ef60405160405180910390a45050565b600080823b905060008111915050919050565b828054612d8290614021565b90600052602060002090601f016020900481019282612da45760008555612deb565b82601f10612dbd57805160ff1916838001178555612deb565b82800160010185558215612deb579182015b82811115612dea578251825591602001919060010190612dcf565b5b509050612df89190612dfc565b5090565b5b80821115612e15576000816000905550600101612dfd565b5090565b6000612e2c612e2784613d3a565b613d15565b90508083825260208201905082856020860282011115612e4f57612e4e6141ee565b5b60005b85811015612e7f5781612e658882612feb565b845260208401935060208301925050600181019050612e52565b5050509392505050565b6000612e9c612e9784613d66565b613d15565b905082815260208101848484011115612eb857612eb76141f3565b5b612ec3848285613fdf565b509392505050565b6000612ede612ed984613d97565b613d15565b905082815260208101848484011115612efa57612ef96141f3565b5b612f05848285613fdf565b509392505050565b600081359050612f1c81614877565b92915050565b600082601f830112612f3757612f366141e9565b5b8135612f47848260208601612e19565b91505092915050565b600081359050612f5f8161488e565b92915050565b600081359050612f74816148a5565b92915050565b600081519050612f89816148a5565b92915050565b600082601f830112612fa457612fa36141e9565b5b8135612fb4848260208601612e89565b91505092915050565b600082601f830112612fd257612fd16141e9565b5b8135612fe2848260208601612ecb565b91505092915050565b600081359050612ffa816148bc565b92915050565b60008151905061300f816148bc565b92915050565b60006020828403121561302b5761302a6141fd565b5b600061303984828501612f0d565b91505092915050565b60008060408385031215613059576130586141fd565b5b600061306785828601612f0d565b925050602061307885828601612f0d565b9150509250929050565b60008060006060848603121561309b5761309a6141fd565b5b60006130a986828701612f0d565b93505060206130ba86828701612f0d565b92505060406130cb86828701612feb565b9150509250925092565b600080600080608085870312156130ef576130ee6141fd565b5b60006130fd87828801612f0d565b945050602061310e87828801612f0d565b935050604061311f87828801612feb565b925050606085013567ffffffffffffffff8111156131405761313f6141f8565b5b61314c87828801612f8f565b91505092959194509250565b6000806040838503121561316f5761316e6141fd565b5b600061317d85828601612f0d565b925050602061318e85828601612f50565b9150509250929050565b600080604083850312156131af576131ae6141fd565b5b60006131bd85828601612f0d565b92505060206131ce85828601612feb565b9150509250929050565b6000602082840312156131ee576131ed6141fd565b5b600082013567ffffffffffffffff81111561320c5761320b6141f8565b5b61321884828501612f22565b91505092915050565b600060208284031215613237576132366141fd565b5b600061324584828501612f50565b91505092915050565b600060208284031215613264576132636141fd565b5b600061327284828501612f65565b91505092915050565b600060208284031215613291576132906141fd565b5b600061329f84828501612f7a565b91505092915050565b6000602082840312156132be576132bd6141fd565b5b600082013567ffffffffffffffff8111156132dc576132db6141f8565b5b6132e884828501612fbd565b91505092915050565b600060208284031215613307576133066141fd565b5b600061331584828501612feb565b91505092915050565b600060208284031215613334576133336141fd565b5b600061334284828501613000565b91505092915050565b60008060408385031215613362576133616141fd565b5b600061337085828601612feb565b925050602061338185828601612feb565b9150509250929050565b61339481613f35565b82525050565b6133a381613f47565b82525050565b60006133b482613ddd565b6133be8185613df3565b93506133ce818560208601613fee565b6133d781614202565b840191505092915050565b6133eb81613fa9565b82525050565b60006133fc82613de8565b6134068185613e04565b9350613416818560208601613fee565b61341f81614202565b840191505092915050565b600061343582613de8565b61343f8185613e15565b935061344f818560208601613fee565b80840191505092915050565b6000815461346881614021565b6134728186613e15565b9450600182166000811461348d576001811461349e576134d1565b60ff198316865281860193506134d1565b6134a785613dc8565b60005b838110156134c9578154818901526001820191506020810190506134aa565b838801955050505b50505092915050565b60006134e7601683613e04565b91506134f282614213565b602082019050919050565b600061350a602a83613e04565b91506135158261423c565b604082019050919050565b600061352d602b83613e04565b91506135388261428b565b604082019050919050565b6000613550603283613e04565b915061355b826142da565b604082019050919050565b6000613573602683613e04565b915061357e82614329565b604082019050919050565b6000613596601183613e04565b91506135a182614378565b602082019050919050565b60006135b9601c83613e04565b91506135c4826143a1565b602082019050919050565b60006135dc602483613e04565b91506135e7826143ca565b604082019050919050565b60006135ff601983613e04565b915061360a82614419565b602082019050919050565b6000613622602c83613e04565b915061362d82614442565b604082019050919050565b6000613645603883613e04565b915061365082614491565b604082019050919050565b6000613668602a83613e04565b9150613673826144e0565b604082019050919050565b600061368b602983613e04565b91506136968261452f565b604082019050919050565b60006136ae601c83613e04565b91506136b98261457e565b602082019050919050565b60006136d1602083613e04565b91506136dc826145a7565b602082019050919050565b60006136f4602c83613e04565b91506136ff826145d0565b604082019050919050565b6000613717602083613e04565b91506137228261461f565b602082019050919050565b600061373a602983613e04565b915061374582614648565b604082019050919050565b600061375d602f83613e04565b915061376882614697565b604082019050919050565b6000613780602183613e04565b915061378b826146e6565b604082019050919050565b60006137a3601983613e04565b91506137ae82614735565b602082019050919050565b60006137c6603183613e04565b91506137d18261475e565b604082019050919050565b60006137e9601a83613e04565b91506137f4826147ad565b602082019050919050565b600061380c602c83613e04565b9150613817826147d6565b604082019050919050565b600061382f601f83613e04565b915061383a82614825565b602082019050919050565b6000613852601c83613e04565b915061385d8261484e565b602082019050919050565b61387181613f9f565b82525050565b6000613883828561345b565b915061388f828461342a565b91508190509392505050565b60006020820190506138b0600083018461338b565b92915050565b60006080820190506138cb600083018761338b565b6138d8602083018661338b565b6138e56040830185613868565b81810360608301526138f781846133a9565b905095945050505050565b6000604082019050613917600083018561338b565b6139246020830184613868565b9392505050565b6000602082019050613940600083018461339a565b92915050565b600060208201905061395b60008301846133e2565b92915050565b6000602082019050818103600083015261397b81846133f1565b905092915050565b6000604082019050818103600083015261399d81856133f1565b905081810360208301526139b181846133f1565b90509392505050565b600060208201905081810360008301526139d3816134da565b9050919050565b600060208201905081810360008301526139f3816134fd565b9050919050565b60006020820190508181036000830152613a1381613520565b9050919050565b60006020820190508181036000830152613a3381613543565b9050919050565b60006020820190508181036000830152613a5381613566565b9050919050565b60006020820190508181036000830152613a7381613589565b9050919050565b60006020820190508181036000830152613a93816135ac565b9050919050565b60006020820190508181036000830152613ab3816135cf565b9050919050565b60006020820190508181036000830152613ad3816135f2565b9050919050565b60006020820190508181036000830152613af381613615565b9050919050565b60006020820190508181036000830152613b1381613638565b9050919050565b60006020820190508181036000830152613b338161365b565b9050919050565b60006020820190508181036000830152613b538161367e565b9050919050565b60006020820190508181036000830152613b73816136a1565b9050919050565b60006020820190508181036000830152613b93816136c4565b9050919050565b60006020820190508181036000830152613bb3816136e7565b9050919050565b60006020820190508181036000830152613bd38161370a565b9050919050565b60006020820190508181036000830152613bf38161372d565b9050919050565b60006020820190508181036000830152613c1381613750565b9050919050565b60006020820190508181036000830152613c3381613773565b9050919050565b60006020820190508181036000830152613c5381613796565b9050919050565b60006020820190508181036000830152613c73816137b9565b9050919050565b60006020820190508181036000830152613c93816137dc565b9050919050565b60006020820190508181036000830152613cb3816137ff565b9050919050565b60006020820190508181036000830152613cd381613822565b9050919050565b60006020820190508181036000830152613cf381613845565b9050919050565b6000602082019050613d0f6000830184613868565b92915050565b6000613d1f613d30565b9050613d2b8282614053565b919050565b6000604051905090565b600067ffffffffffffffff821115613d5557613d546141ba565b5b602082029050602081019050919050565b600067ffffffffffffffff821115613d8157613d806141ba565b5b613d8a82614202565b9050602081019050919050565b600067ffffffffffffffff821115613db257613db16141ba565b5b613dbb82614202565b9050602081019050919050565b60008190508160005260206000209050919050565b600081519050919050565b600081519050919050565b600082825260208201905092915050565b600082825260208201905092915050565b600081905092915050565b6000613e2b82613f9f565b9150613e3683613f9f565b9250827fffffffffffffffffffffffffffffffffffffffffffffffffffffffffffffffff03821115613e6b57613e6a6140fe565b5b828201905092915050565b6000613e8182613f9f565b9150613e8c83613f9f565b925082613e9c57613e9b61412d565b5b828204905092915050565b6000613eb282613f9f565b9150613ebd83613f9f565b9250817fffffffffffffffffffffffffffffffffffffffffffffffffffffffffffffffff0483118215151615613ef657613ef56140fe565b5b828202905092915050565b6000613f0c82613f9f565b9150613f1783613f9f565b925082821015613f2a57613f296140fe565b5b828203905092915050565b6000613f4082613f7f565b9050919050565b60008115159050919050565b60007fffffffff0000000000000000000000000000000000000000000000000000000082169050919050565b600073ffffffffffffffffffffffffffffffffffffffff82169050919050565b6000819050919050565b6000613fb482613fbb565b9050919050565b6000613fc682613fcd565b9050919050565b6000613fd882613f7f565b9050919050565b82818337600083830152505050565b60005b8381101561400c578082015181840152602081019050613ff1565b8381111561401b576000848401525b50505050565b6000600282049050600182168061403957607f821691505b6020821081141561404d5761404c61415c565b5b50919050565b61405c82614202565b810181811067ffffffffffffffff8211171561407b5761407a6141ba565b5b80604052505050565b600061408f82613f9f565b91507fffffffffffffffffffffffffffffffffffffffffffffffffffffffffffffffff8214156140c2576140c16140fe565b5b600182019050919050565b60006140d882613f9f565b91506140e383613f9f565b9250826140f3576140f261412d565b5b828206905092915050565b7f4e487b7100000000000000000000000000000000000000000000000000000000600052601160045260246000fd5b7f4e487b7100000000000000000000000000000000000000000000000000000000600052601260045260246000fd5b7f4e487b7100000000000000000000000000000000000000000000000000000000600052602260045260246000fd5b7f4e487b7100000000000000000000000000000000000000000000000000000000600052603260045260246000fd5b7f4e487b7100000000000000000000000000000000000000000000000000000000600052604160045260246000fd5b600080fd5b600080fd5b600080fd5b600080fd5b600080fd5b6000601f19601f8301169050919050565b7f57726f6e67205075726368617365205265717565737400000000000000000000600082015250565b7f596f752063616e206d696e74206d617820353020746f6b656e7320706572207460008201527f72616e73616374696f6e00000000000000000000000000000000000000000000602082015250565b7f455243373231456e756d657261626c653a206f776e657220696e646578206f7560008201527f74206f6620626f756e6473000000000000000000000000000000000000000000602082015250565b7f4552433732313a207472616e7366657220746f206e6f6e20455243373231526560008201527f63656976657220696d706c656d656e7465720000000000000000000000000000602082015250565b7f4f776e61626c653a206e6577206f776e657220697320746865207a65726f206160008201527f6464726573730000000000000000000000000000000000000000000000000000602082015250565b7f4e6f7420656e6f75676820706173736573000000000000000000000000000000600082015250565b7f4552433732313a20746f6b656e20616c7265616479206d696e74656400000000600082015250565b7f4552433732313a207472616e7366657220746f20746865207a65726f2061646460008201527f7265737300000000000000000000000000000000000000000000000000000000602082015250565b7f4552433732313a20617070726f766520746f2063616c6c657200000000000000600082015250565b7f4552433732313a206f70657261746f7220717565727920666f72206e6f6e657860008201527f697374656e7420746f6b656e0000000000000000000000000000000000000000602082015250565b7f4552433732313a20617070726f76652063616c6c6572206973206e6f74206f7760008201527f6e6572206e6f7220617070726f76656420666f7220616c6c0000000000000000602082015250565b7f4552433732313a2062616c616e636520717565727920666f7220746865207a6560008201527f726f206164647265737300000000000000000000000000000000000000000000602082015250565b7f4552433732313a206f776e657220717565727920666f72206e6f6e657869737460008201527f656e7420746f6b656e0000000000000000000000000000000000000000000000602082015250565b7f4d696e74206d6f7265204275646469207468617420616c6c6f77656400000000600082015250565b7f4552433732313a206d696e7420746f20746865207a65726f2061646472657373600082015250565b7f4552433732313a20617070726f76656420717565727920666f72206e6f6e657860008201527f697374656e7420746f6b656e0000000000000000000000000000000000000000602082015250565b7f4f776e61626c653a2063616c6c6572206973206e6f7420746865206f776e6572600082015250565b7f4552433732313a207472616e73666572206f6620746f6b656e2074686174206960008201527f73206e6f74206f776e0000000000000000000000000000000000000000000000602082015250565b7f4552433732314d657461646174613a2055524920717565727920666f72206e6f60008201527f6e6578697374656e7420746f6b656e0000000000000000000000000000000000602082015250565b7f4552433732313a20617070726f76616c20746f2063757272656e74206f776e6560008201527f7200000000000000000000000000000000000000000000000000000000000000602082015250565b7f4d6574616461746120616c72656164792072657665616c656400000000000000600082015250565b7f4552433732313a207472616e736665722063616c6c6572206973206e6f74206f60008201527f776e6572206e6f7220617070726f766564000000000000000000000000000000602082015250565b7f4d6574616461746120616c72656164792066696e616c69736564000000000000600082015250565b7f455243373231456e756d657261626c653a20676c6f62616c20696e646578206f60008201527f7574206f6620626f756e64730000000000000000000000000000000000000000602082015250565b7f5265656e7472616e637947756172643a207265656e7472616e742063616c6c00600082015250565b7f546865206d696e7420686173206e6f7420737461727465642079657400000000600082015250565b61488081613f35565b811461488b57600080fd5b50565b61489781613f47565b81146148a257600080fd5b50565b6148ae81613f53565b81146148b957600080fd5b50565b6148c581613f9f565b81146148d057600080fd5b5056fea26469706673582212209aabeae19711d8363d9459e3f28afba0c431a08af29b8e1d7892e612566227eb64736f6c63430008070033",
  "immutableReferences": {},
  "source": "// SPDX-License-Identifier: MIT\n\npragma solidity ^0.8.7;\n\nimport \"./utils/ERC721Enumerable.sol\";\nimport \"@openzeppelin/contracts/token/ERC1155/IERC1155.sol\";\nimport \"@openzeppelin/contracts/access/Ownable.sol\";\nimport \"@openzeppelin/contracts/utils/Context.sol\";\nimport \"@openzeppelin/contracts/utils/math/SafeMath.sol\";\nimport \"@openzeppelin/contracts/utils/introspection/ERC165.sol\";\nimport \"@openzeppelin/contracts/security/ReentrancyGuard.sol\";\nimport \"@openzeppelin/contracts/utils/cryptography/ECDSA.sol\";\n\n/*\n\n\n\n\n\n\n\n\n\n\n\n\n\n\n * @dev Implementation of https://eips.ethereum.org/EIPS/eip-721[ERC721] Non-Fungible Token Standard, including\n * the Metadata extension, but not including the Enumerable extension, which is available separately as\n * {ERC721Enumerable}.\n */\ncontract BuddiNFT is\n    Context,\n    ERC721Enumerable,\n    Ownable,\n    ReentrancyGuard\n{\n    using SafeMath for uint256;\n    using Strings for uint256;\n    using ECDSA for bytes32;\n\n    // currentSupply\n    uint256 private currentSupply;\n\n    // Provenance hash\n    string public PROVENANCE_HASH;\n\n    // Base URI\n    string private _buddiBaseURI;\n\n    // Starting Index\n    uint256 public startingIndex;\n\n    // Max number of NFTs\n    uint256 public constant MAX_SUPPLY = 10000;\n    uint256 public constant MAX_PER_TRANSACTION = 50;\n    uint256 public constant MAX_SUPPLY_PER_DNA = 2000;\n\n    bool public saleIsActive;\n    bool public metadataRevealed;\n    bool public metadataFinalised;\n\n    // Royalty info\n    address public royaltyAddress;\n    uint256 public ROYALTY_SIZE = 750;\n    uint256 public ROYALTY_DENOMINATOR = 10000;\n    mapping(uint256 => address) private _royaltyReceivers;\n\n    // Mint pass contracts\n    IERC1155 public BuddiCollection;\n\n    // Stores the number of minted tokens through mintpasses\n    mapping(address => mapping(uint => uint256)) public _mintPassesUsed;\n    mapping(uint => uint256) public _mintPassesUsedByDnaType; // total nfts by types\n    mapping(address => uint256) public _usedNonces;\n\n    //   bytes32 internal keyHash;\n    uint256 internal fee;\n\n    event TokensMinted(address indexed mintedBy, uint256 indexed tokensNumber);\n\n    event startingIndexFinalized(uint256 indexed startingIndex);\n\n    event baseUriUpdated(string oldBaseUri, string newBaseUri);\n\n    constructor(\n        address _royaltyAddress,\n        address _buddiCollection,\n        string memory _baseURI\n    ) ERC721(\"Buddi Runner\", \"BUD\") {\n        royaltyAddress = _royaltyAddress;\n\n        BuddiCollection = IERC1155(_buddiCollection);\n\n        fee = 2 * 10**18;\n\n        _buddiBaseURI = _baseURI;\n    }\n\n    function mintPassPurchase(uint256 [] memory tokensToMint)\n        public\n        nonReentrant\n    {\n        if (_msgSender() != owner())\n            require(saleIsActive, \"The mint has not started yet\");\n\n        require(tokensToMint.length == 5, \"Wrong Purchase Request\");\n\n        uint256 totalMintCount = 0;\n\n        for (uint dnaType = 0; dnaType < 5; dnaType++ ) {\n            totalMintCount += tokensToMint[dnaType];\n        }\n        require(\n            totalMintCount <= MAX_PER_TRANSACTION,\n            \"You can mint max 50 tokens per transaction\"\n        );\n        require(\n            totalSupply().add(totalMintCount) <= MAX_SUPPLY,\n            \"Mint more Buddi that allowed\"\n        );\n\n        for (uint dnaType = 0; dnaType < 5; dnaType++) {\n            uint256 passesLeft = BuddiCollection\n                .balanceOf(_msgSender(), dnaType)\n                .sub(_mintPassesUsed[_msgSender()][dnaType]);\n\n            require(\n                tokensToMint[dnaType] <= passesLeft,\n                \"Not enough passes\"\n            );\n\n            uint256 mintStartTokenId = MAX_SUPPLY_PER_DNA * dnaType + _mintPassesUsedByDnaType[dnaType];\n            _mintPassesUsed[_msgSender()][dnaType] += tokensToMint[dnaType];\n            for (uint256 i = 0; i < tokensToMint[dnaType]; i++) {\n                _safeMint(_msgSender(), mintStartTokenId + i );\n            }\n            _mintPassesUsedByDnaType[dnaType] += tokensToMint[dnaType];\n        }\n\n        emit TokensMinted(_msgSender(), totalMintCount);\n    }\n\n    function royaltyInfo(uint256 _tokenId, uint256 _salePrice)\n        external\n        view\n        returns (address receiver, uint256 royaltyAmount)\n    {\n        uint256 amount = _salePrice.mul(ROYALTY_SIZE).div(ROYALTY_DENOMINATOR);\n        address royaltyReceiver = _royaltyReceivers[_tokenId] != address(0)\n            ? _royaltyReceivers[_tokenId]\n            : royaltyAddress;\n        return (royaltyReceiver, amount);\n    }\n\n    function addRoyaltyReceiverForTokenId(address receiver, uint256 tokenId)\n        public\n        onlyOwner\n    {\n        _royaltyReceivers[tokenId] = receiver;\n    }\n\n    function updateSaleStatus(bool status) public onlyOwner {\n        saleIsActive = status;\n    }\n\n    function setBaseURI(string memory newBaseURI) public onlyOwner {\n        require(!metadataFinalised, \"Metadata already revealed\");\n\n        string memory currentURI = _buddiBaseURI;\n        _buddiBaseURI = newBaseURI;\n        emit baseUriUpdated(currentURI, newBaseURI);\n    }\n\n    function tokenURI(uint256 tokenId)\n        external\n        view\n        virtual\n        override\n        returns (string memory)\n    {\n        require(\n            _exists(tokenId),\n            \"ERC721Metadata: URI query for nonexistent token\"\n        );\n\n        if (!metadataRevealed) return _buddiBaseURI;\n        return string(abi.encodePacked(_buddiBaseURI, tokenId.toString()));\n    }\n\n    function revealMetadata() public onlyOwner {\n        require(!metadataRevealed, \"Metadata already revealed\");\n        metadataRevealed = true;\n    }\n\n    function finalizeMetadata() public onlyOwner {\n        require(!metadataFinalised, \"Metadata already finalised\");\n        metadataFinalised = true;\n    }\n\n    function withdraw() external onlyOwner {\n        uint256 balance = address(this).balance;\n        payable(owner()).transfer(balance);\n    }\n}\n",
  "sourcePath": "/home/osboxes/Documents/Buddie/buddi-nft/contracts/BuddiNFT.sol",
  "compiler": {
    "name": "solc",
    "version": "0.8.7+commit.e28d00a7.Emscripten.clang"
  },
  "schemaVersion": "3.4.5",
  "updatedAt": "2022-06-10T17:52:49.821Z",
  "networkType": "ethereum",
  "devdoc": {
    "kind": "dev",
    "methods": {
      "approve(address,uint256)": {
        "details": "See {IERC721-approve}."
      },
      "balanceOf(address)": {
        "details": "See {IERC721-balanceOf}."
      },
      "getApproved(uint256)": {
        "details": "See {IERC721-getApproved}."
      },
      "isApprovedForAll(address,address)": {
        "details": "See {IERC721-isApprovedForAll}."
      },
      "name()": {
        "details": "See {IERC721Metadata-name}."
      },
      "owner()": {
        "details": "Returns the address of the current owner."
      },
      "ownerOf(uint256)": {
        "details": "See {IERC721-ownerOf}."
      },
      "renounceOwnership()": {
        "details": "Leaves the contract without owner. It will not be possible to call `onlyOwner` functions anymore. Can only be called by the current owner. NOTE: Renouncing ownership will leave the contract without an owner, thereby removing any functionality that is only available to the owner."
      },
      "safeTransferFrom(address,address,uint256)": {
        "details": "See {IERC721-safeTransferFrom}."
      },
      "safeTransferFrom(address,address,uint256,bytes)": {
        "details": "See {IERC721-safeTransferFrom}."
      },
      "setApprovalForAll(address,bool)": {
        "details": "See {IERC721-setApprovalForAll}."
      },
      "supportsInterface(bytes4)": {
        "details": "See {IERC165-supportsInterface}."
      },
      "symbol()": {
        "details": "See {IERC721Metadata-symbol}."
      },
      "tokenByIndex(uint256)": {
        "details": "See {IERC721Enumerable-tokenByIndex}."
      },
      "tokenOfOwnerByIndex(address,uint256)": {
        "details": "See {IERC721Enumerable-tokenOfOwnerByIndex}."
      },
      "tokenURI(uint256)": {
        "details": "Returns the Uniform Resource Identifier (URI) for `tokenId` token."
      },
      "totalSupply()": {
        "details": "See {IERC721Enumerable-totalSupply}."
      },
      "transferFrom(address,address,uint256)": {
        "details": "See {IERC721-transferFrom}."
      },
      "transferOwnership(address)": {
        "details": "Transfers ownership of the contract to a new account (`newOwner`). Can only be called by the current owner."
      }
    },
    "version": 1
  },
  "userdoc": {
    "kind": "user",
    "methods": {},
    "version": 1
  }
}