{
  "contractName": "DnaCollection",
  "abi": [
    {
      "inputs": [
        {
          "internalType": "string",
          "name": "_name",
          "type": "string"
        },
        {
          "internalType": "string",
          "name": "_symbol",
          "type": "string"
        },
        {
          "internalType": "string",
          "name": "_uri",
          "type": "string"
        },
        {
          "internalType": "address",
          "name": "_signer",
          "type": "address"
        },
        {
          "internalType": "address",
          "name": "_royalty",
          "type": "address"
        }
      ],
      "stateMutability": "nonpayable",
      "type": "constructor"
    },
    {
      "anonymous": false,
      "inputs": [
        {
          "indexed": true,
          "internalType": "address",
          "name": "account",
          "type": "address"
        },
        {
          "indexed": true,
          "internalType": "address",
          "name": "operator",
          "type": "address"
        },
        {
          "indexed": false,
          "internalType": "bool",
          "name": "approved",
          "type": "bool"
        }
      ],
      "name": "ApprovalForAll",
      "type": "event"
    },
    {
      "anonymous": false,
      "inputs": [
        {
          "indexed": true,
          "internalType": "address",
          "name": "previousOwner",
          "type": "address"
        },
        {
          "indexed": true,
          "internalType": "address",
          "name": "newOwner",
          "type": "address"
        }
      ],
      "name": "OwnershipTransferred",
      "type": "event"
    },
    {
      "anonymous": false,
      "inputs": [
        {
          "indexed": false,
          "internalType": "address",
          "name": "mintedBy",
          "type": "address"
        },
        {
          "indexed": false,
          "internalType": "uint256",
          "name": "tokensNumber",
          "type": "uint256"
        }
      ],
      "name": "TokensMinted",
      "type": "event"
    },
    {
      "anonymous": false,
      "inputs": [
        {
          "indexed": true,
          "internalType": "address",
          "name": "operator",
          "type": "address"
        },
        {
          "indexed": true,
          "internalType": "address",
          "name": "from",
          "type": "address"
        },
        {
          "indexed": true,
          "internalType": "address",
          "name": "to",
          "type": "address"
        },
        {
          "indexed": false,
          "internalType": "uint256[]",
          "name": "ids",
          "type": "uint256[]"
        },
        {
          "indexed": false,
          "internalType": "uint256[]",
          "name": "values",
          "type": "uint256[]"
        }
      ],
      "name": "TransferBatch",
      "type": "event"
    },
    {
      "anonymous": false,
      "inputs": [
        {
          "indexed": true,
          "internalType": "address",
          "name": "operator",
          "type": "address"
        },
        {
          "indexed": true,
          "internalType": "address",
          "name": "from",
          "type": "address"
        },
        {
          "indexed": true,
          "internalType": "address",
          "name": "to",
          "type": "address"
        },
        {
          "indexed": false,
          "internalType": "uint256",
          "name": "id",
          "type": "uint256"
        },
        {
          "indexed": false,
          "internalType": "uint256",
          "name": "value",
          "type": "uint256"
        }
      ],
      "name": "TransferSingle",
      "type": "event"
    },
    {
      "anonymous": false,
      "inputs": [
        {
          "indexed": false,
          "internalType": "string",
          "name": "value",
          "type": "string"
        },
        {
          "indexed": true,
          "internalType": "uint256",
          "name": "id",
          "type": "uint256"
        }
      ],
      "name": "URI",
      "type": "event"
    },
    {
      "inputs": [],
      "name": "DNA_ARMADILLO",
      "outputs": [
        {
          "internalType": "uint256",
          "name": "",
          "type": "uint256"
        }
      ],
      "stateMutability": "view",
      "type": "function"
    },
    {
      "inputs": [],
      "name": "DNA_CROCODILE",
      "outputs": [
        {
          "internalType": "uint256",
          "name": "",
          "type": "uint256"
        }
      ],
      "stateMutability": "view",
      "type": "function"
    },
    {
      "inputs": [],
      "name": "DNA_SLOTH",
      "outputs": [
        {
          "internalType": "uint256",
          "name": "",
          "type": "uint256"
        }
      ],
      "stateMutability": "view",
      "type": "function"
    },
    {
      "inputs": [],
      "name": "DNA_SPIDER",
      "outputs": [
        {
          "internalType": "uint256",
          "name": "",
          "type": "uint256"
        }
      ],
      "stateMutability": "view",
      "type": "function"
    },
    {
      "inputs": [],
      "name": "DNA_WHALE",
      "outputs": [
        {
          "internalType": "uint256",
          "name": "",
          "type": "uint256"
        }
      ],
      "stateMutability": "view",
      "type": "function"
    },
    {
      "inputs": [],
      "name": "MAX_SUPPLY",
      "outputs": [
        {
          "internalType": "uint256",
          "name": "",
          "type": "uint256"
        }
      ],
      "stateMutability": "view",
      "type": "function"
    },
    {
      "inputs": [],
      "name": "PER_WALLET_LIMIT",
      "outputs": [
        {
          "internalType": "uint256",
          "name": "",
          "type": "uint256"
        }
      ],
      "stateMutability": "view",
      "type": "function"
    },
    {
      "inputs": [],
      "name": "ROYALTY_DENOMINATOR",
      "outputs": [
        {
          "internalType": "uint256",
          "name": "",
          "type": "uint256"
        }
      ],
      "stateMutability": "view",
      "type": "function"
    },
    {
      "inputs": [],
      "name": "ROYALTY_SIZE",
      "outputs": [
        {
          "internalType": "uint256",
          "name": "",
          "type": "uint256"
        }
      ],
      "stateMutability": "view",
      "type": "function"
    },
    {
      "inputs": [
        {
          "internalType": "address",
          "name": "account",
          "type": "address"
        },
        {
          "internalType": "uint256",
          "name": "id",
          "type": "uint256"
        }
      ],
      "name": "balanceOf",
      "outputs": [
        {
          "internalType": "uint256",
          "name": "",
          "type": "uint256"
        }
      ],
      "stateMutability": "view",
      "type": "function"
    },
    {
      "inputs": [
        {
          "internalType": "address[]",
          "name": "accounts",
          "type": "address[]"
        },
        {
          "internalType": "uint256[]",
          "name": "ids",
          "type": "uint256[]"
        }
      ],
      "name": "balanceOfBatch",
      "outputs": [
        {
          "internalType": "uint256[]",
          "name": "",
          "type": "uint256[]"
        }
      ],
      "stateMutability": "view",
      "type": "function"
    },
    {
      "inputs": [
        {
          "internalType": "uint256",
          "name": "id",
          "type": "uint256"
        }
      ],
      "name": "exists",
      "outputs": [
        {
          "internalType": "bool",
          "name": "",
          "type": "bool"
        }
      ],
      "stateMutability": "view",
      "type": "function"
    },
    {
      "inputs": [
        {
          "internalType": "address",
          "name": "account",
          "type": "address"
        },
        {
          "internalType": "address",
          "name": "operator",
          "type": "address"
        }
      ],
      "name": "isApprovedForAll",
      "outputs": [
        {
          "internalType": "bool",
          "name": "",
          "type": "bool"
        }
      ],
      "stateMutability": "view",
      "type": "function"
    },
    {
      "inputs": [],
      "name": "isPaused",
      "outputs": [
        {
          "internalType": "bool",
          "name": "",
          "type": "bool"
        }
      ],
      "stateMutability": "view",
      "type": "function"
    },
    {
      "inputs": [],
      "name": "owner",
      "outputs": [
        {
          "internalType": "address",
          "name": "",
          "type": "address"
        }
      ],
      "stateMutability": "view",
      "type": "function"
    },
    {
      "inputs": [],
      "name": "renounceOwnership",
      "outputs": [],
      "stateMutability": "nonpayable",
      "type": "function"
    },
    {
      "inputs": [],
      "name": "royaltyAddress",
      "outputs": [
        {
          "internalType": "address",
          "name": "",
          "type": "address"
        }
      ],
      "stateMutability": "view",
      "type": "function"
    },
    {
      "inputs": [
        {
          "internalType": "address",
          "name": "from",
          "type": "address"
        },
        {
          "internalType": "address",
          "name": "to",
          "type": "address"
        },
        {
          "internalType": "uint256[]",
          "name": "ids",
          "type": "uint256[]"
        },
        {
          "internalType": "uint256[]",
          "name": "amounts",
          "type": "uint256[]"
        },
        {
          "internalType": "bytes",
          "name": "data",
          "type": "bytes"
        }
      ],
      "name": "safeBatchTransferFrom",
      "outputs": [],
      "stateMutability": "nonpayable",
      "type": "function"
    },
    {
      "inputs": [
        {
          "internalType": "address",
          "name": "from",
          "type": "address"
        },
        {
          "internalType": "address",
          "name": "to",
          "type": "address"
        },
        {
          "internalType": "uint256",
          "name": "id",
          "type": "uint256"
        },
        {
          "internalType": "uint256",
          "name": "amount",
          "type": "uint256"
        },
        {
          "internalType": "bytes",
          "name": "data",
          "type": "bytes"
        }
      ],
      "name": "safeTransferFrom",
      "outputs": [],
      "stateMutability": "nonpayable",
      "type": "function"
    },
    {
      "inputs": [],
      "name": "saleIsActive",
      "outputs": [
        {
          "internalType": "bool",
          "name": "",
          "type": "bool"
        }
      ],
      "stateMutability": "view",
      "type": "function"
    },
    {
      "inputs": [
        {
          "internalType": "address",
          "name": "operator",
          "type": "address"
        },
        {
          "internalType": "bool",
          "name": "approved",
          "type": "bool"
        }
      ],
      "name": "setApprovalForAll",
      "outputs": [],
      "stateMutability": "nonpayable",
      "type": "function"
    },
    {
      "inputs": [],
      "name": "signerAddress",
      "outputs": [
        {
          "internalType": "address",
          "name": "",
          "type": "address"
        }
      ],
      "stateMutability": "view",
      "type": "function"
    },
    {
      "inputs": [
        {
          "internalType": "bytes4",
          "name": "interfaceId",
          "type": "bytes4"
        }
      ],
      "name": "supportsInterface",
      "outputs": [
        {
          "internalType": "bool",
          "name": "",
          "type": "bool"
        }
      ],
      "stateMutability": "view",
      "type": "function"
    },
    {
      "inputs": [],
      "name": "tokenPrice",
      "outputs": [
        {
          "internalType": "uint256",
          "name": "",
          "type": "uint256"
        }
      ],
      "stateMutability": "view",
      "type": "function"
    },
    {
      "inputs": [
        {
          "internalType": "uint256",
          "name": "id",
          "type": "uint256"
        }
      ],
      "name": "totalSupply",
      "outputs": [
        {
          "internalType": "uint256",
          "name": "",
          "type": "uint256"
        }
      ],
      "stateMutability": "view",
      "type": "function"
    },
    {
      "inputs": [
        {
          "internalType": "address",
          "name": "newOwner",
          "type": "address"
        }
      ],
      "name": "transferOwnership",
      "outputs": [],
      "stateMutability": "nonpayable",
      "type": "function"
    },
    {
      "inputs": [
        {
          "internalType": "uint256",
          "name": "",
          "type": "uint256"
        }
      ],
      "name": "uri",
      "outputs": [
        {
          "internalType": "string",
          "name": "",
          "type": "string"
        }
      ],
      "stateMutability": "view",
      "type": "function"
    },
    {
      "inputs": [],
      "name": "name",
      "outputs": [
        {
          "internalType": "string",
          "name": "",
          "type": "string"
        }
      ],
      "stateMutability": "view",
      "type": "function"
    },
    {
      "inputs": [],
      "name": "symbol",
      "outputs": [
        {
          "internalType": "string",
          "name": "",
          "type": "string"
        }
      ],
      "stateMutability": "view",
      "type": "function"
    },
    {
      "inputs": [
        {
          "internalType": "uint256",
          "name": "_tokenId",
          "type": "uint256"
        },
        {
          "internalType": "uint256",
          "name": "_salePrice",
          "type": "uint256"
        }
      ],
      "name": "royaltyInfo",
      "outputs": [
        {
          "internalType": "address",
          "name": "receiver",
          "type": "address"
        },
        {
          "internalType": "uint256",
          "name": "royaltyAmount",
          "type": "uint256"
        }
      ],
      "stateMutability": "view",
      "type": "function"
    },
    {
      "inputs": [
        {
          "internalType": "address",
          "name": "receiver",
          "type": "address"
        },
        {
          "internalType": "uint256",
          "name": "tokenId",
          "type": "uint256"
        }
      ],
      "name": "addRoyaltyReceiverForTokenId",
      "outputs": [],
      "stateMutability": "nonpayable",
      "type": "function"
    },
    {
      "inputs": [
        {
          "internalType": "uint256",
          "name": "tokensNumber",
          "type": "uint256"
        },
        {
          "internalType": "uint256",
          "name": "dnaType",
          "type": "uint256"
        },
        {
          "internalType": "bytes",
          "name": "signature",
          "type": "bytes"
        }
      ],
      "name": "purchase",
      "outputs": [],
      "stateMutability": "payable",
      "type": "function"
    },
    {
      "inputs": [
        {
          "internalType": "bytes",
          "name": "signature",
          "type": "bytes"
        },
        {
          "internalType": "address",
          "name": "caller",
          "type": "address"
        }
      ],
      "name": "checkIfWhitelisted",
      "outputs": [
        {
          "internalType": "bool",
          "name": "",
          "type": "bool"
        }
      ],
      "stateMutability": "view",
      "type": "function"
    },
    {
      "inputs": [
        {
          "internalType": "bool",
          "name": "status",
          "type": "bool"
        }
      ],
      "name": "updateSaleStatus",
      "outputs": [],
      "stateMutability": "nonpayable",
      "type": "function"
    },
    {
      "inputs": [
        {
          "internalType": "uint256",
          "name": "_tokenPrice",
          "type": "uint256"
        }
      ],
      "name": "setTokenPrice",
      "outputs": [],
      "stateMutability": "nonpayable",
      "type": "function"
    },
    {
      "inputs": [],
      "name": "withdraw",
      "outputs": [],
      "stateMutability": "nonpayable",
      "type": "function"
    },
    {
      "inputs": [
        {
          "internalType": "bool",
          "name": "_isPaused",
          "type": "bool"
        }
      ],
      "name": "pause",
      "outputs": [],
      "stateMutability": "nonpayable",
      "type": "function"
    }
  ],
  "bytecode": "0x60806040526101f4600b55612710600c553480156200001d57600080fd5b506040516200566338038062005663833981810160405281019062000043919062000372565b8262000055816200014360201b60201c565b50620000766200006a6200015f60201b60201c565b6200016760201b60201c565b84600790805190602001906200008e9291906200022d565b508360089080519060200190620000a79291906200022d565b5081600960006101000a81548173ffffffffffffffffffffffffffffffffffffffff021916908373ffffffffffffffffffffffffffffffffffffffff16021790555080600a60006101000a81548173ffffffffffffffffffffffffffffffffffffffff021916908373ffffffffffffffffffffffffffffffffffffffff16021790555066f5232269808000600581905550505050505062000629565b80600290805190602001906200015b9291906200022d565b5050565b600033905090565b6000600460009054906101000a900473ffffffffffffffffffffffffffffffffffffffff16905081600460006101000a81548173ffffffffffffffffffffffffffffffffffffffff021916908373ffffffffffffffffffffffffffffffffffffffff1602179055508173ffffffffffffffffffffffffffffffffffffffff168173ffffffffffffffffffffffffffffffffffffffff167f8be0079c531659141344cd1fd0a4f28419497f9722a3daafe3b4186f6b6457e060405160405180910390a35050565b8280546200023b9062000520565b90600052602060002090601f0160209004810192826200025f5760008555620002ab565b82601f106200027a57805160ff1916838001178555620002ab565b82800160010185558215620002ab579182015b82811115620002aa5782518255916020019190600101906200028d565b5b509050620002ba9190620002be565b5090565b5b80821115620002d9576000816000905550600101620002bf565b5090565b6000620002f4620002ee8462000480565b62000457565b905082815260208101848484011115620003135762000312620005ef565b5b62000320848285620004ea565b509392505050565b60008151905062000339816200060f565b92915050565b600082601f830112620003575762000356620005ea565b5b815162000369848260208601620002dd565b91505092915050565b600080600080600060a08688031215620003915762000390620005f9565b5b600086015167ffffffffffffffff811115620003b257620003b1620005f4565b5b620003c0888289016200033f565b955050602086015167ffffffffffffffff811115620003e457620003e3620005f4565b5b620003f2888289016200033f565b945050604086015167ffffffffffffffff811115620004165762000415620005f4565b5b62000424888289016200033f565b9350506060620004378882890162000328565b92505060806200044a8882890162000328565b9150509295509295909350565b60006200046362000476565b905062000471828262000556565b919050565b6000604051905090565b600067ffffffffffffffff8211156200049e576200049d620005bb565b5b620004a982620005fe565b9050602081019050919050565b6000620004c382620004ca565b9050919050565b600073ffffffffffffffffffffffffffffffffffffffff82169050919050565b60005b838110156200050a578082015181840152602081019050620004ed565b838111156200051a576000848401525b50505050565b600060028204905060018216806200053957607f821691505b6020821081141562000550576200054f6200058c565b5b50919050565b6200056182620005fe565b810181811067ffffffffffffffff82111715620005835762000582620005bb565b5b80604052505050565b7f4e487b7100000000000000000000000000000000000000000000000000000000600052602260045260246000fd5b7f4e487b7100000000000000000000000000000000000000000000000000000000600052604160045260246000fd5b600080fd5b600080fd5b600080fd5b600080fd5b6000601f19601f8301169050919050565b6200061a81620004b6565b81146200062657600080fd5b50565b61502a80620006396000396000f3fe6080604052600436106102195760003560e01c8063715018a611610123578063aec06a28116100ab578063df173dba1161006f578063df173dba146107cc578063e985e9c5146107f7578063eb8d244414610834578063f242432a1461085f578063f2fde38b1461088857610219565b8063aec06a28146106d3578063b187bd2614610710578063bd85b0391461073b578063cd6a3ea514610778578063db3c57d1146107a157610219565b80638da5cb5b116100f25780638da5cb5b146105fe57806395d89b4114610629578063a22cb46514610654578063aa36172e1461067d578063ad2f852a146106a857610219565b8063715018a61461056657806379f1d3051461057d5780637ff9b596146105a857806380d5d4ad146105d357610219565b806332cb6b0c116101a65780634f558e79116101755780634f558e791461048e5780635b7633d0146104cb5780635df82d65146104f65780636a61e5fc146105125780636d2e192f1461053b57610219565b806332cb6b0c146103e45780633b0822ca1461040f5780633ccfd60b1461043a5780634e1273f41461045157610219565b8063099becfb116101ed578063099becfb146102ec5780630a088949146103175780630e89341c146103405780632a55205a1461037d5780632eb2c2d6146103bb57610219565b8062fdd58e1461021e57806301ffc9a71461025b57806302329a291461029857806306fdde03146102c1575b600080fd5b34801561022a57600080fd5b5061024560048036038101906102409190613487565b6108b1565b6040516102529190614210565b60405180910390f35b34801561026757600080fd5b50610282600480360381019061027d919061356c565b61097a565b60405161028f9190613e0e565b60405180910390f35b3480156102a457600080fd5b506102bf60048036038101906102ba919061353f565b610a5c565b005b3480156102cd57600080fd5b506102d6610af5565b6040516102e39190613e6e565b60405180910390f35b3480156102f857600080fd5b50610301610b87565b60405161030e9190614210565b60405180910390f35b34801561032357600080fd5b5061033e6004803603810190610339919061353f565b610b8d565b005b34801561034c57600080fd5b5061036760048036038101906103629190613626565b610c6c565b6040516103749190613e6e565b60405180910390f35b34801561038957600080fd5b506103a4600480360381019061039f9190613653565b610d00565b6040516103b2929190613d8c565b60405180910390f35b3480156103c757600080fd5b506103e260048036038101906103dd91906132e1565b610df9565b005b3480156103f057600080fd5b506103f9610e9a565b6040516104069190614210565b60405180910390f35b34801561041b57600080fd5b50610424610ea0565b6040516104319190614210565b60405180910390f35b34801561044657600080fd5b5061044f610ea5565b005b34801561045d57600080fd5b50610478600480360381019061047391906134c7565b610f77565b6040516104859190613db5565b60405180910390f35b34801561049a57600080fd5b506104b560048036038101906104b09190613626565b611090565b6040516104c29190613e0e565b60405180910390f35b3480156104d757600080fd5b506104e06110a4565b6040516104ed9190613caf565b60405180910390f35b610510600480360381019061050b9190613693565b6110ca565b005b34801561051e57600080fd5b5061053960048036038101906105349190613626565b611433565b005b34801561054757600080fd5b50610550611509565b60405161055d9190614210565b60405180910390f35b34801561057257600080fd5b5061057b61150e565b005b34801561058957600080fd5b50610592611596565b60405161059f9190614210565b60405180910390f35b3480156105b457600080fd5b506105bd61159b565b6040516105ca9190614210565b60405180910390f35b3480156105df57600080fd5b506105e86115a1565b6040516105f59190614210565b60405180910390f35b34801561060a57600080fd5b506106136115a6565b6040516106209190613caf565b60405180910390f35b34801561063557600080fd5b5061063e6115d0565b60405161064b9190613e6e565b60405180910390f35b34801561066057600080fd5b5061067b60048036038101906106769190613447565b611662565b005b34801561068957600080fd5b50610692611678565b60405161069f9190614210565b60405180910390f35b3480156106b457600080fd5b506106bd61167d565b6040516106ca9190613caf565b60405180910390f35b3480156106df57600080fd5b506106fa60048036038101906106f591906135c6565b6116a3565b6040516107079190613e0e565b60405180910390f35b34801561071c57600080fd5b506107256116b9565b6040516107329190613e0e565b60405180910390f35b34801561074757600080fd5b50610762600480360381019061075d9190613626565b6116cc565b60405161076f9190614210565b60405180910390f35b34801561078457600080fd5b5061079f600480360381019061079a9190613487565b6116e9565b005b3480156107ad57600080fd5b506107b66117bb565b6040516107c39190614210565b60405180910390f35b3480156107d857600080fd5b506107e16117c0565b6040516107ee9190614210565b60405180910390f35b34801561080357600080fd5b5061081e600480360381019061081991906132a1565b6117c6565b60405161082b9190613e0e565b60405180910390f35b34801561084057600080fd5b5061084961185a565b6040516108569190613e0e565b60405180910390f35b34801561086b57600080fd5b50610886600480360381019061088191906133b0565b61186d565b005b34801561089457600080fd5b506108af60048036038101906108aa9190613274565b61190e565b005b60008073ffffffffffffffffffffffffffffffffffffffff168373ffffffffffffffffffffffffffffffffffffffff161415610922576040517f08c379a000000000000000000000000000000000000000000000000000000000815260040161091990613f10565b60405180910390fd5b60008083815260200190815260200160002060008473ffffffffffffffffffffffffffffffffffffffff1673ffffffffffffffffffffffffffffffffffffffff16815260200190815260200160002054905092915050565b60007fd9b67a26000000000000000000000000000000000000000000000000000000007bffffffffffffffffffffffffffffffffffffffffffffffffffffffff1916827bffffffffffffffffffffffffffffffffffffffffffffffffffffffff19161480610a4557507f0e89341c000000000000000000000000000000000000000000000000000000007bffffffffffffffffffffffffffffffffffffffffffffffffffffffff1916827bffffffffffffffffffffffffffffffffffffffffffffffffffffffff1916145b80610a555750610a5482611a06565b5b9050919050565b610a64611a70565b73ffffffffffffffffffffffffffffffffffffffff16610a826115a6565b73ffffffffffffffffffffffffffffffffffffffff1614610ad8576040517f08c379a0000000000000000000000000000000000000000000000000000000008152600401610acf906140b0565b60405180910390fd5b80600660016101000a81548160ff02191690831515021790555050565b606060078054610b049061452c565b80601f0160208091040260200160405190810160405280929190818152602001828054610b309061452c565b8015610b7d5780601f10610b5257610100808354040283529160200191610b7d565b820191906000526020600020905b815481529060010190602001808311610b6057829003601f168201915b5050505050905090565b600b5481565b610b95611a70565b73ffffffffffffffffffffffffffffffffffffffff16610bb36115a6565b73ffffffffffffffffffffffffffffffffffffffff1614610c09576040517f08c379a0000000000000000000000000000000000000000000000000000000008152600401610c00906140b0565b60405180910390fd5b60006005541415610c4f576040517f08c379a0000000000000000000000000000000000000000000000000000000008152600401610c4690613f70565b60405180910390fd5b80600660006101000a81548160ff02191690831515021790555050565b606060028054610c7b9061452c565b80601f0160208091040260200160405190810160405280929190818152602001828054610ca79061452c565b8015610cf45780601f10610cc957610100808354040283529160200191610cf4565b820191906000526020600020905b815481529060010190602001808311610cd757829003601f168201915b50505050509050919050565b6000806000600c54600b5485610d169190614405565b610d2091906143d4565b905060008073ffffffffffffffffffffffffffffffffffffffff16600d600088815260200190815260200160002060009054906101000a900473ffffffffffffffffffffffffffffffffffffffff1673ffffffffffffffffffffffffffffffffffffffff161415610db357600a60009054906101000a900473ffffffffffffffffffffffffffffffffffffffff16610de8565b600d600087815260200190815260200160002060009054906101000a900473ffffffffffffffffffffffffffffffffffffffff165b905080829350935050509250929050565b610e01611a70565b73ffffffffffffffffffffffffffffffffffffffff168573ffffffffffffffffffffffffffffffffffffffff161480610e475750610e4685610e41611a70565b6117c6565b5b610e86576040517f08c379a0000000000000000000000000000000000000000000000000000000008152600401610e7d90614050565b60405180910390fd5b610e938585858585611a78565b5050505050565b6107d081565b600281565b610ead611a70565b73ffffffffffffffffffffffffffffffffffffffff16610ecb6115a6565b73ffffffffffffffffffffffffffffffffffffffff1614610f21576040517f08c379a0000000000000000000000000000000000000000000000000000000008152600401610f18906140b0565b60405180910390fd5b6000479050610f2e6115a6565b73ffffffffffffffffffffffffffffffffffffffff166108fc829081150290604051600060405180830381858888f19350505050158015610f73573d6000803e3d6000fd5b5050565b60608151835114610fbd576040517f08c379a0000000000000000000000000000000000000000000000000000000008152600401610fb490614190565b60405180910390fd5b6000835167ffffffffffffffff811115610fda57610fd96146f1565b5b6040519080825280602002602001820160405280156110085781602001602082028036833780820191505090505b50905060005b84518110156110855761105585828151811061102d5761102c6146c2565b5b6020026020010151858381518110611048576110476146c2565b5b60200260200101516108b1565b828281518110611068576110676146c2565b5b6020026020010181815250508061107e9061458f565b905061100e565b508091505092915050565b60008061109c836116cc565b119050919050565b600960009054906101000a900473ffffffffffffffffffffffffffffffffffffffff1681565b600660009054906101000a900460ff16611119576040517f08c379a0000000000000000000000000000000000000000000000000000000008152600401611110906141f0565b60405180910390fd5b6005831061115c576040517f08c379a000000000000000000000000000000000000000000000000000000000815260040161115390614150565b60405180910390fd5b6000841161119f576040517f08c379a000000000000000000000000000000000000000000000000000000000815260040161119690613ff0565b60405180910390fd5b6107d0846111ac856116cc565b6111b6919061437e565b11156111f7576040517f08c379a00000000000000000000000000000000000000000000000000000000081526004016111ee90613f50565b60405180910390fd5b6111ff6115a6565b73ffffffffffffffffffffffffffffffffffffffff1661121d611a70565b73ffffffffffffffffffffffffffffffffffffffff16146113cb57600a84600e6000611247611a70565b73ffffffffffffffffffffffffffffffffffffffff1673ffffffffffffffffffffffffffffffffffffffff1681526020019081526020016000205461128c919061437e565b11156112cd576040517f08c379a00000000000000000000000000000000000000000000000000000000081526004016112c4906140d0565b60405180910390fd5b6112df82826112da611a70565b611d9a565b61131e576040517f08c379a000000000000000000000000000000000000000000000000000000000815260040161131590614010565b60405180910390fd5b346005548561132d9190614405565b1461136d576040517f08c379a0000000000000000000000000000000000000000000000000000000008152600401611364906140f0565b60405180910390fd5b83600e600061137a611a70565b73ffffffffffffffffffffffffffffffffffffffff1673ffffffffffffffffffffffffffffffffffffffff16815260200190815260200160002060008282546113c3919061437e565b925050819055505b6113ed6113d6611a70565b848660405180602001604052806000815250611ebb565b7f3f2c9d57c068687834f0de942a9babb9e5acab57d516d3480a3c16ee165a4273611416611a70565b85604051611425929190613d8c565b60405180910390a150505050565b61143b611a70565b73ffffffffffffffffffffffffffffffffffffffff166114596115a6565b73ffffffffffffffffffffffffffffffffffffffff16146114af576040517f08c379a00000000000000000000000000000000000000000000000000000000081526004016114a6906140b0565b60405180910390fd5b600660009054906101000a900460ff16156114ff576040517f08c379a00000000000000000000000000000000000000000000000000000000081526004016114f690614130565b60405180910390fd5b8060058190555050565b600181565b611516611a70565b73ffffffffffffffffffffffffffffffffffffffff166115346115a6565b73ffffffffffffffffffffffffffffffffffffffff161461158a576040517f08c379a0000000000000000000000000000000000000000000000000000000008152600401611581906140b0565b60405180910390fd5b611594600061206c565b565b600381565b60055481565b600a81565b6000600460009054906101000a900473ffffffffffffffffffffffffffffffffffffffff16905090565b6060600880546115df9061452c565b80601f016020809104026020016040519081016040528092919081815260200182805461160b9061452c565b80156116585780601f1061162d57610100808354040283529160200191611658565b820191906000526020600020905b81548152906001019060200180831161163b57829003601f168201915b5050505050905090565b61167461166d611a70565b8383612132565b5050565b600481565b600a60009054906101000a900473ffffffffffffffffffffffffffffffffffffffff1681565b60006116b0848484611d9a565b90509392505050565b600660019054906101000a900460ff1681565b600060036000838152602001908152602001600020549050919050565b6116f1611a70565b73ffffffffffffffffffffffffffffffffffffffff1661170f6115a6565b73ffffffffffffffffffffffffffffffffffffffff1614611765576040517f08c379a000000000000000000000000000000000000000000000000000000000815260040161175c906140b0565b60405180910390fd5b81600d600083815260200190815260200160002060006101000a81548173ffffffffffffffffffffffffffffffffffffffff021916908373ffffffffffffffffffffffffffffffffffffffff1602179055505050565b600081565b600c5481565b6000600160008473ffffffffffffffffffffffffffffffffffffffff1673ffffffffffffffffffffffffffffffffffffffff16815260200190815260200160002060008373ffffffffffffffffffffffffffffffffffffffff1673ffffffffffffffffffffffffffffffffffffffff16815260200190815260200160002060009054906101000a900460ff16905092915050565b600660009054906101000a900460ff1681565b611875611a70565b73ffffffffffffffffffffffffffffffffffffffff168573ffffffffffffffffffffffffffffffffffffffff1614806118bb57506118ba856118b5611a70565b6117c6565b5b6118fa576040517f08c379a00000000000000000000000000000000000000000000000000000000081526004016118f190613fb0565b60405180910390fd5b611907858585858561229f565b5050505050565b611916611a70565b73ffffffffffffffffffffffffffffffffffffffff166119346115a6565b73ffffffffffffffffffffffffffffffffffffffff161461198a576040517f08c379a0000000000000000000000000000000000000000000000000000000008152600401611981906140b0565b60405180910390fd5b600073ffffffffffffffffffffffffffffffffffffffff168173ffffffffffffffffffffffffffffffffffffffff1614156119fa576040517f08c379a00000000000000000000000000000000000000000000000000000000081526004016119f190613f30565b60405180910390fd5b611a038161206c565b50565b60007f01ffc9a7000000000000000000000000000000000000000000000000000000007bffffffffffffffffffffffffffffffffffffffffffffffffffffffff1916827bffffffffffffffffffffffffffffffffffffffffffffffffffffffff1916149050919050565b600033905090565b8151835114611abc576040517f08c379a0000000000000000000000000000000000000000000000000000000008152600401611ab3906141b0565b60405180910390fd5b600073ffffffffffffffffffffffffffffffffffffffff168473ffffffffffffffffffffffffffffffffffffffff161415611b2c576040517f08c379a0000000000000000000000000000000000000000000000000000000008152600401611b2390614030565b60405180910390fd5b6000611b36611a70565b9050611b4681878787878761253b565b60005b8451811015611cf7576000858281518110611b6757611b666146c2565b5b602002602001015190506000858381518110611b8657611b856146c2565b5b60200260200101519050600080600084815260200190815260200160002060008b73ffffffffffffffffffffffffffffffffffffffff1673ffffffffffffffffffffffffffffffffffffffff16815260200190815260200160002054905081811015611c27576040517f08c379a0000000000000000000000000000000000000000000000000000000008152600401611c1e90614090565b60405180910390fd5b81810360008085815260200190815260200160002060008c73ffffffffffffffffffffffffffffffffffffffff1673ffffffffffffffffffffffffffffffffffffffff168152602001908152602001600020819055508160008085815260200190815260200160002060008b73ffffffffffffffffffffffffffffffffffffffff1673ffffffffffffffffffffffffffffffffffffffff1681526020019081526020016000206000828254611cdc919061437e565b9250508190555050505080611cf09061458f565b9050611b49565b508473ffffffffffffffffffffffffffffffffffffffff168673ffffffffffffffffffffffffffffffffffffffff168273ffffffffffffffffffffffffffffffffffffffff167f4a39dc06d4c0dbc64b70af90fd698a233a518aa5d07e595d983b8c0526c8f7fb8787604051611d6e929190613dd7565b60405180910390a4611d848187878787876125a1565b611d928187878787876125a9565b505050505050565b60008082604051602001611dae9190613c6e565b6040516020818303038152906040528051906020012090506000611dd182612790565b90506000611e238288888080601f016020809104026020016040519081016040528093929190818152602001838380828437600081840152601f19601f820116905080830192505050505050506127c0565b9050600073ffffffffffffffffffffffffffffffffffffffff168173ffffffffffffffffffffffffffffffffffffffff1614158015611eaf5750600960009054906101000a900473ffffffffffffffffffffffffffffffffffffffff1673ffffffffffffffffffffffffffffffffffffffff168173ffffffffffffffffffffffffffffffffffffffff16145b93505050509392505050565b600073ffffffffffffffffffffffffffffffffffffffff168473ffffffffffffffffffffffffffffffffffffffff161415611f2b576040517f08c379a0000000000000000000000000000000000000000000000000000000008152600401611f22906141d0565b60405180910390fd5b6000611f35611a70565b90506000611f42856127e7565b90506000611f4f856127e7565b9050611f608360008985858961253b565b8460008088815260200190815260200160002060008973ffffffffffffffffffffffffffffffffffffffff1673ffffffffffffffffffffffffffffffffffffffff1681526020019081526020016000206000828254611fbf919061437e565b925050819055508673ffffffffffffffffffffffffffffffffffffffff16600073ffffffffffffffffffffffffffffffffffffffff168473ffffffffffffffffffffffffffffffffffffffff167fc3d58168c5ae7397731d063d5bbf3d657854427343f4c083240f7aacaa2d0f62898960405161203d92919061422b565b60405180910390a4612054836000898585896125a1565b61206383600089898989612861565b50505050505050565b6000600460009054906101000a900473ffffffffffffffffffffffffffffffffffffffff16905081600460006101000a81548173ffffffffffffffffffffffffffffffffffffffff021916908373ffffffffffffffffffffffffffffffffffffffff1602179055508173ffffffffffffffffffffffffffffffffffffffff168173ffffffffffffffffffffffffffffffffffffffff167f8be0079c531659141344cd1fd0a4f28419497f9722a3daafe3b4186f6b6457e060405160405180910390a35050565b8173ffffffffffffffffffffffffffffffffffffffff168373ffffffffffffffffffffffffffffffffffffffff1614156121a1576040517f08c379a000000000000000000000000000000000000000000000000000000000815260040161219890614170565b60405180910390fd5b80600160008573ffffffffffffffffffffffffffffffffffffffff1673ffffffffffffffffffffffffffffffffffffffff16815260200190815260200160002060008473ffffffffffffffffffffffffffffffffffffffff1673ffffffffffffffffffffffffffffffffffffffff16815260200190815260200160002060006101000a81548160ff0219169083151502179055508173ffffffffffffffffffffffffffffffffffffffff168373ffffffffffffffffffffffffffffffffffffffff167f17307eab39ab6107e8899845ad3d59bd9653f200f220920489ca2b5937696c31836040516122929190613e0e565b60405180910390a3505050565b600073ffffffffffffffffffffffffffffffffffffffff168473ffffffffffffffffffffffffffffffffffffffff16141561230f576040517f08c379a000000000000000000000000000000000000000000000000000000000815260040161230690614030565b60405180910390fd5b6000612319611a70565b90506000612326856127e7565b90506000612333856127e7565b905061234383898985858961253b565b600080600088815260200190815260200160002060008a73ffffffffffffffffffffffffffffffffffffffff1673ffffffffffffffffffffffffffffffffffffffff168152602001908152602001600020549050858110156123da576040517f08c379a00000000000000000000000000000000000000000000000000000000081526004016123d190614090565b60405180910390fd5b85810360008089815260200190815260200160002060008b73ffffffffffffffffffffffffffffffffffffffff1673ffffffffffffffffffffffffffffffffffffffff168152602001908152602001600020819055508560008089815260200190815260200160002060008a73ffffffffffffffffffffffffffffffffffffffff1673ffffffffffffffffffffffffffffffffffffffff168152602001908152602001600020600082825461248f919061437e565b925050819055508773ffffffffffffffffffffffffffffffffffffffff168973ffffffffffffffffffffffffffffffffffffffff168573ffffffffffffffffffffffffffffffffffffffff167fc3d58168c5ae7397731d063d5bbf3d657854427343f4c083240f7aacaa2d0f628a8a60405161250c92919061422b565b60405180910390a4612522848a8a86868a6125a1565b612530848a8a8a8a8a612861565b505050505050505050565b612549868686868686612a48565b600660019054906101000a900460ff1615612599576040517f08c379a000000000000000000000000000000000000000000000000000000000815260040161259090613f90565b60405180910390fd5b505050505050565b505050505050565b6125c88473ffffffffffffffffffffffffffffffffffffffff16612c1a565b15612788578373ffffffffffffffffffffffffffffffffffffffff1663bc197c8187878686866040518663ffffffff1660e01b815260040161260e959493929190613cca565b602060405180830381600087803b15801561262857600080fd5b505af192505050801561265957506040513d601f19601f820116820180604052508101906126569190613599565b60015b6126ff57612665614720565b806308c379a014156126c2575061267a614f02565b8061268557506126c4565b806040517f08c379a00000000000000000000000000000000000000000000000000000000081526004016126b99190613e6e565b60405180910390fd5b505b6040517f08c379a00000000000000000000000000000000000000000000000000000000081526004016126f690613eb0565b60405180910390fd5b63bc197c8160e01b7bffffffffffffffffffffffffffffffffffffffffffffffffffffffff1916817bffffffffffffffffffffffffffffffffffffffffffffffffffffffff191614612786576040517f08c379a000000000000000000000000000000000000000000000000000000000815260040161277d90613ed0565b60405180910390fd5b505b505050505050565b6000816040516020016127a39190613c89565b604051602081830303815290604052805190602001209050919050565b60008060006127cf8585612c3d565b915091506127dc81612cc0565b819250505092915050565b60606000600167ffffffffffffffff811115612806576128056146f1565b5b6040519080825280602002602001820160405280156128345781602001602082028036833780820191505090505b509050828160008151811061284c5761284b6146c2565b5b60200260200101818152505080915050919050565b6128808473ffffffffffffffffffffffffffffffffffffffff16612c1a565b15612a40578373ffffffffffffffffffffffffffffffffffffffff1663f23a6e6187878686866040518663ffffffff1660e01b81526004016128c6959493929190613d32565b602060405180830381600087803b1580156128e057600080fd5b505af192505050801561291157506040513d601f19601f8201168201806040525081019061290e9190613599565b60015b6129b75761291d614720565b806308c379a0141561297a5750612932614f02565b8061293d575061297c565b806040517f08c379a00000000000000000000000000000000000000000000000000000000081526004016129719190613e6e565b60405180910390fd5b505b6040517f08c379a00000000000000000000000000000000000000000000000000000000081526004016129ae90613eb0565b60405180910390fd5b63f23a6e6160e01b7bffffffffffffffffffffffffffffffffffffffffffffffffffffffff1916817bffffffffffffffffffffffffffffffffffffffffffffffffffffffff191614612a3e576040517f08c379a0000000000000000000000000000000000000000000000000000000008152600401612a3590613ed0565b60405180910390fd5b505b505050505050565b612a56868686868686612e95565b600073ffffffffffffffffffffffffffffffffffffffff168573ffffffffffffffffffffffffffffffffffffffff161415612b085760005b8351811015612b0657828181518110612aaa57612aa96146c2565b5b602002602001015160036000868481518110612ac957612ac86146c2565b5b602002602001015181526020019081526020016000206000828254612aee919061437e565b9250508190555080612aff9061458f565b9050612a8e565b505b600073ffffffffffffffffffffffffffffffffffffffff168473ffffffffffffffffffffffffffffffffffffffff161415612c125760005b8351811015612c10576000848281518110612b5e57612b5d6146c2565b5b602002602001015190506000848381518110612b7d57612b7c6146c2565b5b6020026020010151905060006003600084815260200190815260200160002054905081811015612be2576040517f08c379a0000000000000000000000000000000000000000000000000000000008152600401612bd990614110565b60405180910390fd5b818103600360008581526020019081526020016000208190555050505080612c099061458f565b9050612b40565b505b505050505050565b6000808273ffffffffffffffffffffffffffffffffffffffff163b119050919050565b600080604183511415612c7f5760008060006020860151925060408601519150606086015160001a9050612c7387828585612e9d565b94509450505050612cb9565b604083511415612cb0576000806020850151915060408501519050612ca5868383612faa565b935093505050612cb9565b60006002915091505b9250929050565b60006004811115612cd457612cd3614664565b5b816004811115612ce757612ce6614664565b5b1415612cf257612e92565b60016004811115612d0657612d05614664565b5b816004811115612d1957612d18614664565b5b1415612d5a576040517f08c379a0000000000000000000000000000000000000000000000000000000008152600401612d5190613e90565b60405180910390fd5b60026004811115612d6e57612d6d614664565b5b816004811115612d8157612d80614664565b5b1415612dc2576040517f08c379a0000000000000000000000000000000000000000000000000000000008152600401612db990613ef0565b60405180910390fd5b60036004811115612dd657612dd5614664565b5b816004811115612de957612de8614664565b5b1415612e2a576040517f08c379a0000000000000000000000000000000000000000000000000000000008152600401612e2190613fd0565b60405180910390fd5b600480811115612e3d57612e3c614664565b5b816004811115612e5057612e4f614664565b5b1415612e91576040517f08c379a0000000000000000000000000000000000000000000000000000000008152600401612e8890614070565b60405180910390fd5b5b50565b505050505050565b6000807f7fffffffffffffffffffffffffffffff5d576e7357a4501ddfe92f46681b20a08360001c1115612ed8576000600391509150612fa1565b601b8560ff1614158015612ef05750601c8560ff1614155b15612f02576000600491509150612fa1565b600060018787878760405160008152602001604052604051612f279493929190613e29565b6020604051602081039080840390855afa158015612f49573d6000803e3d6000fd5b505050602060405103519050600073ffffffffffffffffffffffffffffffffffffffff168173ffffffffffffffffffffffffffffffffffffffff161415612f9857600060019250925050612fa1565b80600092509250505b94509492505050565b60008060007f7fffffffffffffffffffffffffffffffffffffffffffffffffffffffffffffff60001b841690506000601b60ff8660001c901c612fed919061437e565b9050612ffb87828885612e9d565b935093505050935093915050565b600061301c61301784614279565b614254565b9050808382526020820190508285602086028201111561303f5761303e61474c565b5b60005b8581101561306f5781613055888261312b565b845260208401935060208301925050600181019050613042565b5050509392505050565b600061308c613087846142a5565b614254565b905080838252602082019050828560208602820111156130af576130ae61474c565b5b60005b858110156130df57816130c5888261325f565b8452602084019350602083019250506001810190506130b2565b5050509392505050565b60006130fc6130f7846142d1565b614254565b90508281526020810184848401111561311857613117614751565b5b6131238482856144ea565b509392505050565b60008135905061313a81614f98565b92915050565b600082601f83011261315557613154614747565b5b8135613165848260208601613009565b91505092915050565b600082601f83011261318357613182614747565b5b8135613193848260208601613079565b91505092915050565b6000813590506131ab81614faf565b92915050565b6000813590506131c081614fc6565b92915050565b6000815190506131d581614fc6565b92915050565b60008083601f8401126131f1576131f0614747565b5b8235905067ffffffffffffffff81111561320e5761320d614742565b5b60208301915083600182028301111561322a5761322961474c565b5b9250929050565b600082601f83011261324657613245614747565b5b81356132568482602086016130e9565b91505092915050565b60008135905061326e81614fdd565b92915050565b60006020828403121561328a5761328961475b565b5b60006132988482850161312b565b91505092915050565b600080604083850312156132b8576132b761475b565b5b60006132c68582860161312b565b92505060206132d78582860161312b565b9150509250929050565b600080600080600060a086880312156132fd576132fc61475b565b5b600061330b8882890161312b565b955050602061331c8882890161312b565b945050604086013567ffffffffffffffff81111561333d5761333c614756565b5b6133498882890161316e565b935050606086013567ffffffffffffffff81111561336a57613369614756565b5b6133768882890161316e565b925050608086013567ffffffffffffffff81111561339757613396614756565b5b6133a388828901613231565b9150509295509295909350565b600080600080600060a086880312156133cc576133cb61475b565b5b60006133da8882890161312b565b95505060206133eb8882890161312b565b94505060406133fc8882890161325f565b935050606061340d8882890161325f565b925050608086013567ffffffffffffffff81111561342e5761342d614756565b5b61343a88828901613231565b9150509295509295909350565b6000806040838503121561345e5761345d61475b565b5b600061346c8582860161312b565b925050602061347d8582860161319c565b9150509250929050565b6000806040838503121561349e5761349d61475b565b5b60006134ac8582860161312b565b92505060206134bd8582860161325f565b9150509250929050565b600080604083850312156134de576134dd61475b565b5b600083013567ffffffffffffffff8111156134fc576134fb614756565b5b61350885828601613140565b925050602083013567ffffffffffffffff81111561352957613528614756565b5b6135358582860161316e565b9150509250929050565b6000602082840312156135555761355461475b565b5b60006135638482850161319c565b91505092915050565b6000602082840312156135825761358161475b565b5b6000613590848285016131b1565b91505092915050565b6000602082840312156135af576135ae61475b565b5b60006135bd848285016131c6565b91505092915050565b6000806000604084860312156135df576135de61475b565b5b600084013567ffffffffffffffff8111156135fd576135fc614756565b5b613609868287016131db565b9350935050602061361c8682870161312b565b9150509250925092565b60006020828403121561363c5761363b61475b565b5b600061364a8482850161325f565b91505092915050565b6000806040838503121561366a5761366961475b565b5b60006136788582860161325f565b92505060206136898582860161325f565b9150509250929050565b600080600080606085870312156136ad576136ac61475b565b5b60006136bb8782880161325f565b94505060206136cc8782880161325f565b935050604085013567ffffffffffffffff8111156136ed576136ec614756565b5b6136f9878288016131db565b925092505092959194509250565b60006137138383613c41565b60208301905092915050565b6137288161445f565b82525050565b61373f61373a8261445f565b6145d8565b82525050565b600061375082614312565b61375a8185614340565b935061376583614302565b8060005b8381101561379657815161377d8882613707565b975061378883614333565b925050600181019050613769565b5085935050505092915050565b6137ac81614471565b82525050565b6137bb8161447d565b82525050565b6137d26137cd8261447d565b6145ea565b82525050565b60006137e38261431d565b6137ed8185614351565b93506137fd8185602086016144f9565b61380681614760565b840191505092915050565b600061381c82614328565b6138268185614362565b93506138368185602086016144f9565b61383f81614760565b840191505092915050565b6000613857601883614362565b91506138628261478b565b602082019050919050565b600061387a603483614362565b9150613885826147b4565b604082019050919050565b600061389d602883614362565b91506138a882614803565b604082019050919050565b60006138c0601f83614362565b91506138cb82614852565b602082019050919050565b60006138e3601c83614373565b91506138ee8261487b565b601c82019050919050565b6000613906602b83614362565b9150613911826148a4565b604082019050919050565b6000613929602683614362565b9150613934826148f3565b604082019050919050565b600061394c602b83614362565b915061395782614942565b604082019050919050565b600061396f601083614362565b915061397a82614991565b602082019050919050565b6000613992602c83614362565b915061399d826149ba565b604082019050919050565b60006139b5602983614362565b91506139c082614a09565b604082019050919050565b60006139d8602283614362565b91506139e382614a58565b604082019050919050565b60006139fb601683614362565b9150613a0682614aa7565b602082019050919050565b6000613a1e601e83614362565b9150613a2982614ad0565b602082019050919050565b6000613a41602583614362565b9150613a4c82614af9565b604082019050919050565b6000613a64603283614362565b9150613a6f82614b48565b604082019050919050565b6000613a87602283614362565b9150613a9282614b97565b604082019050919050565b6000613aaa602a83614362565b9150613ab582614be6565b604082019050919050565b6000613acd602083614362565b9150613ad882614c35565b602082019050919050565b6000613af0602683614362565b9150613afb82614c5e565b604082019050919050565b6000613b13601c83614362565b9150613b1e82614cad565b602082019050919050565b6000613b36602883614362565b9150613b4182614cd6565b604082019050919050565b6000613b59602c83614362565b9150613b6482614d25565b604082019050919050565b6000613b7c601083614362565b9150613b8782614d74565b602082019050919050565b6000613b9f602983614362565b9150613baa82614d9d565b604082019050919050565b6000613bc2602983614362565b9150613bcd82614dec565b604082019050919050565b6000613be5602883614362565b9150613bf082614e3b565b604082019050919050565b6000613c08602183614362565b9150613c1382614e8a565b604082019050919050565b6000613c2b601c83614362565b9150613c3682614ed9565b602082019050919050565b613c4a816144d3565b82525050565b613c59816144d3565b82525050565b613c68816144dd565b82525050565b6000613c7a828461372e565b60148201915081905092915050565b6000613c94826138d6565b9150613ca082846137c1565b60208201915081905092915050565b6000602082019050613cc4600083018461371f565b92915050565b600060a082019050613cdf600083018861371f565b613cec602083018761371f565b8181036040830152613cfe8186613745565b90508181036060830152613d128185613745565b90508181036080830152613d2681846137d8565b90509695505050505050565b600060a082019050613d47600083018861371f565b613d54602083018761371f565b613d616040830186613c50565b613d6e6060830185613c50565b8181036080830152613d8081846137d8565b90509695505050505050565b6000604082019050613da1600083018561371f565b613dae6020830184613c50565b9392505050565b60006020820190508181036000830152613dcf8184613745565b905092915050565b60006040820190508181036000830152613df18185613745565b90508181036020830152613e058184613745565b90509392505050565b6000602082019050613e2360008301846137a3565b92915050565b6000608082019050613e3e60008301876137b2565b613e4b6020830186613c5f565b613e5860408301856137b2565b613e6560608301846137b2565b95945050505050565b60006020820190508181036000830152613e888184613811565b905092915050565b60006020820190508181036000830152613ea98161384a565b9050919050565b60006020820190508181036000830152613ec98161386d565b9050919050565b60006020820190508181036000830152613ee981613890565b9050919050565b60006020820190508181036000830152613f09816138b3565b9050919050565b60006020820190508181036000830152613f29816138f9565b9050919050565b60006020820190508181036000830152613f498161391c565b9050919050565b60006020820190508181036000830152613f698161393f565b9050919050565b60006020820190508181036000830152613f8981613962565b9050919050565b60006020820190508181036000830152613fa981613985565b9050919050565b60006020820190508181036000830152613fc9816139a8565b9050919050565b60006020820190508181036000830152613fe9816139cb565b9050919050565b60006020820190508181036000830152614009816139ee565b9050919050565b6000602082019050818103600083015261402981613a11565b9050919050565b6000602082019050818103600083015261404981613a34565b9050919050565b6000602082019050818103600083015261406981613a57565b9050919050565b6000602082019050818103600083015261408981613a7a565b9050919050565b600060208201905081810360008301526140a981613a9d565b9050919050565b600060208201905081810360008301526140c981613ac0565b9050919050565b600060208201905081810360008301526140e981613ae3565b9050919050565b6000602082019050818103600083015261410981613b06565b9050919050565b6000602082019050818103600083015261412981613b29565b9050919050565b6000602082019050818103600083015261414981613b4c565b9050919050565b6000602082019050818103600083015261416981613b6f565b9050919050565b6000602082019050818103600083015261418981613b92565b9050919050565b600060208201905081810360008301526141a981613bb5565b9050919050565b600060208201905081810360008301526141c981613bd8565b9050919050565b600060208201905081810360008301526141e981613bfb565b9050919050565b6000602082019050818103600083015261420981613c1e565b9050919050565b60006020820190506142256000830184613c50565b92915050565b60006040820190506142406000830185613c50565b61424d6020830184613c50565b9392505050565b600061425e61426f565b905061426a828261455e565b919050565b6000604051905090565b600067ffffffffffffffff821115614294576142936146f1565b5b602082029050602081019050919050565b600067ffffffffffffffff8211156142c0576142bf6146f1565b5b602082029050602081019050919050565b600067ffffffffffffffff8211156142ec576142eb6146f1565b5b6142f582614760565b9050602081019050919050565b6000819050602082019050919050565b600081519050919050565b600081519050919050565b600081519050919050565b6000602082019050919050565b600082825260208201905092915050565b600082825260208201905092915050565b600082825260208201905092915050565b600081905092915050565b6000614389826144d3565b9150614394836144d3565b9250827fffffffffffffffffffffffffffffffffffffffffffffffffffffffffffffffff038211156143c9576143c8614606565b5b828201905092915050565b60006143df826144d3565b91506143ea836144d3565b9250826143fa576143f9614635565b5b828204905092915050565b6000614410826144d3565b915061441b836144d3565b9250817fffffffffffffffffffffffffffffffffffffffffffffffffffffffffffffffff048311821515161561445457614453614606565b5b828202905092915050565b600061446a826144b3565b9050919050565b60008115159050919050565b6000819050919050565b60007fffffffff0000000000000000000000000000000000000000000000000000000082169050919050565b600073ffffffffffffffffffffffffffffffffffffffff82169050919050565b6000819050919050565b600060ff82169050919050565b82818337600083830152505050565b60005b838110156145175780820151818401526020810190506144fc565b83811115614526576000848401525b50505050565b6000600282049050600182168061454457607f821691505b6020821081141561455857614557614693565b5b50919050565b61456782614760565b810181811067ffffffffffffffff82111715614586576145856146f1565b5b80604052505050565b600061459a826144d3565b91507fffffffffffffffffffffffffffffffffffffffffffffffffffffffffffffffff8214156145cd576145cc614606565b5b600182019050919050565b60006145e3826145f4565b9050919050565b6000819050919050565b60006145ff82614771565b9050919050565b7f4e487b7100000000000000000000000000000000000000000000000000000000600052601160045260246000fd5b7f4e487b7100000000000000000000000000000000000000000000000000000000600052601260045260246000fd5b7f4e487b7100000000000000000000000000000000000000000000000000000000600052602160045260246000fd5b7f4e487b7100000000000000000000000000000000000000000000000000000000600052602260045260246000fd5b7f4e487b7100000000000000000000000000000000000000000000000000000000600052603260045260246000fd5b7f4e487b7100000000000000000000000000000000000000000000000000000000600052604160045260246000fd5b600060033d111561473f5760046000803e61473c60005161477e565b90505b90565b600080fd5b600080fd5b600080fd5b600080fd5b600080fd5b600080fd5b6000601f19601f8301169050919050565b60008160601b9050919050565b60008160e01c9050919050565b7f45434453413a20696e76616c6964207369676e61747572650000000000000000600082015250565b7f455243313135353a207472616e7366657220746f206e6f6e204552433131353560008201527f526563656976657220696d706c656d656e746572000000000000000000000000602082015250565b7f455243313135353a204552433131353552656365697665722072656a6563746560008201527f6420746f6b656e73000000000000000000000000000000000000000000000000602082015250565b7f45434453413a20696e76616c6964207369676e6174757265206c656e67746800600082015250565b7f19457468657265756d205369676e6564204d6573736167653a0a333200000000600082015250565b7f455243313135353a2062616c616e636520717565727920666f7220746865207a60008201527f65726f2061646472657373000000000000000000000000000000000000000000602082015250565b7f4f776e61626c653a206e6577206f776e657220697320746865207a65726f206160008201527f6464726573730000000000000000000000000000000000000000000000000000602082015250565b7f596f7520747269656420746f206d696e74206d6f7265207468616e207468652060008201527f6d617820616c6c6f776564000000000000000000000000000000000000000000602082015250565b7f5072696365206973206e6f742073657400000000000000000000000000000000600082015250565b7f455243313135355061757361626c653a20746f6b656e207472616e736665722060008201527f7768696c65207061757365640000000000000000000000000000000000000000602082015250565b7f455243313135353a2063616c6c6572206973206e6f74206f776e6572206e6f7260008201527f20617070726f7665640000000000000000000000000000000000000000000000602082015250565b7f45434453413a20696e76616c6964207369676e6174757265202773272076616c60008201527f7565000000000000000000000000000000000000000000000000000000000000602082015250565b7f57726f6e6720616d6f756e742072657175657374656400000000000000000000600082015250565b7f596f75722077616c6c6574206973206e6f742077686974656c69737465640000600082015250565b7f455243313135353a207472616e7366657220746f20746865207a65726f20616460008201527f6472657373000000000000000000000000000000000000000000000000000000602082015250565b7f455243313135353a207472616e736665722063616c6c6572206973206e6f742060008201527f6f776e6572206e6f7220617070726f7665640000000000000000000000000000602082015250565b7f45434453413a20696e76616c6964207369676e6174757265202776272076616c60008201527f7565000000000000000000000000000000000000000000000000000000000000602082015250565b7f455243313135353a20696e73756666696369656e742062616c616e636520666f60008201527f72207472616e7366657200000000000000000000000000000000000000000000602082015250565b7f4f776e61626c653a2063616c6c6572206973206e6f7420746865206f776e6572600082015250565b7f596f7520686176652068697420746865206d617820746f6b656e73207065722060008201527f77616c6c65740000000000000000000000000000000000000000000000000000602082015250565b7f596f752068617665206e6f742073656e7420656e6f7567682045544800000000600082015250565b7f455243313135353a206275726e20616d6f756e74206578636565647320746f7460008201527f616c537570706c79000000000000000000000000000000000000000000000000602082015250565b7f50726963652063616e6e6f74206265206368616e676564207768696c6520736160008201527f6c65206973206163746976650000000000000000000000000000000000000000602082015250565b7f57726f6e672042756464696520444e4100000000000000000000000000000000600082015250565b7f455243313135353a2073657474696e6720617070726f76616c2073746174757360008201527f20666f722073656c660000000000000000000000000000000000000000000000602082015250565b7f455243313135353a206163636f756e747320616e6420696473206c656e67746860008201527f206d69736d617463680000000000000000000000000000000000000000000000602082015250565b7f455243313135353a2069647320616e6420616d6f756e7473206c656e6774682060008201527f6d69736d61746368000000000000000000000000000000000000000000000000602082015250565b7f455243313135353a206d696e7420746f20746865207a65726f2061646472657360008201527f7300000000000000000000000000000000000000000000000000000000000000602082015250565b7f546865206d696e7420686173206e6f7420737461727465642079657400000000600082015250565b600060443d1015614f1257614f95565b614f1a61426f565b60043d036004823e80513d602482011167ffffffffffffffff82111715614f42575050614f95565b808201805167ffffffffffffffff811115614f605750505050614f95565b80602083010160043d038501811115614f7d575050505050614f95565b614f8c8260200185018661455e565b82955050505050505b90565b614fa18161445f565b8114614fac57600080fd5b50565b614fb881614471565b8114614fc357600080fd5b50565b614fcf81614487565b8114614fda57600080fd5b50565b614fe6816144d3565b8114614ff157600080fd5b5056fea26469706673582212207d9fb95c682abb396a8ba310e87306bf9d2233a751f0be541d6ff17117e3957364736f6c63430008070033",
  "immutableReferences": {},
  "source": "// SPDX-License-Identifier: MIT\npragma solidity ^0.8.7;\n\nimport \"@openzeppelin/contracts/token/ERC1155/extensions/ERC1155Supply.sol\";\nimport \"@openzeppelin/contracts/access/Ownable.sol\";\nimport \"@openzeppelin/contracts/utils/cryptography/ECDSA.sol\";\n\n                                                           \ncontract DnaCollection is ERC1155Supply, Ownable {\n    using ECDSA for bytes32;\n\n    // BUDDI RUNNER DNA TOKEN IDs\n    uint256 public constant DNA_WHALE = 0;\n    uint256 public constant DNA_SPIDER = 1;\n    uint256 public constant DNA_SLOTH = 2;\n    uint256 public constant DNA_ARMADILLO = 3;\n    uint256 public constant DNA_CROCODILE = 4;\n\n    uint256 public constant MAX_SUPPLY = 2000;\n    uint256 public constant PER_WALLET_LIMIT = 10;\n\n    uint256 public tokenPrice;\n    bool public saleIsActive;\n    bool public isPaused;\n\n    string private name_;\n    string private symbol_; \n\n    address public signerAddress;\n\n    address public royaltyAddress;\n    uint256 public ROYALTY_SIZE = 500; // 5%\n    uint256 public ROYALTY_DENOMINATOR = 10000;\n\n    mapping(uint256 => address) private _royaltyReceivers;\n    mapping (address => uint256) private _mintedPerAddress;\n\n    event TokensMinted(\n      address mintedBy,\n      uint256 tokensNumber\n    );\n\n    constructor(\n      string memory _name,\n      string memory _symbol,\n      string memory _uri,\n      address _signer,\n      address _royalty\n    ) ERC1155(_uri) {\n      name_ = _name;\n      symbol_ = _symbol;\n      signerAddress = _signer;\n      royaltyAddress = _royalty;\n\n      tokenPrice = 0.069 ether;\n    }\n    \n    function name() public view returns (string memory) {\n      return name_;\n    }\n\n    function symbol() public view returns (string memory) {\n      return symbol_;\n    }\n\n    function royaltyInfo(uint256 _tokenId, uint256 _salePrice) external view returns (address receiver, uint256 royaltyAmount) {\n      uint256 amount = _salePrice * ROYALTY_SIZE / ROYALTY_DENOMINATOR;\n      address royaltyReceiver = _royaltyReceivers[_tokenId] != address(0) ? _royaltyReceivers[_tokenId] : royaltyAddress;\n      return (royaltyReceiver, amount);\n    }\n\n    function addRoyaltyReceiverForTokenId(address receiver, uint256 tokenId) public onlyOwner {\n      _royaltyReceivers[tokenId] = receiver;\n    }\n\n    function purchase(uint256 tokensNumber, uint dnaType, bytes calldata signature) public payable {\n      require(saleIsActive, \"The mint has not started yet\");\n      require(dnaType < 5, \"Wrong Buddie DNA\");\n      require(tokensNumber > 0, \"Wrong amount requested\");\n      require(totalSupply(dnaType) + tokensNumber <= MAX_SUPPLY, \"You tried to mint more than the max allowed\");\n\n      if (_msgSender() != owner()) {\n        require(_mintedPerAddress[_msgSender()] + tokensNumber <= PER_WALLET_LIMIT, \"You have hit the max tokens per wallet\");\n        require(_validateSignature(signature, _msgSender()), \"Your wallet is not whitelisted\");\n        require(tokensNumber * tokenPrice == msg.value,\n          \"You have not sent enough ETH\"\n        );\n        _mintedPerAddress[_msgSender()] += tokensNumber;\n      }\n\n      _mint(_msgSender(), dnaType, tokensNumber, \"\");\n      emit TokensMinted(_msgSender(), tokensNumber);\n    }\n\n    function checkIfWhitelisted(bytes calldata signature, address caller) public view returns (bool) {\n        return (_validateSignature(signature, caller));\n    }\n\n    function _validateSignature(bytes calldata signature, address caller) internal view returns (bool) {\n      bytes32 dataHash = keccak256(abi.encodePacked(caller));\n      bytes32 message = ECDSA.toEthSignedMessageHash(dataHash);\n\n      address receivedAddress = ECDSA.recover(message, signature);\n      return (receivedAddress != address(0) && receivedAddress == signerAddress);\n    }\n\n    function updateSaleStatus(bool status) public onlyOwner {\n      require(tokenPrice != 0, \"Price is not set\");\n      saleIsActive = status;\n    }\n    \n    function setTokenPrice(uint256 _tokenPrice) public onlyOwner {\n      require(!saleIsActive, \"Price cannot be changed while sale is active\");\n      tokenPrice = _tokenPrice;\n    }\n\n    function withdraw() external onlyOwner {\n      uint256 balance = address(this).balance;\n      payable(owner()).transfer(balance);\n    }\n\n    function pause(bool _isPaused) external onlyOwner {\n      isPaused = _isPaused;\n    }\n\n    /**\n     * @dev See {ERC1155-_beforeTokenTransfer}.\n     *\n     * Requirements:\n     *\n     * - the contract must not be paused.\n     */\n    function _beforeTokenTransfer(\n        address operator,\n        address from,\n        address to,\n        uint256[] memory ids,\n        uint256[] memory amounts,\n        bytes memory data\n    ) internal virtual override {\n        super._beforeTokenTransfer(operator, from, to, ids, amounts, data);\n\n        require(!isPaused, \"ERC1155Pausable: token transfer while paused\");\n    }\n}",
  "sourcePath": "/home/osboxes/Documents/Buddie/buddie-contract/contracts/DnaCollection.sol",
  "compiler": {
    "name": "solc",
    "version": "0.8.7+commit.e28d00a7.Emscripten.clang"
  },
  "schemaVersion": "3.4.6",
  "updatedAt": "2022-06-07T15:32:08.369Z",
  "devdoc": {
    "kind": "dev",
    "methods": {
      "balanceOf(address,uint256)": {
        "details": "See {IERC1155-balanceOf}. Requirements: - `account` cannot be the zero address."
      },
      "balanceOfBatch(address[],uint256[])": {
        "details": "See {IERC1155-balanceOfBatch}. Requirements: - `accounts` and `ids` must have the same length."
      },
      "exists(uint256)": {
        "details": "Indicates whether any token exist with a given id, or not."
      },
      "isApprovedForAll(address,address)": {
        "details": "See {IERC1155-isApprovedForAll}."
      },
      "owner()": {
        "details": "Returns the address of the current owner."
      },
      "renounceOwnership()": {
        "details": "Leaves the contract without owner. It will not be possible to call `onlyOwner` functions anymore. Can only be called by the current owner. NOTE: Renouncing ownership will leave the contract without an owner, thereby removing any functionality that is only available to the owner."
      },
      "safeBatchTransferFrom(address,address,uint256[],uint256[],bytes)": {
        "details": "See {IERC1155-safeBatchTransferFrom}."
      },
      "safeTransferFrom(address,address,uint256,uint256,bytes)": {
        "details": "See {IERC1155-safeTransferFrom}."
      },
      "setApprovalForAll(address,bool)": {
        "details": "See {IERC1155-setApprovalForAll}."
      },
      "supportsInterface(bytes4)": {
        "details": "See {IERC165-supportsInterface}."
      },
      "totalSupply(uint256)": {
        "details": "Total amount of tokens in with a given id."
      },
      "transferOwnership(address)": {
        "details": "Transfers ownership of the contract to a new account (`newOwner`). Can only be called by the current owner."
      },
      "uri(uint256)": {
        "details": "See {IERC1155MetadataURI-uri}. This implementation returns the same URI for *all* token types. It relies on the token type ID substitution mechanism https://eips.ethereum.org/EIPS/eip-1155#metadata[defined in the EIP]. Clients calling this function must replace the `\\{id\\}` substring with the actual token type ID."
      }
    },
    "version": 1
  },
  "userdoc": {
    "kind": "user",
    "methods": {},
    "version": 1
  }
}